{"abi":[{"type":"constructor","inputs":[{"name":"_tokenAddress","type":"address","internalType":"address"}],"stateMutability":"nonpayable"},{"type":"function","name":"chainCoopFees","inputs":[],"outputs":[{"name":"","type":"address","internalType":"address"}],"stateMutability":"view"},{"type":"function","name":"getSavingPoolByIndex","inputs":[{"name":"_index","type":"bytes32","internalType":"bytes32"}],"outputs":[{"name":"","type":"tuple","internalType":"struct IChainCoopSaving.SavingPool","components":[{"name":"saver","type":"address","internalType":"address"},{"name":"tokenToSaveWith","type":"address","internalType":"address"},{"name":"Reason","type":"string","internalType":"string"},{"name":"poolIndex","type":"bytes32","internalType":"bytes32"},{"name":"startDate","type":"uint256","internalType":"uint256"},{"name":"Duration","type":"uint256","internalType":"uint256"},{"name":"amountSaved","type":"uint256","internalType":"uint256"},{"name":"locktype","type":"uint8","internalType":"enum IChainCoopSaving.LockingType"},{"name":"isGoalAccomplished","type":"bool","internalType":"bool"},{"name":"isStoped","type":"bool","internalType":"bool"}]}],"stateMutability":"view"},{"type":"function","name":"getSavingPoolBySaver","inputs":[{"name":"_saver","type":"address","internalType":"address"}],"outputs":[{"name":"pools","type":"tuple[]","internalType":"struct IChainCoopSaving.SavingPool[]","components":[{"name":"saver","type":"address","internalType":"address"},{"name":"tokenToSaveWith","type":"address","internalType":"address"},{"name":"Reason","type":"string","internalType":"string"},{"name":"poolIndex","type":"bytes32","internalType":"bytes32"},{"name":"startDate","type":"uint256","internalType":"uint256"},{"name":"Duration","type":"uint256","internalType":"uint256"},{"name":"amountSaved","type":"uint256","internalType":"uint256"},{"name":"locktype","type":"uint8","internalType":"enum IChainCoopSaving.LockingType"},{"name":"isGoalAccomplished","type":"bool","internalType":"bool"},{"name":"isStoped","type":"bool","internalType":"bool"}]}],"stateMutability":"view"},{"type":"function","name":"getSavingPoolCount","inputs":[],"outputs":[{"name":"","type":"uint256","internalType":"uint256"}],"stateMutability":"view"},{"type":"function","name":"getUserContributions","inputs":[{"name":"_saver","type":"address","internalType":"address"}],"outputs":[{"name":"contributions","type":"tuple[]","internalType":"struct ChainCoopSaving.Contribution[]","components":[{"name":"tokenAddress","type":"address","internalType":"address"},{"name":"amount","type":"uint256","internalType":"uint256"}]}],"stateMutability":"view"},{"type":"function","name":"isTokenAllowed","inputs":[{"name":"","type":"address","internalType":"address"}],"outputs":[{"name":"","type":"bool","internalType":"bool"}],"stateMutability":"view"},{"type":"function","name":"openSavingPool","inputs":[{"name":"_tokenTosaveWith","type":"address","internalType":"address"},{"name":"_savedAmount","type":"uint256","internalType":"uint256"},{"name":"_reason","type":"string","internalType":"string"},{"name":"_locktype","type":"uint8","internalType":"enum IChainCoopSaving.LockingType"},{"name":"_duration","type":"uint256","internalType":"uint256"}],"outputs":[],"stateMutability":"nonpayable"},{"type":"function","name":"owner","inputs":[],"outputs":[{"name":"","type":"address","internalType":"address"}],"stateMutability":"view"},{"type":"function","name":"poolCount","inputs":[],"outputs":[{"name":"","type":"uint256","internalType":"uint256"}],"stateMutability":"view"},{"type":"function","name":"poolSavingPool","inputs":[{"name":"","type":"bytes32","internalType":"bytes32"}],"outputs":[{"name":"saver","type":"address","internalType":"address"},{"name":"tokenToSaveWith","type":"address","internalType":"address"},{"name":"Reason","type":"string","internalType":"string"},{"name":"poolIndex","type":"bytes32","internalType":"bytes32"},{"name":"startDate","type":"uint256","internalType":"uint256"},{"name":"Duration","type":"uint256","internalType":"uint256"},{"name":"amountSaved","type":"uint256","internalType":"uint256"},{"name":"locktype","type":"uint8","internalType":"enum IChainCoopSaving.LockingType"},{"name":"isGoalAccomplished","type":"bool","internalType":"bool"},{"name":"isStoped","type":"bool","internalType":"bool"}],"stateMutability":"view"},{"type":"function","name":"removeAllowedTokens","inputs":[{"name":"_tokenAddress","type":"address","internalType":"address"}],"outputs":[],"stateMutability":"nonpayable"},{"type":"function","name":"restartSaving","inputs":[{"name":"_poolId","type":"bytes32","internalType":"bytes32"}],"outputs":[],"stateMutability":"nonpayable"},{"type":"function","name":"setAllowedTokens","inputs":[{"name":"_tokenAddress","type":"address","internalType":"address"}],"outputs":[],"stateMutability":"nonpayable"},{"type":"function","name":"setChainCoopAddress","inputs":[{"name":"_chaincoopfees","type":"address","internalType":"address"}],"outputs":[],"stateMutability":"nonpayable"},{"type":"function","name":"stopSaving","inputs":[{"name":"_poolId","type":"bytes32","internalType":"bytes32"}],"outputs":[],"stateMutability":"nonpayable"},{"type":"function","name":"transferOwnership","inputs":[{"name":"newOwner","type":"address","internalType":"address"}],"outputs":[],"stateMutability":"nonpayable"},{"type":"function","name":"updateSaving","inputs":[{"name":"_poolId","type":"bytes32","internalType":"bytes32"},{"name":"_amount","type":"uint256","internalType":"uint256"}],"outputs":[],"stateMutability":"nonpayable"},{"type":"function","name":"userContributedPools","inputs":[{"name":"","type":"address","internalType":"address"},{"name":"","type":"uint256","internalType":"uint256"}],"outputs":[{"name":"","type":"bytes32","internalType":"bytes32"}],"stateMutability":"view"},{"type":"function","name":"userPoolBalance","inputs":[{"name":"","type":"address","internalType":"address"},{"name":"","type":"bytes32","internalType":"bytes32"}],"outputs":[{"name":"","type":"uint256","internalType":"uint256"}],"stateMutability":"view"},{"type":"function","name":"withdraw","inputs":[{"name":"_poolId","type":"bytes32","internalType":"bytes32"}],"outputs":[],"stateMutability":"nonpayable"},{"type":"event","name":"AdminChanged","inputs":[{"name":"previousAdmin","type":"address","indexed":false,"internalType":"address"},{"name":"newAdmin","type":"address","indexed":false,"internalType":"address"}],"anonymous":false},{"type":"event","name":"AllowToken","inputs":[{"name":"_updator","type":"address","indexed":false,"internalType":"address"},{"name":"_allowedToken","type":"address","indexed":false,"internalType":"address"}],"anonymous":false},{"type":"event","name":"ChainCoopFeesChanged","inputs":[{"name":"previousChainCoopFees","type":"address","indexed":true,"internalType":"address"},{"name":"newChainCoopFees","type":"address","indexed":true,"internalType":"address"},{"name":"_ownerChanged","type":"address","indexed":true,"internalType":"address"}],"anonymous":false},{"type":"event","name":"OpenSavingPool","inputs":[{"name":"user","type":"address","indexed":true,"internalType":"address"},{"name":"_tokenAddress","type":"address","indexed":true,"internalType":"address"},{"name":"_index","type":"uint256","indexed":false,"internalType":"uint256"},{"name":"initialAmount","type":"uint256","indexed":false,"internalType":"uint256"},{"name":"startTime","type":"uint256","indexed":false,"internalType":"uint256"},{"name":"","type":"uint8","indexed":false,"internalType":"enum IChainCoopSaving.LockingType"},{"name":"duration","type":"uint256","indexed":false,"internalType":"uint256"},{"name":"_poolId","type":"bytes32","indexed":false,"internalType":"bytes32"}],"anonymous":false},{"type":"event","name":"RestartSaving","inputs":[{"name":"_poolOwner","type":"address","indexed":false,"internalType":"address"},{"name":"_poolId","type":"bytes32","indexed":false,"internalType":"bytes32"}],"anonymous":false},{"type":"event","name":"StopSaving","inputs":[{"name":"_poolOwner","type":"address","indexed":false,"internalType":"address"},{"name":"_poolId","type":"bytes32","indexed":false,"internalType":"bytes32"}],"anonymous":false},{"type":"event","name":"UpdateSaving","inputs":[{"name":"user","type":"address","indexed":true,"internalType":"address"},{"name":"_tokenAddress","type":"address","indexed":true,"internalType":"address"},{"name":"amount","type":"uint256","indexed":false,"internalType":"uint256"},{"name":"_poolId","type":"bytes32","indexed":false,"internalType":"bytes32"}],"anonymous":false},{"type":"event","name":"Withdraw","inputs":[{"name":"user","type":"address","indexed":true,"internalType":"address"},{"name":"_tokenAddress","type":"address","indexed":true,"internalType":"address"},{"name":"amount","type":"uint256","indexed":false,"internalType":"uint256"},{"name":"_poolId","type":"bytes32","indexed":false,"internalType":"bytes32"}],"anonymous":false},{"type":"error","name":"NotPoolOwner","inputs":[{"name":"_caller","type":"address","internalType":"address"},{"name":"_poolId","type":"bytes32","internalType":"bytes32"}]},{"type":"error","name":"PoolStoped","inputs":[{"name":"_caller","type":"address","internalType":"address"},{"name":"_poolid","type":"bytes32","internalType":"bytes32"}]},{"type":"error","name":"ReentrancyGuardReentrantCall","inputs":[]},{"type":"error","name":"SavingPeriodStillOn","inputs":[{"name":"_caller","type":"address","internalType":"address"},{"name":"_poolId","type":"bytes32","internalType":"bytes32"},{"name":"_endDate","type":"uint256","internalType":"uint256"}]},{"type":"error","name":"StrictlySavingType","inputs":[{"name":"_caller","type":"address","internalType":"address"},{"name":"_poolId","type":"bytes32","internalType":"bytes32"}]},{"type":"error","name":"ZeroAmount","inputs":[{"name":"_amount","type":"uint256","internalType":"uint256"}]},{"type":"error","name":"ZeroDuration","inputs":[{"name":"_duration","type":"uint256","internalType":"uint256"}]}],"bytecode":{"object":"0x60806040525f600755348015610013575f5ffd5b506040516136a83803806136a883398181016040528101906100359190610137565b80335f5f6101000a81548173ffffffffffffffffffffffffffffffffffffffff021916908373ffffffffffffffffffffffffffffffffffffffff160217905550600160025f8373ffffffffffffffffffffffffffffffffffffffff1673ffffffffffffffffffffffffffffffffffffffff1681526020019081526020015f205f6101000a81548160ff02191690831515021790555050600160038190555050610162565b5f5ffd5b5f73ffffffffffffffffffffffffffffffffffffffff82169050919050565b5f610106826100dd565b9050919050565b610116816100fc565b8114610120575f5ffd5b50565b5f815190506101318161010d565b92915050565b5f6020828403121561014c5761014b6100d9565b5b5f61015984828501610123565b91505092915050565b6135398061016f5f395ff3fe608060405234801561000f575f5ffd5b506004361061012a575f3560e01c80639c339d64116100ab578063f525cb681161006f578063f525cb6814610359578063f87e3d6314610377578063f9eaee0d14610393578063fd3b15a0146103c3578063fec71f27146103df5761012a565b80639c339d64146102a5578063a9a95ddd146102c1578063c0fd05a1146102dd578063e36465a31461030d578063f2fde38b1461033d5761012a565b80637784fc1a116100f25780637784fc1a146101e65780638146fd9e1461021f5780638da5cb5b1461024f5780638e19899e1461026d578063906d8f79146102895761012a565b80630a0909671461012e5780630b1ad4a91461015e5780631c1e55461461017c5780633759c8a51461019a5780635fbc3c8d146101ca575b5f5ffd5b6101486004803603810190610143919061239a565b6103fb565b60405161015591906123f0565b60405180910390f35b610166610426565b6040516101739190612418565b60405180910390f35b61018461042f565b6040516101919190612440565b60405180910390f35b6101b460048036038101906101af9190612459565b610454565b6040516101c19190612740565b60405180910390f35b6101e460048036038101906101df919061278a565b610779565b005b61020060048036038101906101fb919061278a565b61089a565b6040516102169a9998979695949392919061281b565b60405180910390f35b6102396004803603810190610234919061278a565b6109d4565b6040516102469190612993565b60405180910390f35b6102576109e1565b6040516102649190612440565b60405180910390f35b6102876004803603810190610282919061278a565b610a05565b005b6102a3600480360381019061029e9190612459565b611046565b005b6102bf60048036038101906102ba91906129b3565b611165565b005b6102db60048036038101906102d69190612a75565b611557565b005b6102f760048036038101906102f29190612b0b565b611b50565b6040516103049190612418565b60405180910390f35b61032760048036038101906103229190612459565b611b70565b6040516103349190612c1e565b60405180910390f35b61035760048036038101906103529190612459565b611d0e565b005b610361611e37565b60405161036e9190612418565b60405180910390f35b610391600480360381019061038c9190612459565b611e3d565b005b6103ad60048036038101906103a89190612459565b611fa0565b6040516103ba9190612c3e565b60405180910390f35b6103dd60048036038101906103d8919061278a565b611fbd565b005b6103f960048036038101906103f49190612459565b6120dd565b005b6006602052815f5260405f208181548110610414575f80fd5b905f5260205f20015f91509150505481565b5f600754905090565b60015f9054906101000a900473ffffffffffffffffffffffffffffffffffffffff1681565b60605f60065f8473ffffffffffffffffffffffffffffffffffffffff1673ffffffffffffffffffffffffffffffffffffffff1681526020019081526020015f208054905090508067ffffffffffffffff8111156104b4576104b3612c57565b5b6040519080825280602002602001820160405280156104ed57816020015b6104da61224b565b8152602001906001900390816104d25790505b5091505f5f90505b81811015610772575f60065f8673ffffffffffffffffffffffffffffffffffffffff1673ffffffffffffffffffffffffffffffffffffffff1681526020019081526020015f20828154811061054d5761054c612c84565b5b905f5260205f200154905060045f8281526020019081526020015f20604051806101400160405290815f82015f9054906101000a900473ffffffffffffffffffffffffffffffffffffffff1673ffffffffffffffffffffffffffffffffffffffff1673ffffffffffffffffffffffffffffffffffffffff168152602001600182015f9054906101000a900473ffffffffffffffffffffffffffffffffffffffff1673ffffffffffffffffffffffffffffffffffffffff1673ffffffffffffffffffffffffffffffffffffffff16815260200160028201805461062e90612cde565b80601f016020809104026020016040519081016040528092919081815260200182805461065a90612cde565b80156106a55780601f1061067c576101008083540402835291602001916106a5565b820191905f5260205f20905b81548152906001019060200180831161068857829003601f168201915b5050505050815260200160038201548152602001600482015481526020016005820154815260200160068201548152602001600782015f9054906101000a900460ff1660028111156106fa576106f961254a565b5b600281111561070c5761070b61254a565b5b81526020016007820160019054906101000a900460ff161515151581526020016007820160029054906101000a900460ff16151515158152505084838151811061075957610758612c84565b5b60200260200101819052505080806001019150506104f5565b5050919050565b3373ffffffffffffffffffffffffffffffffffffffff1660045f8381526020019081526020015f205f015f9054906101000a900473ffffffffffffffffffffffffffffffffffffffff1673ffffffffffffffffffffffffffffffffffffffff1614610831573360045f8381526020019081526020015f20600301546040517faa5be1a4000000000000000000000000000000000000000000000000000000008152600401610828929190612d0e565b60405180910390fd5b600160045f8381526020019081526020015f2060070160026101000a81548160ff0219169083151502179055507fdea4b365a5e006e9098e7ff31a184a5b4f07c8e1786764fa483ba6c424af66bb338260405161088f929190612d0e565b60405180910390a150565b6004602052805f5260405f205f91509050805f015f9054906101000a900473ffffffffffffffffffffffffffffffffffffffff1690806001015f9054906101000a900473ffffffffffffffffffffffffffffffffffffffff169080600201805461090390612cde565b80601f016020809104026020016040519081016040528092919081815260200182805461092f90612cde565b801561097a5780601f106109515761010080835404028352916020019161097a565b820191905f5260205f20905b81548152906001019060200180831161095d57829003601f168201915b505050505090806003015490806004015490806005015490806006015490806007015f9054906101000a900460ff16908060070160019054906101000a900460ff16908060070160029054906101000a900460ff1690508a565b6109dc61224b565b919050565b5f5f9054906101000a900473ffffffffffffffffffffffffffffffffffffffff1681565b610a0d6121fb565b5f60045f8381526020019081526020015f2090503373ffffffffffffffffffffffffffffffffffffffff16815f015f9054906101000a900473ffffffffffffffffffffffffffffffffffffffff1673ffffffffffffffffffffffffffffffffffffffff1614610ab9573381600301546040517faa5be1a4000000000000000000000000000000000000000000000000000000008152600401610ab0929190612d0e565b60405180910390fd5b600280811115610acc57610acb61254a565b5b816007015f9054906101000a900460ff166002811115610aef57610aee61254a565b5b03610c74574281600501541115610b4557338282600501546040517f93c5df9e000000000000000000000000000000000000000000000000000000008152600401610b3c93929190612d35565b60405180910390fd5b5f816006015490505f826006018190555060018260070160016101000a81548160ff021916908315150217905550816001015f9054906101000a900473ffffffffffffffffffffffffffffffffffffffff1673ffffffffffffffffffffffffffffffffffffffff1663a9059cbb835f015f9054906101000a900473ffffffffffffffffffffffffffffffffffffffff16836040518363ffffffff1660e01b8152600401610bf3929190612d6a565b6020604051808303815f875af1158015610c0f573d5f5f3e3d5ffd5b505050506040513d601f19601f82011682018060405250810190610c339190612dbb565b610c72576040517f08c379a0000000000000000000000000000000000000000000000000000000008152600401610c6990612e30565b60405180910390fd5b505b8060070160019054906101000a900460ff1615610da1575f816006015490505f8260060181905550816001015f9054906101000a900473ffffffffffffffffffffffffffffffffffffffff1673ffffffffffffffffffffffffffffffffffffffff1663a9059cbb835f015f9054906101000a900473ffffffffffffffffffffffffffffffffffffffff16836040518363ffffffff1660e01b8152600401610d1c929190612d6a565b6020604051808303815f875af1158015610d38573d5f5f3e3d5ffd5b505050506040513d601f19601f82011682018060405250810190610d5c9190612dbb565b610d9b576040517f08c379a0000000000000000000000000000000000000000000000000000000008152600401610d9290612e30565b60405180910390fd5b5061103a565b5f73d3bb7d60e58a95d70781e4ca463d8d3b9f05e28063a57475e083600601546040518263ffffffff1660e01b8152600401610ddd9190612e5d565b602060405180830381865af4158015610df8573d5f5f3e3d5ffd5b505050506040513d601f19601f82011682018060405250810190610e1c9190612e8a565b90505f818360060154610e2f9190612ee2565b90505f8360060181905550826001015f9054906101000a900473ffffffffffffffffffffffffffffffffffffffff1673ffffffffffffffffffffffffffffffffffffffff1663a9059cbb845f015f9054906101000a900473ffffffffffffffffffffffffffffffffffffffff16836040518363ffffffff1660e01b8152600401610eba929190612d6a565b6020604051808303815f875af1158015610ed6573d5f5f3e3d5ffd5b505050506040513d601f19601f82011682018060405250810190610efa9190612dbb565b610f39576040517f08c379a0000000000000000000000000000000000000000000000000000000008152600401610f3090612f5f565b60405180910390fd5b826001015f9054906101000a900473ffffffffffffffffffffffffffffffffffffffff1673ffffffffffffffffffffffffffffffffffffffff1663a9059cbb60015f9054906101000a900473ffffffffffffffffffffffffffffffffffffffff16846040518363ffffffff1660e01b8152600401610fb8929190612d6a565b6020604051808303815f875af1158015610fd4573d5f5f3e3d5ffd5b505050506040513d601f19601f82011682018060405250810190610ff89190612dbb565b611037576040517f08c379a000000000000000000000000000000000000000000000000000000000815260040161102e90612f5f565b60405180910390fd5b50505b50611043612241565b50565b5f5f9054906101000a900473ffffffffffffffffffffffffffffffffffffffff1673ffffffffffffffffffffffffffffffffffffffff163373ffffffffffffffffffffffffffffffffffffffff16146110d4576040517f08c379a00000000000000000000000000000000000000000000000000000000081526004016110cb90612fc7565b60405180910390fd5b600160025f8373ffffffffffffffffffffffffffffffffffffffff1673ffffffffffffffffffffffffffffffffffffffff1681526020019081526020015f205f6101000a81548160ff0219169083151502179055507fb255eb80cd9faf1bf370ec9d568e7ddcd76db8329d4665996ac3ff866e93a1a6338260405161115a929190612fe5565b60405180910390a150565b3373ffffffffffffffffffffffffffffffffffffffff1660045f8481526020019081526020015f205f015f9054906101000a900473ffffffffffffffffffffffffffffffffffffffff1673ffffffffffffffffffffffffffffffffffffffff161461121d573360045f8481526020019081526020015f20600301546040517faa5be1a4000000000000000000000000000000000000000000000000000000008152600401611214929190612d0e565b60405180910390fd5b60045f8381526020019081526020015f2060070160029054906101000a900460ff16156112835733826040517fe8279ca100000000000000000000000000000000000000000000000000000000815260040161127a929190612d0e565b60405180910390fd5b6002808111156112965761129561254a565b5b60045f8481526020019081526020015f206007015f9054906101000a900460ff1660028111156112c9576112c861254a565b5b0361130d5733826040517fd6d2b66a000000000000000000000000000000000000000000000000000000008152600401611304929190612d0e565b60405180910390fd5b5f811161135157806040517f9af704480000000000000000000000000000000000000000000000000000000081526004016113489190612418565b60405180910390fd5b5f60045f8481526020019081526020015f209050806001015f9054906101000a900473ffffffffffffffffffffffffffffffffffffffff1673ffffffffffffffffffffffffffffffffffffffff166323b872dd3330856040518463ffffffff1660e01b81526004016113c59392919061300c565b6020604051808303815f875af11580156113e1573d5f5f3e3d5ffd5b505050506040513d601f19601f820116820180604052508101906114059190612dbb565b611444576040517f08c379a000000000000000000000000000000000000000000000000000000000815260040161143b9061308b565b60405180910390fd5b81816006015f82825461145791906130a9565b92505081905550600160028111156114725761147161254a565b5b816007015f9054906101000a900460ff1660028111156114955761149461254a565b5b036114c457428160050154116114c35760018160070160016101000a81548160ff0219169083151502179055505b5b806001015f9054906101000a900473ffffffffffffffffffffffffffffffffffffffff1673ffffffffffffffffffffffffffffffffffffffff163373ffffffffffffffffffffffffffffffffffffffff167fd6b63929f187e155f5af5fadc43fccae09fe211e961616fc2a75a4434c08f95c84846003015460405161154a9291906130dc565b60405180910390a3505050565b8560025f8273ffffffffffffffffffffffffffffffffffffffff1673ffffffffffffffffffffffffffffffffffffffff1681526020019081526020015f205f9054906101000a900460ff166115e1576040517f08c379a00000000000000000000000000000000000000000000000000000000081526004016115d89061314d565b60405180910390fd5b5f861161162557856040517f9af7044800000000000000000000000000000000000000000000000000000000815260040161161c9190612418565b60405180910390fd5b5f821161166957816040517fe8b61d260000000000000000000000000000000000000000000000000000000081526004016116609190612418565b60405180910390fd5b5f60075490505f5f60028111156116835761168261254a565b5b8560028111156116965761169561254a565b5b036116a057600190505b5f4290505f73d3bb7d60e58a95d70781e4ca463d8d3b9f05e28063783a5e6233428d6040518463ffffffff1660e01b81526004016116e09392919061317a565b602060405180830381865af41580156116fb573d5f5f3e3d5ffd5b505050506040513d601f19601f8201168201806040525081019061171f91906131c3565b90508a73ffffffffffffffffffffffffffffffffffffffff166323b872dd33308d6040518463ffffffff1660e01b815260040161175e9392919061300c565b6020604051808303815f875af115801561177a573d5f5f3e3d5ffd5b505050506040513d601f19601f8201168201806040525081019061179e9190612dbb565b6117dd576040517f08c379a00000000000000000000000000000000000000000000000000000000081526004016117d49061308b565b60405180910390fd5b5f6040518061014001604052803373ffffffffffffffffffffffffffffffffffffffff1681526020018d73ffffffffffffffffffffffffffffffffffffffff1681526020018b8b8080601f0160208091040260200160405190810160405280939291908181526020018383808284375f81840152601f19601f8201169050808301925050505050505081526020018381526020018481526020018881526020018c81526020018960028111156118965761189561254a565b5b815260200185151581526020015f1515815250905060075f8154809291906118bd906131ee565b91905055508060045f8481526020019081526020015f205f820151815f015f6101000a81548173ffffffffffffffffffffffffffffffffffffffff021916908373ffffffffffffffffffffffffffffffffffffffff1602179055506020820151816001015f6101000a81548173ffffffffffffffffffffffffffffffffffffffff021916908373ffffffffffffffffffffffffffffffffffffffff160217905550604082015181600201908161197391906133d5565b50606082015181600301556080820151816004015560a0820151816005015560c0820151816006015560e0820151816007015f6101000a81548160ff021916908360028111156119c6576119c561254a565b5b02179055506101008201518160070160016101000a81548160ff0219169083151502179055506101208201518160070160026101000a81548160ff02191690831515021790555090505060065f3373ffffffffffffffffffffffffffffffffffffffff1673ffffffffffffffffffffffffffffffffffffffff1681526020019081526020015f2082908060018154018082558091505060019003905f5260205f20015f90919091909150558a60055f3373ffffffffffffffffffffffffffffffffffffffff1673ffffffffffffffffffffffffffffffffffffffff1681526020019081526020015f205f8481526020019081526020015f205f828254611acc91906130a9565b925050819055508b73ffffffffffffffffffffffffffffffffffffffff163373ffffffffffffffffffffffffffffffffffffffff167f146c838f2b0fe5a6f74afd3842521cf1b9739e75b6c517635b2c592bdb4f88de878e878d8d89604051611b3a969594939291906134a4565b60405180910390a3505050505050505050505050565b6005602052815f5260405f20602052805f5260405f205f91509150505481565b60605f60065f8473ffffffffffffffffffffffffffffffffffffffff1673ffffffffffffffffffffffffffffffffffffffff1681526020019081526020015f208054905090508067ffffffffffffffff811115611bd057611bcf612c57565b5b604051908082528060200260200182016040528015611c0957816020015b611bf66122d7565b815260200190600190039081611bee5790505b5091505f5f90505b81811015611d07575f60065f8673ffffffffffffffffffffffffffffffffffffffff1673ffffffffffffffffffffffffffffffffffffffff1681526020019081526020015f208281548110611c6957611c68612c84565b5b905f5260205f20015490505f60045f8381526020019081526020015f2090506040518060400160405280826001015f9054906101000a900473ffffffffffffffffffffffffffffffffffffffff1673ffffffffffffffffffffffffffffffffffffffff1681526020018260060154815250858481518110611ced57611cec612c84565b5b602002602001018190525050508080600101915050611c11565b5050919050565b5f5f9054906101000a900473ffffffffffffffffffffffffffffffffffffffff1673ffffffffffffffffffffffffffffffffffffffff163373ffffffffffffffffffffffffffffffffffffffff1614611d9c576040517f08c379a0000000000000000000000000000000000000000000000000000000008152600401611d9390612fc7565b60405180910390fd5b805f5f6101000a81548173ffffffffffffffffffffffffffffffffffffffff021916908373ffffffffffffffffffffffffffffffffffffffff1602179055507f7e644d79422f17c01e4894b5f4f588d331ebfa28653d42ae832dc59e38c9798f5f5f9054906101000a900473ffffffffffffffffffffffffffffffffffffffff1682604051611e2c929190612fe5565b60405180910390a150565b60075481565b5f5f9054906101000a900473ffffffffffffffffffffffffffffffffffffffff1673ffffffffffffffffffffffffffffffffffffffff163373ffffffffffffffffffffffffffffffffffffffff1614611ecb576040517f08c379a0000000000000000000000000000000000000000000000000000000008152600401611ec290612fc7565b60405180910390fd5b8060015f6101000a81548173ffffffffffffffffffffffffffffffffffffffff021916908373ffffffffffffffffffffffffffffffffffffffff1602179055503373ffffffffffffffffffffffffffffffffffffffff168173ffffffffffffffffffffffffffffffffffffffff1660015f9054906101000a900473ffffffffffffffffffffffffffffffffffffffff1673ffffffffffffffffffffffffffffffffffffffff167fccedfbc095a2ce404e74d81d857b3784d947e43dfb011de63698049fed93dbbf60405160405180910390a450565b6002602052805f5260405f205f915054906101000a900460ff1681565b3373ffffffffffffffffffffffffffffffffffffffff1660045f8381526020019081526020015f205f015f9054906101000a900473ffffffffffffffffffffffffffffffffffffffff1673ffffffffffffffffffffffffffffffffffffffff1614612075573360045f8381526020019081526020015f20600301546040517faa5be1a400000000000000000000000000000000000000000000000000000000815260040161206c929190612d0e565b60405180910390fd5b5f60045f8381526020019081526020015f2060070160026101000a81548160ff0219169083151502179055507fe4f3621c9f6ff4dcd632312c8be74a570b563c2f5d9b123775022d051ddcd78833826040516120d2929190612d0e565b60405180910390a150565b5f5f9054906101000a900473ffffffffffffffffffffffffffffffffffffffff1673ffffffffffffffffffffffffffffffffffffffff163373ffffffffffffffffffffffffffffffffffffffff161461216b576040517f08c379a000000000000000000000000000000000000000000000000000000000815260040161216290612fc7565b60405180910390fd5b5f60025f8373ffffffffffffffffffffffffffffffffffffffff1673ffffffffffffffffffffffffffffffffffffffff1681526020019081526020015f205f6101000a81548160ff0219169083151502179055507fb255eb80cd9faf1bf370ec9d568e7ddcd76db8329d4665996ac3ff866e93a1a633826040516121f0929190612fe5565b60405180910390a150565b600260035403612237576040517f3ee5aeb500000000000000000000000000000000000000000000000000000000815260040160405180910390fd5b6002600381905550565b6001600381905550565b6040518061014001604052805f73ffffffffffffffffffffffffffffffffffffffff1681526020015f73ffffffffffffffffffffffffffffffffffffffff168152602001606081526020015f81526020015f81526020015f81526020015f81526020015f60028111156122c1576122c061254a565b5b81526020015f151581526020015f151581525090565b60405180604001604052805f73ffffffffffffffffffffffffffffffffffffffff1681526020015f81525090565b5f5ffd5b5f5ffd5b5f73ffffffffffffffffffffffffffffffffffffffff82169050919050565b5f6123368261230d565b9050919050565b6123468161232c565b8114612350575f5ffd5b50565b5f813590506123618161233d565b92915050565b5f819050919050565b61237981612367565b8114612383575f5ffd5b50565b5f8135905061239481612370565b92915050565b5f5f604083850312156123b0576123af612305565b5b5f6123bd85828601612353565b92505060206123ce85828601612386565b9150509250929050565b5f819050919050565b6123ea816123d8565b82525050565b5f6020820190506124035f8301846123e1565b92915050565b61241281612367565b82525050565b5f60208201905061242b5f830184612409565b92915050565b61243a8161232c565b82525050565b5f6020820190506124535f830184612431565b92915050565b5f6020828403121561246e5761246d612305565b5b5f61247b84828501612353565b91505092915050565b5f81519050919050565b5f82825260208201905092915050565b5f819050602082019050919050565b6124b68161232c565b82525050565b5f81519050919050565b5f82825260208201905092915050565b8281835e5f83830152505050565b5f601f19601f8301169050919050565b5f6124fe826124bc565b61250881856124c6565b93506125188185602086016124d6565b612521816124e4565b840191505092915050565b612535816123d8565b82525050565b61254481612367565b82525050565b7f4e487b71000000000000000000000000000000000000000000000000000000005f52602160045260245ffd5b600381106125885761258761254a565b5b50565b5f81905061259882612577565b919050565b5f6125a78261258b565b9050919050565b6125b78161259d565b82525050565b5f8115159050919050565b6125d1816125bd565b82525050565b5f61014083015f8301516125ed5f8601826124ad565b50602083015161260060208601826124ad565b506040830151848203604086015261261882826124f4565b915050606083015161262d606086018261252c565b506080830151612640608086018261253b565b5060a083015161265360a086018261253b565b5060c083015161266660c086018261253b565b5060e083015161267960e08601826125ae565b5061010083015161268e6101008601826125c8565b506101208301516126a36101208601826125c8565b508091505092915050565b5f6126b983836125d7565b905092915050565b5f602082019050919050565b5f6126d782612484565b6126e1818561248e565b9350836020820285016126f38561249e565b805f5b8581101561272e578484038952815161270f85826126ae565b945061271a836126c1565b925060208a019950506001810190506126f6565b50829750879550505050505092915050565b5f6020820190508181035f83015261275881846126cd565b905092915050565b612769816123d8565b8114612773575f5ffd5b50565b5f8135905061278481612760565b92915050565b5f6020828403121561279f5761279e612305565b5b5f6127ac84828501612776565b91505092915050565b5f82825260208201905092915050565b5f6127cf826124bc565b6127d981856127b5565b93506127e98185602086016124d6565b6127f2816124e4565b840191505092915050565b6128068161259d565b82525050565b612815816125bd565b82525050565b5f6101408201905061282f5f83018d612431565b61283c602083018c612431565b818103604083015261284e818b6127c5565b905061285d606083018a6123e1565b61286a6080830189612409565b61287760a0830188612409565b61288460c0830187612409565b61289160e08301866127fd565b61289f61010083018561280c565b6128ad61012083018461280c565b9b9a5050505050505050505050565b5f61014083015f8301516128d25f8601826124ad565b5060208301516128e560208601826124ad565b50604083015184820360408601526128fd82826124f4565b9150506060830151612912606086018261252c565b506080830151612925608086018261253b565b5060a083015161293860a086018261253b565b5060c083015161294b60c086018261253b565b5060e083015161295e60e08601826125ae565b506101008301516129736101008601826125c8565b506101208301516129886101208601826125c8565b508091505092915050565b5f6020820190508181035f8301526129ab81846128bc565b905092915050565b5f5f604083850312156129c9576129c8612305565b5b5f6129d685828601612776565b92505060206129e785828601612386565b9150509250929050565b5f5ffd5b5f5ffd5b5f5ffd5b5f5f83601f840112612a1257612a116129f1565b5b8235905067ffffffffffffffff811115612a2f57612a2e6129f5565b5b602083019150836001820283011115612a4b57612a4a6129f9565b5b9250929050565b60038110612a5e575f5ffd5b50565b5f81359050612a6f81612a52565b92915050565b5f5f5f5f5f5f60a08789031215612a8f57612a8e612305565b5b5f612a9c89828a01612353565b9650506020612aad89828a01612386565b955050604087013567ffffffffffffffff811115612ace57612acd612309565b5b612ada89828a016129fd565b94509450506060612aed89828a01612a61565b9250506080612afe89828a01612386565b9150509295509295509295565b5f5f60408385031215612b2157612b20612305565b5b5f612b2e85828601612353565b9250506020612b3f85828601612776565b9150509250929050565b5f81519050919050565b5f82825260208201905092915050565b5f819050602082019050919050565b604082015f820151612b865f8501826124ad565b506020820151612b99602085018261253b565b50505050565b5f612baa8383612b72565b60408301905092915050565b5f602082019050919050565b5f612bcc82612b49565b612bd68185612b53565b9350612be183612b63565b805f5b83811015612c11578151612bf88882612b9f565b9750612c0383612bb6565b925050600181019050612be4565b5085935050505092915050565b5f6020820190508181035f830152612c368184612bc2565b905092915050565b5f602082019050612c515f83018461280c565b92915050565b7f4e487b71000000000000000000000000000000000000000000000000000000005f52604160045260245ffd5b7f4e487b71000000000000000000000000000000000000000000000000000000005f52603260045260245ffd5b7f4e487b71000000000000000000000000000000000000000000000000000000005f52602260045260245ffd5b5f6002820490506001821680612cf557607f821691505b602082108103612d0857612d07612cb1565b5b50919050565b5f604082019050612d215f830185612431565b612d2e60208301846123e1565b9392505050565b5f606082019050612d485f830186612431565b612d5560208301856123e1565b612d626040830184612409565b949350505050565b5f604082019050612d7d5f830185612431565b612d8a6020830184612409565b9392505050565b612d9a816125bd565b8114612da4575f5ffd5b50565b5f81519050612db581612d91565b92915050565b5f60208284031215612dd057612dcf612305565b5b5f612ddd84828501612da7565b91505092915050565b7f6661696c656420746f207472616e7366657200000000000000000000000000005f82015250565b5f612e1a6012836127b5565b9150612e2582612de6565b602082019050919050565b5f6020820190508181035f830152612e4781612e0e565b9050919050565b612e5781612367565b82525050565b5f602082019050612e705f830184612e4e565b92915050565b5f81519050612e8481612370565b92915050565b5f60208284031215612e9f57612e9e612305565b5b5f612eac84828501612e76565b91505092915050565b7f4e487b71000000000000000000000000000000000000000000000000000000005f52601160045260245ffd5b5f612eec82612367565b9150612ef783612367565b9250828203905081811115612f0f57612f0e612eb5565b5b92915050565b7f4661696c656420746f207472616e7366657200000000000000000000000000005f82015250565b5f612f496012836127b5565b9150612f5482612f15565b602082019050919050565b5f6020820190508181035f830152612f7681612f3d565b9050919050565b7f4f6e6c7920746865206f776e65722063616e20657865637574652074686973005f82015250565b5f612fb1601f836127b5565b9150612fbc82612f7d565b602082019050919050565b5f6020820190508181035f830152612fde81612fa5565b9050919050565b5f604082019050612ff85f830185612431565b6130056020830184612431565b9392505050565b5f60608201905061301f5f830186612431565b61302c6020830185612431565b6130396040830184612409565b949350505050565b7f6661696c656420746f206465706f7369740000000000000000000000000000005f82015250565b5f6130756011836127b5565b915061308082613041565b602082019050919050565b5f6020820190508181035f8301526130a281613069565b9050919050565b5f6130b382612367565b91506130be83612367565b92508282019050808211156130d6576130d5612eb5565b5b92915050565b5f6040820190506130ef5f830185612409565b6130fc60208301846123e1565b9392505050565b7f4f6e6c7920616c6c6f77656420746f6b656e73000000000000000000000000005f82015250565b5f6131376013836127b5565b915061314282613103565b602082019050919050565b5f6020820190508181035f8301526131648161312b565b9050919050565b6131748161232c565b82525050565b5f60608201905061318d5f83018661316b565b61319a6020830185612e4e565b6131a76040830184612e4e565b949350505050565b5f815190506131bd81612760565b92915050565b5f602082840312156131d8576131d7612305565b5b5f6131e5848285016131af565b91505092915050565b5f6131f882612367565b91507fffffffffffffffffffffffffffffffffffffffffffffffffffffffffffffffff820361322a57613229612eb5565b5b600182019050919050565b5f819050815f5260205f209050919050565b5f6020601f8301049050919050565b5f82821b905092915050565b5f600883026132917fffffffffffffffffffffffffffffffffffffffffffffffffffffffffffffffff82613256565b61329b8683613256565b95508019841693508086168417925050509392505050565b5f819050919050565b5f6132d66132d16132cc84612367565b6132b3565b612367565b9050919050565b5f819050919050565b6132ef836132bc565b6133036132fb826132dd565b848454613262565b825550505050565b5f5f905090565b61331a61330b565b6133258184846132e6565b505050565b5b818110156133485761333d5f82613312565b60018101905061332b565b5050565b601f82111561338d5761335e81613235565b61336784613247565b81016020851015613376578190505b61338a61338285613247565b83018261332a565b50505b505050565b5f82821c905092915050565b5f6133ad5f1984600802613392565b1980831691505092915050565b5f6133c5838361339e565b9150826002028217905092915050565b6133de826124bc565b67ffffffffffffffff8111156133f7576133f6612c57565b5b6134018254612cde565b61340c82828561334c565b5f60209050601f83116001811461343d575f841561342b578287015190505b61343585826133ba565b86555061349c565b601f19841661344b86613235565b5f5b828110156134725784890151825560018201915060208501945060208101905061344d565b8683101561348f578489015161348b601f89168261339e565b8355505b6001600288020188555050505b505050505050565b5f60c0820190506134b75f830189612409565b6134c46020830188612409565b6134d16040830187612409565b6134de60608301866127fd565b6134eb6080830185612409565b6134f860a08301846123e1565b97965050505050505056fea2646970667358221220aa938b88f5f2384560d5093c39b3176d4a08008f240aa3445af60028ea25d31f64736f6c634300081c0033","linkReferences":{}},"methodIdentifiers":{"chainCoopFees()":"1c1e5546","getSavingPoolByIndex(bytes32)":"8146fd9e","getSavingPoolBySaver(address)":"3759c8a5","getSavingPoolCount()":"0b1ad4a9","getUserContributions(address)":"e36465a3","isTokenAllowed(address)":"f9eaee0d","openSavingPool(address,uint256,string,uint8,uint256)":"a9a95ddd","owner()":"8da5cb5b","poolCount()":"f525cb68","poolSavingPool(bytes32)":"7784fc1a","removeAllowedTokens(address)":"fec71f27","restartSaving(bytes32)":"fd3b15a0","setAllowedTokens(address)":"906d8f79","setChainCoopAddress(address)":"f87e3d63","stopSaving(bytes32)":"5fbc3c8d","transferOwnership(address)":"f2fde38b","updateSaving(bytes32,uint256)":"9c339d64","userContributedPools(address,uint256)":"0a090967","userPoolBalance(address,bytes32)":"c0fd05a1","withdraw(bytes32)":"8e19899e"},"id":4}