{"abi":[{"type":"constructor","inputs":[{"name":"_tokenAddress","type":"address","internalType":"address"},{"name":"_trustedForwarder","type":"address","internalType":"address"}],"stateMutability":"nonpayable"},{"type":"function","name":"chainCoopFees","inputs":[],"outputs":[{"name":"","type":"address","internalType":"address"}],"stateMutability":"view"},{"type":"function","name":"getSavingPoolByIndex","inputs":[{"name":"_index","type":"bytes32","internalType":"bytes32"}],"outputs":[{"name":"","type":"tuple","internalType":"struct IChainCoopSaving.SavingPool","components":[{"name":"saver","type":"address","internalType":"address"},{"name":"tokenToSaveWith","type":"address","internalType":"address"},{"name":"Reason","type":"string","internalType":"string"},{"name":"poolIndex","type":"bytes32","internalType":"bytes32"},{"name":"startDate","type":"uint256","internalType":"uint256"},{"name":"Duration","type":"uint256","internalType":"uint256"},{"name":"amountSaved","type":"uint256","internalType":"uint256"},{"name":"locktype","type":"uint8","internalType":"enum IChainCoopSaving.LockingType"},{"name":"isGoalAccomplished","type":"bool","internalType":"bool"},{"name":"isStoped","type":"bool","internalType":"bool"}]}],"stateMutability":"view"},{"type":"function","name":"getSavingPoolBySaver","inputs":[{"name":"_saver","type":"address","internalType":"address"}],"outputs":[{"name":"pools","type":"tuple[]","internalType":"struct IChainCoopSaving.SavingPool[]","components":[{"name":"saver","type":"address","internalType":"address"},{"name":"tokenToSaveWith","type":"address","internalType":"address"},{"name":"Reason","type":"string","internalType":"string"},{"name":"poolIndex","type":"bytes32","internalType":"bytes32"},{"name":"startDate","type":"uint256","internalType":"uint256"},{"name":"Duration","type":"uint256","internalType":"uint256"},{"name":"amountSaved","type":"uint256","internalType":"uint256"},{"name":"locktype","type":"uint8","internalType":"enum IChainCoopSaving.LockingType"},{"name":"isGoalAccomplished","type":"bool","internalType":"bool"},{"name":"isStoped","type":"bool","internalType":"bool"}]}],"stateMutability":"view"},{"type":"function","name":"getSavingPoolCount","inputs":[],"outputs":[{"name":"","type":"uint256","internalType":"uint256"}],"stateMutability":"view"},{"type":"function","name":"getTrustedForwarder","inputs":[],"outputs":[{"name":"","type":"address","internalType":"address"}],"stateMutability":"view"},{"type":"function","name":"getUserContributions","inputs":[{"name":"_saver","type":"address","internalType":"address"}],"outputs":[{"name":"contributions","type":"tuple[]","internalType":"struct ChainCoopSaving.Contribution[]","components":[{"name":"tokenAddress","type":"address","internalType":"address"},{"name":"amount","type":"uint256","internalType":"uint256"}]}],"stateMutability":"view"},{"type":"function","name":"isTokenAllowed","inputs":[{"name":"","type":"address","internalType":"address"}],"outputs":[{"name":"","type":"bool","internalType":"bool"}],"stateMutability":"view"},{"type":"function","name":"isTrustedForwarder","inputs":[{"name":"forwarder","type":"address","internalType":"address"}],"outputs":[{"name":"","type":"bool","internalType":"bool"}],"stateMutability":"view"},{"type":"function","name":"openSavingPool","inputs":[{"name":"_tokenTosaveWith","type":"address","internalType":"address"},{"name":"_savedAmount","type":"uint256","internalType":"uint256"},{"name":"_reason","type":"string","internalType":"string"},{"name":"_locktype","type":"uint8","internalType":"enum IChainCoopSaving.LockingType"},{"name":"_duration","type":"uint256","internalType":"uint256"}],"outputs":[],"stateMutability":"nonpayable"},{"type":"function","name":"owner","inputs":[],"outputs":[{"name":"","type":"address","internalType":"address"}],"stateMutability":"view"},{"type":"function","name":"poolCount","inputs":[],"outputs":[{"name":"","type":"uint256","internalType":"uint256"}],"stateMutability":"view"},{"type":"function","name":"poolSavingPool","inputs":[{"name":"","type":"bytes32","internalType":"bytes32"}],"outputs":[{"name":"saver","type":"address","internalType":"address"},{"name":"tokenToSaveWith","type":"address","internalType":"address"},{"name":"Reason","type":"string","internalType":"string"},{"name":"poolIndex","type":"bytes32","internalType":"bytes32"},{"name":"startDate","type":"uint256","internalType":"uint256"},{"name":"Duration","type":"uint256","internalType":"uint256"},{"name":"amountSaved","type":"uint256","internalType":"uint256"},{"name":"locktype","type":"uint8","internalType":"enum IChainCoopSaving.LockingType"},{"name":"isGoalAccomplished","type":"bool","internalType":"bool"},{"name":"isStoped","type":"bool","internalType":"bool"}],"stateMutability":"view"},{"type":"function","name":"removeAllowedTokens","inputs":[{"name":"_tokenAddress","type":"address","internalType":"address"}],"outputs":[],"stateMutability":"nonpayable"},{"type":"function","name":"restartSaving","inputs":[{"name":"_poolId","type":"bytes32","internalType":"bytes32"}],"outputs":[],"stateMutability":"nonpayable"},{"type":"function","name":"setAllowedTokens","inputs":[{"name":"_tokenAddress","type":"address","internalType":"address"}],"outputs":[],"stateMutability":"nonpayable"},{"type":"function","name":"setChainCoopAddress","inputs":[{"name":"_chaincoopfees","type":"address","internalType":"address"}],"outputs":[],"stateMutability":"nonpayable"},{"type":"function","name":"stopSaving","inputs":[{"name":"_poolId","type":"bytes32","internalType":"bytes32"}],"outputs":[],"stateMutability":"nonpayable"},{"type":"function","name":"supportsMetaTransactions","inputs":[],"outputs":[{"name":"","type":"bool","internalType":"bool"}],"stateMutability":"pure"},{"type":"function","name":"transferOwnership","inputs":[{"name":"newOwner","type":"address","internalType":"address"}],"outputs":[],"stateMutability":"nonpayable"},{"type":"function","name":"trustedForwarder","inputs":[],"outputs":[{"name":"","type":"address","internalType":"address"}],"stateMutability":"view"},{"type":"function","name":"updateSaving","inputs":[{"name":"_poolId","type":"bytes32","internalType":"bytes32"},{"name":"_amount","type":"uint256","internalType":"uint256"}],"outputs":[],"stateMutability":"nonpayable"},{"type":"function","name":"userContributedPools","inputs":[{"name":"","type":"address","internalType":"address"},{"name":"","type":"uint256","internalType":"uint256"}],"outputs":[{"name":"","type":"bytes32","internalType":"bytes32"}],"stateMutability":"view"},{"type":"function","name":"userPoolBalance","inputs":[{"name":"","type":"address","internalType":"address"},{"name":"","type":"bytes32","internalType":"bytes32"}],"outputs":[{"name":"","type":"uint256","internalType":"uint256"}],"stateMutability":"view"},{"type":"function","name":"withdraw","inputs":[{"name":"_poolId","type":"bytes32","internalType":"bytes32"}],"outputs":[],"stateMutability":"nonpayable"},{"type":"event","name":"AdminChanged","inputs":[{"name":"previousAdmin","type":"address","indexed":false,"internalType":"address"},{"name":"newAdmin","type":"address","indexed":false,"internalType":"address"}],"anonymous":false},{"type":"event","name":"AllowToken","inputs":[{"name":"_updator","type":"address","indexed":false,"internalType":"address"},{"name":"_allowedToken","type":"address","indexed":false,"internalType":"address"}],"anonymous":false},{"type":"event","name":"ChainCoopFeesChanged","inputs":[{"name":"previousChainCoopFees","type":"address","indexed":true,"internalType":"address"},{"name":"newChainCoopFees","type":"address","indexed":true,"internalType":"address"},{"name":"_ownerChanged","type":"address","indexed":true,"internalType":"address"}],"anonymous":false},{"type":"event","name":"OpenSavingPool","inputs":[{"name":"user","type":"address","indexed":true,"internalType":"address"},{"name":"_tokenAddress","type":"address","indexed":true,"internalType":"address"},{"name":"_index","type":"uint256","indexed":false,"internalType":"uint256"},{"name":"initialAmount","type":"uint256","indexed":false,"internalType":"uint256"},{"name":"startTime","type":"uint256","indexed":false,"internalType":"uint256"},{"name":"","type":"uint8","indexed":false,"internalType":"enum IChainCoopSaving.LockingType"},{"name":"duration","type":"uint256","indexed":false,"internalType":"uint256"},{"name":"_poolId","type":"bytes32","indexed":false,"internalType":"bytes32"}],"anonymous":false},{"type":"event","name":"PoolClosed","inputs":[{"name":"user","type":"address","indexed":true,"internalType":"address"},{"name":"poolId","type":"bytes32","indexed":true,"internalType":"bytes32"}],"anonymous":false},{"type":"event","name":"RestartSaving","inputs":[{"name":"_poolOwner","type":"address","indexed":false,"internalType":"address"},{"name":"_poolId","type":"bytes32","indexed":false,"internalType":"bytes32"}],"anonymous":false},{"type":"event","name":"StopSaving","inputs":[{"name":"_poolOwner","type":"address","indexed":false,"internalType":"address"},{"name":"_poolId","type":"bytes32","indexed":false,"internalType":"bytes32"}],"anonymous":false},{"type":"event","name":"UpdateSaving","inputs":[{"name":"user","type":"address","indexed":true,"internalType":"address"},{"name":"_tokenAddress","type":"address","indexed":true,"internalType":"address"},{"name":"amount","type":"uint256","indexed":false,"internalType":"uint256"},{"name":"_poolId","type":"bytes32","indexed":false,"internalType":"bytes32"}],"anonymous":false},{"type":"event","name":"Withdraw","inputs":[{"name":"user","type":"address","indexed":true,"internalType":"address"},{"name":"_tokenAddress","type":"address","indexed":true,"internalType":"address"},{"name":"amount","type":"uint256","indexed":false,"internalType":"uint256"},{"name":"_poolId","type":"bytes32","indexed":false,"internalType":"bytes32"}],"anonymous":false},{"type":"error","name":"NotPoolOwner","inputs":[{"name":"_caller","type":"address","internalType":"address"},{"name":"_poolId","type":"bytes32","internalType":"bytes32"}]},{"type":"error","name":"PoolStoped","inputs":[{"name":"_caller","type":"address","internalType":"address"},{"name":"_poolid","type":"bytes32","internalType":"bytes32"}]},{"type":"error","name":"ReentrancyGuardReentrantCall","inputs":[]},{"type":"error","name":"SavingPeriodStillOn","inputs":[{"name":"_caller","type":"address","internalType":"address"},{"name":"_poolId","type":"bytes32","internalType":"bytes32"},{"name":"_endDate","type":"uint256","internalType":"uint256"}]},{"type":"error","name":"StrictlySavingType","inputs":[{"name":"_caller","type":"address","internalType":"address"},{"name":"_poolId","type":"bytes32","internalType":"bytes32"}]},{"type":"error","name":"ZeroAmount","inputs":[{"name":"_amount","type":"uint256","internalType":"uint256"}]},{"type":"error","name":"ZeroDuration","inputs":[{"name":"_duration","type":"uint256","internalType":"uint256"}]}],"bytecode":{"object":"0x60a06040525f600755348015610013575f80fd5b50604051613f18380380613f188339818101604052810190610035919061016e565b8082335f806101000a81548173ffffffffffffffffffffffffffffffffffffffff021916908373ffffffffffffffffffffffffffffffffffffffff160217905550600160025f8373ffffffffffffffffffffffffffffffffffffffff1673ffffffffffffffffffffffffffffffffffffffff1681526020019081526020015f205f6101000a81548160ff0219169083151502179055505060016003819055508073ffffffffffffffffffffffffffffffffffffffff1660808173ffffffffffffffffffffffffffffffffffffffff16815250505050506101ac565b5f80fd5b5f73ffffffffffffffffffffffffffffffffffffffff82169050919050565b5f61013d82610114565b9050919050565b61014d81610133565b8114610157575f80fd5b50565b5f8151905061016881610144565b92915050565b5f806040838503121561018457610183610110565b5b5f6101918582860161015a565b92505060206101a28582860161015a565b9150509250929050565b608051613d546101c45f395f610adc0152613d545ff3fe608060405234801561000f575f80fd5b5060043610610156575f3560e01c8063906d8f79116100c1578063f2fde38b1161007a578063f2fde38b146103f3578063f525cb681461040f578063f87e3d631461042d578063f9eaee0d14610449578063fd3b15a014610479578063fec71f271461049557610156565b8063906d8f79146103215780639c339d641461033d578063a9a95ddd14610359578063c0fd05a114610375578063ce1b815f146103a5578063e36465a3146103c357610156565b80636851af09116101135780636851af09146102425780637784fc1a146102605780637da0a877146102995780638146fd9e146102b75780638da5cb5b146102e75780638e19899e1461030557610156565b80630a0909671461015a5780630b1ad4a91461018a5780631c1e5546146101a85780633759c8a5146101c6578063572b6c05146101f65780635fbc3c8d14610226575b5f80fd5b610174600480360381019061016f9190612ab6565b6104b1565b6040516101819190612b0c565b60405180910390f35b6101926104dc565b60405161019f9190612b34565b60405180910390f35b6101b06104e5565b6040516101bd9190612b5c565b60405180910390f35b6101e060048036038101906101db9190612b75565b61050a565b6040516101ed9190612e5c565b60405180910390f35b610210600480360381019061020b9190612b75565b61082c565b60405161021d9190612e8b565b60405180910390f35b610240600480360381019061023b9190612ece565b61086a565b005b61024a610997565b6040516102579190612e8b565b60405180910390f35b61027a60048036038101906102759190612ece565b61099f565b6040516102909a99989796959493929190612f50565b60405180910390f35b6102a1610ad9565b6040516102ae9190612b5c565b60405180910390f35b6102d160048036038101906102cc9190612ece565b610b00565b6040516102de91906130c8565b60405180910390f35b6102ef610cfd565b6040516102fc9190612b5c565b60405180910390f35b61031f600480360381019061031a9190612ece565b610d20565b005b61033b60048036038101906103369190612b75565b61164f565b005b610357600480360381019061035291906130e8565b61176d565b005b610373600480360381019061036e91906131aa565b611b6b565b005b61038f600480360381019061038a9190613240565b612170565b60405161039c9190612b34565b60405180910390f35b6103ad612190565b6040516103ba9190612b5c565b60405180910390f35b6103dd60048036038101906103d89190612b75565b61219e565b6040516103ea9190613353565b60405180910390f35b61040d60048036038101906104089190612b75565b612339565b005b610417612460565b6040516104249190612b34565b60405180910390f35b61044760048036038101906104429190612b75565b612466565b005b610463600480360381019061045e9190612b75565b6125c8565b6040516104709190612e8b565b60405180910390f35b610493600480360381019061048e9190612ece565b6125e5565b005b6104af60048036038101906104aa9190612b75565b612711565b005b6006602052815f5260405f2081815481106104ca575f80fd5b905f5260205f20015f91509150505481565b5f600754905090565b60015f9054906101000a900473ffffffffffffffffffffffffffffffffffffffff1681565b60605f60065f8473ffffffffffffffffffffffffffffffffffffffff1673ffffffffffffffffffffffffffffffffffffffff1681526020019081526020015f208054905090508067ffffffffffffffff81111561056a57610569613373565b5b6040519080825280602002602001820160405280156105a357816020015b61059061290c565b8152602001906001900390816105885790505b5091505f5b81811015610825575f60065f8673ffffffffffffffffffffffffffffffffffffffff1673ffffffffffffffffffffffffffffffffffffffff1681526020019081526020015f208281548110610600576105ff6133a0565b5b905f5260205f200154905060045f8281526020019081526020015f20604051806101400160405290815f82015f9054906101000a900473ffffffffffffffffffffffffffffffffffffffff1673ffffffffffffffffffffffffffffffffffffffff1673ffffffffffffffffffffffffffffffffffffffff168152602001600182015f9054906101000a900473ffffffffffffffffffffffffffffffffffffffff1673ffffffffffffffffffffffffffffffffffffffff1673ffffffffffffffffffffffffffffffffffffffff1681526020016002820180546106e1906133fa565b80601f016020809104026020016040519081016040528092919081815260200182805461070d906133fa565b80156107585780601f1061072f57610100808354040283529160200191610758565b820191905f5260205f20905b81548152906001019060200180831161073b57829003601f168201915b5050505050815260200160038201548152602001600482015481526020016005820154815260200160068201548152602001600782015f9054906101000a900460ff1660028111156107ad576107ac612c66565b5b60028111156107bf576107be612c66565b5b81526020016007820160019054906101000a900460ff161515151581526020016007820160029054906101000a900460ff16151515158152505084838151811061080c5761080b6133a0565b5b60200260200101819052505080806001019150506105a8565b5050919050565b5f610835610ad9565b73ffffffffffffffffffffffffffffffffffffffff168273ffffffffffffffffffffffffffffffffffffffff16149050919050565b5f61087361282e565b90508073ffffffffffffffffffffffffffffffffffffffff1660045f8481526020019081526020015f205f015f9054906101000a900473ffffffffffffffffffffffffffffffffffffffff1673ffffffffffffffffffffffffffffffffffffffff161461092d578060045f8481526020019081526020015f20600301546040517faa5be1a400000000000000000000000000000000000000000000000000000000815260040161092492919061342a565b60405180910390fd5b600160045f8481526020019081526020015f2060070160026101000a81548160ff0219169083151502179055507fdea4b365a5e006e9098e7ff31a184a5b4f07c8e1786764fa483ba6c424af66bb818360405161098b92919061342a565b60405180910390a15050565b5f6001905090565b6004602052805f5260405f205f91509050805f015f9054906101000a900473ffffffffffffffffffffffffffffffffffffffff1690806001015f9054906101000a900473ffffffffffffffffffffffffffffffffffffffff1690806002018054610a08906133fa565b80601f0160208091040260200160405190810160405280929190818152602001828054610a34906133fa565b8015610a7f5780601f10610a5657610100808354040283529160200191610a7f565b820191905f5260205f20905b815481529060010190602001808311610a6257829003601f168201915b505050505090806003015490806004015490806005015490806006015490806007015f9054906101000a900460ff16908060070160019054906101000a900460ff16908060070160029054906101000a900460ff1690508a565b5f7f0000000000000000000000000000000000000000000000000000000000000000905090565b610b0861290c565b60045f8381526020019081526020015f20604051806101400160405290815f82015f9054906101000a900473ffffffffffffffffffffffffffffffffffffffff1673ffffffffffffffffffffffffffffffffffffffff1673ffffffffffffffffffffffffffffffffffffffff168152602001600182015f9054906101000a900473ffffffffffffffffffffffffffffffffffffffff1673ffffffffffffffffffffffffffffffffffffffff1673ffffffffffffffffffffffffffffffffffffffff168152602001600282018054610bde906133fa565b80601f0160208091040260200160405190810160405280929190818152602001828054610c0a906133fa565b8015610c555780601f10610c2c57610100808354040283529160200191610c55565b820191905f5260205f20905b815481529060010190602001808311610c3857829003601f168201915b5050505050815260200160038201548152602001600482015481526020016005820154815260200160068201548152602001600782015f9054906101000a900460ff166002811115610caa57610ca9612c66565b5b6002811115610cbc57610cbb612c66565b5b81526020016007820160019054906101000a900460ff161515151581526020016007820160029054906101000a900460ff1615151515815250509050919050565b5f8054906101000a900473ffffffffffffffffffffffffffffffffffffffff1681565b610d2861283c565b5f610d3161282e565b90505f60045f8481526020019081526020015f2090508173ffffffffffffffffffffffffffffffffffffffff16815f015f9054906101000a900473ffffffffffffffffffffffffffffffffffffffff1673ffffffffffffffffffffffffffffffffffffffff1614610ddf578181600301546040517faa5be1a4000000000000000000000000000000000000000000000000000000008152600401610dd692919061342a565b60405180910390fd5b600280811115610df257610df1612c66565b5b816007015f9054906101000a900460ff166002811115610e1557610e14612c66565b5b03610f9e574281600501541115610e6b57818382600501546040517f93c5df9e000000000000000000000000000000000000000000000000000000008152600401610e6293929190613451565b60405180910390fd5b5f816006015490505f826006018190555060018260070160016101000a81548160ff021916908315150217905550816001015f9054906101000a900473ffffffffffffffffffffffffffffffffffffffff1673ffffffffffffffffffffffffffffffffffffffff1663a9059cbb835f015f9054906101000a900473ffffffffffffffffffffffffffffffffffffffff16836040518363ffffffff1660e01b8152600401610f19929190613486565b6020604051808303815f875af1158015610f35573d5f803e3d5ffd5b505050506040513d601f19601f82011682018060405250810190610f5991906134d7565b610f98576040517f08c379a0000000000000000000000000000000000000000000000000000000008152600401610f8f9061354c565b60405180910390fd5b50611365565b8060070160019054906101000a900460ff16156110cb575f816006015490505f8260060181905550816001015f9054906101000a900473ffffffffffffffffffffffffffffffffffffffff1673ffffffffffffffffffffffffffffffffffffffff1663a9059cbb835f015f9054906101000a900473ffffffffffffffffffffffffffffffffffffffff16836040518363ffffffff1660e01b8152600401611046929190613486565b6020604051808303815f875af1158015611062573d5f803e3d5ffd5b505050506040513d601f19601f8201168201806040525081019061108691906134d7565b6110c5576040517f08c379a00000000000000000000000000000000000000000000000000000000081526004016110bc9061354c565b60405180910390fd5b50611364565b5f7395e3511c8b1a977276cf808149b8fe061eb41fe663a57475e083600601546040518263ffffffff1660e01b81526004016111079190613579565b602060405180830381865af4158015611122573d5f803e3d5ffd5b505050506040513d601f19601f8201168201806040525081019061114691906135a6565b90505f81836006015461115991906135fe565b90505f8360060181905550826001015f9054906101000a900473ffffffffffffffffffffffffffffffffffffffff1673ffffffffffffffffffffffffffffffffffffffff1663a9059cbb845f015f9054906101000a900473ffffffffffffffffffffffffffffffffffffffff16836040518363ffffffff1660e01b81526004016111e4929190613486565b6020604051808303815f875af1158015611200573d5f803e3d5ffd5b505050506040513d601f19601f8201168201806040525081019061122491906134d7565b611263576040517f08c379a000000000000000000000000000000000000000000000000000000000815260040161125a9061367b565b60405180910390fd5b826001015f9054906101000a900473ffffffffffffffffffffffffffffffffffffffff1673ffffffffffffffffffffffffffffffffffffffff1663a9059cbb60015f9054906101000a900473ffffffffffffffffffffffffffffffffffffffff16846040518363ffffffff1660e01b81526004016112e2929190613486565b6020604051808303815f875af11580156112fe573d5f803e3d5ffd5b505050506040513d601f19601f8201168201806040525081019061132291906134d7565b611361576040517f08c379a00000000000000000000000000000000000000000000000000000000081526004016113589061367b565b60405180910390fd5b50505b5b806001015f9054906101000a900473ffffffffffffffffffffffffffffffffffffffff1673ffffffffffffffffffffffffffffffffffffffff168273ffffffffffffffffffffffffffffffffffffffff167f6000e90278b62c00aaaf621956141fad63f2be8860557c31de1f736cafae2916836006015484600301546040516113ef929190613699565b60405180910390a360045f8481526020019081526020015f205f8082015f6101000a81549073ffffffffffffffffffffffffffffffffffffffff0219169055600182015f6101000a81549073ffffffffffffffffffffffffffffffffffffffff0219169055600282015f611463919061299b565b600382015f9055600482015f9055600582015f9055600682015f9055600782015f6101000a81549060ff02191690556007820160016101000a81549060ff02191690556007820160026101000a81549060ff0219169055505060055f8373ffffffffffffffffffffffffffffffffffffffff1673ffffffffffffffffffffffffffffffffffffffff1681526020019081526020015f205f8481526020019081526020015f205f90555f60065f8473ffffffffffffffffffffffffffffffffffffffff1673ffffffffffffffffffffffffffffffffffffffff1681526020019081526020015f2090505f5b81805490508110156115fc578482828154811061156d5761156c6133a0565b5b905f5260205f200154036115ef57816001838054905061158d91906135fe565b8154811061159e5761159d6133a0565b5b905f5260205f2001548282815481106115ba576115b96133a0565b5b905f5260205f200181905550818054806115d7576115d66136c0565b5b600190038181905f5260205f20015f905590556115fc565b808060010191505061154d565b50838373ffffffffffffffffffffffffffffffffffffffff167f711dc13dc0d55b44aec704a91c510c322588933910cb86d308a195456caa90c560405160405180910390a350505061164c612882565b50565b5f8054906101000a900473ffffffffffffffffffffffffffffffffffffffff1673ffffffffffffffffffffffffffffffffffffffff163373ffffffffffffffffffffffffffffffffffffffff16146116dc576040517f08c379a00000000000000000000000000000000000000000000000000000000081526004016116d390613737565b60405180910390fd5b600160025f8373ffffffffffffffffffffffffffffffffffffffff1673ffffffffffffffffffffffffffffffffffffffff1681526020019081526020015f205f6101000a81548160ff0219169083151502179055507fb255eb80cd9faf1bf370ec9d568e7ddcd76db8329d4665996ac3ff866e93a1a63382604051611762929190613755565b60405180910390a150565b5f61177661282e565b90508073ffffffffffffffffffffffffffffffffffffffff1660045f8581526020019081526020015f205f015f9054906101000a900473ffffffffffffffffffffffffffffffffffffffff1673ffffffffffffffffffffffffffffffffffffffff1614611830578060045f8581526020019081526020015f20600301546040517faa5be1a400000000000000000000000000000000000000000000000000000000815260040161182792919061342a565b60405180910390fd5b60045f8481526020019081526020015f2060070160029054906101000a900460ff16156118965780836040517fe8279ca100000000000000000000000000000000000000000000000000000000815260040161188d92919061342a565b60405180910390fd5b6002808111156118a9576118a8612c66565b5b60045f8581526020019081526020015f206007015f9054906101000a900460ff1660028111156118dc576118db612c66565b5b036119205780836040517fd6d2b66a00000000000000000000000000000000000000000000000000000000815260040161191792919061342a565b60405180910390fd5b5f821161196457816040517f9af7044800000000000000000000000000000000000000000000000000000000815260040161195b9190612b34565b60405180910390fd5b5f60045f8581526020019081526020015f209050806001015f9054906101000a900473ffffffffffffffffffffffffffffffffffffffff1673ffffffffffffffffffffffffffffffffffffffff166323b872dd8330866040518463ffffffff1660e01b81526004016119d89392919061377c565b6020604051808303815f875af11580156119f4573d5f803e3d5ffd5b505050506040513d601f19601f82011682018060405250810190611a1891906134d7565b611a57576040517f08c379a0000000000000000000000000000000000000000000000000000000008152600401611a4e906137fb565b60405180910390fd5b82816006015f828254611a6a9190613819565b9250508190555060016002811115611a8557611a84612c66565b5b816007015f9054906101000a900460ff166002811115611aa857611aa7612c66565b5b03611ad75742816005015411611ad65760018160070160016101000a81548160ff0219169083151502179055505b5b806001015f9054906101000a900473ffffffffffffffffffffffffffffffffffffffff1673ffffffffffffffffffffffffffffffffffffffff168273ffffffffffffffffffffffffffffffffffffffff167fd6b63929f187e155f5af5fadc43fccae09fe211e961616fc2a75a4434c08f95c858460030154604051611b5d929190613699565b60405180910390a350505050565b8560025f8273ffffffffffffffffffffffffffffffffffffffff1673ffffffffffffffffffffffffffffffffffffffff1681526020019081526020015f205f9054906101000a900460ff16611bf5576040517f08c379a0000000000000000000000000000000000000000000000000000000008152600401611bec90613896565b60405180910390fd5b5f611bfe61282e565b90505f8711611c4457866040517f9af70448000000000000000000000000000000000000000000000000000000008152600401611c3b9190612b34565b60405180910390fd5b5f8311611c8857826040517fe8b61d26000000000000000000000000000000000000000000000000000000008152600401611c7f9190612b34565b60405180910390fd5b5f60075490505f806002811115611ca257611ca1612c66565b5b866002811115611cb557611cb4612c66565b5b03611cbf57600190505b5f4290505f7395e3511c8b1a977276cf808149b8fe061eb41fe663783a5e6286428e6040518463ffffffff1660e01b8152600401611cff939291906138c3565b602060405180830381865af4158015611d1a573d5f803e3d5ffd5b505050506040513d601f19601f82011682018060405250810190611d3e919061390c565b90508b73ffffffffffffffffffffffffffffffffffffffff166323b872dd86308e6040518463ffffffff1660e01b8152600401611d7d9392919061377c565b6020604051808303815f875af1158015611d99573d5f803e3d5ffd5b505050506040513d601f19601f82011682018060405250810190611dbd91906134d7565b611dfc576040517f08c379a0000000000000000000000000000000000000000000000000000000008152600401611df3906137fb565b60405180910390fd5b5f6040518061014001604052808773ffffffffffffffffffffffffffffffffffffffff1681526020018e73ffffffffffffffffffffffffffffffffffffffff1681526020018c8c8080601f0160208091040260200160405190810160405280939291908181526020018383808284375f81840152601f19601f8201169050808301925050505050505081526020018381526020018481526020018981526020018d81526020018a6002811115611eb557611eb4612c66565b5b815260200185151581526020015f1515815250905060075f815480929190611edc90613937565b91905055508060045f8481526020019081526020015f205f820151815f015f6101000a81548173ffffffffffffffffffffffffffffffffffffffff021916908373ffffffffffffffffffffffffffffffffffffffff1602179055506020820151816001015f6101000a81548173ffffffffffffffffffffffffffffffffffffffff021916908373ffffffffffffffffffffffffffffffffffffffff1602179055506040820151816002019081611f929190613b1b565b50606082015181600301556080820151816004015560a0820151816005015560c0820151816006015560e0820151816007015f6101000a81548160ff02191690836002811115611fe557611fe4612c66565b5b02179055506101008201518160070160016101000a81548160ff0219169083151502179055506101208201518160070160026101000a81548160ff02191690831515021790555090505060065f8773ffffffffffffffffffffffffffffffffffffffff1673ffffffffffffffffffffffffffffffffffffffff1681526020019081526020015f2082908060018154018082558091505060019003905f5260205f20015f90919091909150558b60055f8873ffffffffffffffffffffffffffffffffffffffff1673ffffffffffffffffffffffffffffffffffffffff1681526020019081526020015f205f8481526020019081526020015f205f8282546120eb9190613819565b925050819055508c73ffffffffffffffffffffffffffffffffffffffff168673ffffffffffffffffffffffffffffffffffffffff167f146c838f2b0fe5a6f74afd3842521cf1b9739e75b6c517635b2c592bdb4f88de878f878e8e8960405161215996959493929190613bea565b60405180910390a350505050505050505050505050565b6005602052815f5260405f20602052805f5260405f205f91509150505481565b5f612199610ad9565b905090565b60605f60065f8473ffffffffffffffffffffffffffffffffffffffff1673ffffffffffffffffffffffffffffffffffffffff1681526020019081526020015f208054905090508067ffffffffffffffff8111156121fe576121fd613373565b5b60405190808252806020026020018201604052801561223757816020015b6122246129d8565b81526020019060019003908161221c5790505b5091505f5b81811015612332575f60065f8673ffffffffffffffffffffffffffffffffffffffff1673ffffffffffffffffffffffffffffffffffffffff1681526020019081526020015f208281548110612294576122936133a0565b5b905f5260205f20015490505f60045f8381526020019081526020015f2090506040518060400160405280826001015f9054906101000a900473ffffffffffffffffffffffffffffffffffffffff1673ffffffffffffffffffffffffffffffffffffffff1681526020018260060154815250858481518110612318576123176133a0565b5b60200260200101819052505050808060010191505061223c565b5050919050565b5f8054906101000a900473ffffffffffffffffffffffffffffffffffffffff1673ffffffffffffffffffffffffffffffffffffffff163373ffffffffffffffffffffffffffffffffffffffff16146123c6576040517f08c379a00000000000000000000000000000000000000000000000000000000081526004016123bd90613737565b60405180910390fd5b805f806101000a81548173ffffffffffffffffffffffffffffffffffffffff021916908373ffffffffffffffffffffffffffffffffffffffff1602179055507f7e644d79422f17c01e4894b5f4f588d331ebfa28653d42ae832dc59e38c9798f5f8054906101000a900473ffffffffffffffffffffffffffffffffffffffff1682604051612455929190613755565b60405180910390a150565b60075481565b5f8054906101000a900473ffffffffffffffffffffffffffffffffffffffff1673ffffffffffffffffffffffffffffffffffffffff163373ffffffffffffffffffffffffffffffffffffffff16146124f3576040517f08c379a00000000000000000000000000000000000000000000000000000000081526004016124ea90613737565b60405180910390fd5b8060015f6101000a81548173ffffffffffffffffffffffffffffffffffffffff021916908373ffffffffffffffffffffffffffffffffffffffff1602179055503373ffffffffffffffffffffffffffffffffffffffff168173ffffffffffffffffffffffffffffffffffffffff1660015f9054906101000a900473ffffffffffffffffffffffffffffffffffffffff1673ffffffffffffffffffffffffffffffffffffffff167fccedfbc095a2ce404e74d81d857b3784d947e43dfb011de63698049fed93dbbf60405160405180910390a450565b6002602052805f5260405f205f915054906101000a900460ff1681565b5f6125ee61282e565b90508073ffffffffffffffffffffffffffffffffffffffff1660045f8481526020019081526020015f205f015f9054906101000a900473ffffffffffffffffffffffffffffffffffffffff1673ffffffffffffffffffffffffffffffffffffffff16146126a8578060045f8481526020019081526020015f20600301546040517faa5be1a400000000000000000000000000000000000000000000000000000000815260040161269f92919061342a565b60405180910390fd5b5f60045f8481526020019081526020015f2060070160026101000a81548160ff0219169083151502179055507fe4f3621c9f6ff4dcd632312c8be74a570b563c2f5d9b123775022d051ddcd788818360405161270592919061342a565b60405180910390a15050565b5f8054906101000a900473ffffffffffffffffffffffffffffffffffffffff1673ffffffffffffffffffffffffffffffffffffffff163373ffffffffffffffffffffffffffffffffffffffff161461279e576040517f08c379a000000000000000000000000000000000000000000000000000000000815260040161279590613737565b60405180910390fd5b5f60025f8373ffffffffffffffffffffffffffffffffffffffff1673ffffffffffffffffffffffffffffffffffffffff1681526020019081526020015f205f6101000a81548160ff0219169083151502179055507fb255eb80cd9faf1bf370ec9d568e7ddcd76db8329d4665996ac3ff866e93a1a63382604051612823929190613755565b60405180910390a150565b5f61283761288c565b905090565b600260035403612878576040517f3ee5aeb500000000000000000000000000000000000000000000000000000000815260040160405180910390fd5b6002600381905550565b6001600381905550565b5f805f36905090505f61289d6128fd565b90506128a83361082c565b80156128b45750808210155b156128ed575f3682846128c791906135fe565b9080926128d693929190613c51565b906128e19190613cc0565b60601c925050506128fa565b6128f5612905565b925050505b90565b5f6014905090565b5f33905090565b6040518061014001604052805f73ffffffffffffffffffffffffffffffffffffffff1681526020015f73ffffffffffffffffffffffffffffffffffffffff168152602001606081526020015f80191681526020015f81526020015f81526020015f81526020015f600281111561298557612984612c66565b5b81526020015f151581526020015f151581525090565b5080546129a7906133fa565b5f825580601f106129b857506129d5565b601f0160209004905f5260205f20908101906129d49190612a06565b5b50565b60405180604001604052805f73ffffffffffffffffffffffffffffffffffffffff1681526020015f81525090565b5b80821115612a1d575f815f905550600101612a07565b5090565b5f80fd5b5f80fd5b5f73ffffffffffffffffffffffffffffffffffffffff82169050919050565b5f612a5282612a29565b9050919050565b612a6281612a48565b8114612a6c575f80fd5b50565b5f81359050612a7d81612a59565b92915050565b5f819050919050565b612a9581612a83565b8114612a9f575f80fd5b50565b5f81359050612ab081612a8c565b92915050565b5f8060408385031215612acc57612acb612a21565b5b5f612ad985828601612a6f565b9250506020612aea85828601612aa2565b9150509250929050565b5f819050919050565b612b0681612af4565b82525050565b5f602082019050612b1f5f830184612afd565b92915050565b612b2e81612a83565b82525050565b5f602082019050612b475f830184612b25565b92915050565b612b5681612a48565b82525050565b5f602082019050612b6f5f830184612b4d565b92915050565b5f60208284031215612b8a57612b89612a21565b5b5f612b9784828501612a6f565b91505092915050565b5f81519050919050565b5f82825260208201905092915050565b5f819050602082019050919050565b612bd281612a48565b82525050565b5f81519050919050565b5f82825260208201905092915050565b8281835e5f83830152505050565b5f601f19601f8301169050919050565b5f612c1a82612bd8565b612c248185612be2565b9350612c34818560208601612bf2565b612c3d81612c00565b840191505092915050565b612c5181612af4565b82525050565b612c6081612a83565b82525050565b7f4e487b71000000000000000000000000000000000000000000000000000000005f52602160045260245ffd5b60038110612ca457612ca3612c66565b5b50565b5f819050612cb482612c93565b919050565b5f612cc382612ca7565b9050919050565b612cd381612cb9565b82525050565b5f8115159050919050565b612ced81612cd9565b82525050565b5f61014083015f830151612d095f860182612bc9565b506020830151612d1c6020860182612bc9565b5060408301518482036040860152612d348282612c10565b9150506060830151612d496060860182612c48565b506080830151612d5c6080860182612c57565b5060a0830151612d6f60a0860182612c57565b5060c0830151612d8260c0860182612c57565b5060e0830151612d9560e0860182612cca565b50610100830151612daa610100860182612ce4565b50610120830151612dbf610120860182612ce4565b508091505092915050565b5f612dd58383612cf3565b905092915050565b5f602082019050919050565b5f612df382612ba0565b612dfd8185612baa565b935083602082028501612e0f85612bba565b805f5b85811015612e4a5784840389528151612e2b8582612dca565b9450612e3683612ddd565b925060208a01995050600181019050612e12565b50829750879550505050505092915050565b5f6020820190508181035f830152612e748184612de9565b905092915050565b612e8581612cd9565b82525050565b5f602082019050612e9e5f830184612e7c565b92915050565b612ead81612af4565b8114612eb7575f80fd5b50565b5f81359050612ec881612ea4565b92915050565b5f60208284031215612ee357612ee2612a21565b5b5f612ef084828501612eba565b91505092915050565b5f82825260208201905092915050565b5f612f1382612bd8565b612f1d8185612ef9565b9350612f2d818560208601612bf2565b612f3681612c00565b840191505092915050565b612f4a81612cb9565b82525050565b5f61014082019050612f645f83018d612b4d565b612f71602083018c612b4d565b8181036040830152612f83818b612f09565b9050612f92606083018a612afd565b612f9f6080830189612b25565b612fac60a0830188612b25565b612fb960c0830187612b25565b612fc660e0830186612f41565b612fd4610100830185612e7c565b612fe2610120830184612e7c565b9b9a5050505050505050505050565b5f61014083015f8301516130075f860182612bc9565b50602083015161301a6020860182612bc9565b50604083015184820360408601526130328282612c10565b91505060608301516130476060860182612c48565b50608083015161305a6080860182612c57565b5060a083015161306d60a0860182612c57565b5060c083015161308060c0860182612c57565b5060e083015161309360e0860182612cca565b506101008301516130a8610100860182612ce4565b506101208301516130bd610120860182612ce4565b508091505092915050565b5f6020820190508181035f8301526130e08184612ff1565b905092915050565b5f80604083850312156130fe576130fd612a21565b5b5f61310b85828601612eba565b925050602061311c85828601612aa2565b9150509250929050565b5f80fd5b5f80fd5b5f80fd5b5f8083601f84011261314757613146613126565b5b8235905067ffffffffffffffff8111156131645761316361312a565b5b6020830191508360018202830111156131805761317f61312e565b5b9250929050565b60038110613193575f80fd5b50565b5f813590506131a481613187565b92915050565b5f805f805f8060a087890312156131c4576131c3612a21565b5b5f6131d189828a01612a6f565b96505060206131e289828a01612aa2565b955050604087013567ffffffffffffffff81111561320357613202612a25565b5b61320f89828a01613132565b9450945050606061322289828a01613196565b925050608061323389828a01612aa2565b9150509295509295509295565b5f806040838503121561325657613255612a21565b5b5f61326385828601612a6f565b925050602061327485828601612eba565b9150509250929050565b5f81519050919050565b5f82825260208201905092915050565b5f819050602082019050919050565b604082015f8201516132bb5f850182612bc9565b5060208201516132ce6020850182612c57565b50505050565b5f6132df83836132a7565b60408301905092915050565b5f602082019050919050565b5f6133018261327e565b61330b8185613288565b935061331683613298565b805f5b8381101561334657815161332d88826132d4565b9750613338836132eb565b925050600181019050613319565b5085935050505092915050565b5f6020820190508181035f83015261336b81846132f7565b905092915050565b7f4e487b71000000000000000000000000000000000000000000000000000000005f52604160045260245ffd5b7f4e487b71000000000000000000000000000000000000000000000000000000005f52603260045260245ffd5b7f4e487b71000000000000000000000000000000000000000000000000000000005f52602260045260245ffd5b5f600282049050600182168061341157607f821691505b602082108103613424576134236133cd565b5b50919050565b5f60408201905061343d5f830185612b4d565b61344a6020830184612afd565b9392505050565b5f6060820190506134645f830186612b4d565b6134716020830185612afd565b61347e6040830184612b25565b949350505050565b5f6040820190506134995f830185612b4d565b6134a66020830184612b25565b9392505050565b6134b681612cd9565b81146134c0575f80fd5b50565b5f815190506134d1816134ad565b92915050565b5f602082840312156134ec576134eb612a21565b5b5f6134f9848285016134c3565b91505092915050565b7f6661696c656420746f207472616e7366657200000000000000000000000000005f82015250565b5f613536601283612ef9565b915061354182613502565b602082019050919050565b5f6020820190508181035f8301526135638161352a565b9050919050565b61357381612a83565b82525050565b5f60208201905061358c5f83018461356a565b92915050565b5f815190506135a081612a8c565b92915050565b5f602082840312156135bb576135ba612a21565b5b5f6135c884828501613592565b91505092915050565b7f4e487b71000000000000000000000000000000000000000000000000000000005f52601160045260245ffd5b5f61360882612a83565b915061361383612a83565b925082820390508181111561362b5761362a6135d1565b5b92915050565b7f4661696c656420746f207472616e7366657200000000000000000000000000005f82015250565b5f613665601283612ef9565b915061367082613631565b602082019050919050565b5f6020820190508181035f83015261369281613659565b9050919050565b5f6040820190506136ac5f830185612b25565b6136b96020830184612afd565b9392505050565b7f4e487b71000000000000000000000000000000000000000000000000000000005f52603160045260245ffd5b7f4f6e6c7920746865206f776e65722063616e20657865637574652074686973005f82015250565b5f613721601f83612ef9565b915061372c826136ed565b602082019050919050565b5f6020820190508181035f83015261374e81613715565b9050919050565b5f6040820190506137685f830185612b4d565b6137756020830184612b4d565b9392505050565b5f60608201905061378f5f830186612b4d565b61379c6020830185612b4d565b6137a96040830184612b25565b949350505050565b7f6661696c656420746f206465706f7369740000000000000000000000000000005f82015250565b5f6137e5601183612ef9565b91506137f0826137b1565b602082019050919050565b5f6020820190508181035f830152613812816137d9565b9050919050565b5f61382382612a83565b915061382e83612a83565b9250828201905080821115613846576138456135d1565b5b92915050565b7f4f6e6c7920616c6c6f77656420746f6b656e73000000000000000000000000005f82015250565b5f613880601383612ef9565b915061388b8261384c565b602082019050919050565b5f6020820190508181035f8301526138ad81613874565b9050919050565b6138bd81612a48565b82525050565b5f6060820190506138d65f8301866138b4565b6138e3602083018561356a565b6138f0604083018461356a565b949350505050565b5f8151905061390681612ea4565b92915050565b5f6020828403121561392157613920612a21565b5b5f61392e848285016138f8565b91505092915050565b5f61394182612a83565b91507fffffffffffffffffffffffffffffffffffffffffffffffffffffffffffffffff8203613973576139726135d1565b5b600182019050919050565b5f819050815f5260205f209050919050565b5f6020601f8301049050919050565b5f82821b905092915050565b5f600883026139da7fffffffffffffffffffffffffffffffffffffffffffffffffffffffffffffffff8261399f565b6139e4868361399f565b95508019841693508086168417925050509392505050565b5f819050919050565b5f613a1f613a1a613a1584612a83565b6139fc565b612a83565b9050919050565b5f819050919050565b613a3883613a05565b613a4c613a4482613a26565b8484546139ab565b825550505050565b5f90565b613a60613a54565b613a6b818484613a2f565b505050565b5b81811015613a8e57613a835f82613a58565b600181019050613a71565b5050565b601f821115613ad357613aa48161397e565b613aad84613990565b81016020851015613abc578190505b613ad0613ac885613990565b830182613a70565b50505b505050565b5f82821c905092915050565b5f613af35f1984600802613ad8565b1980831691505092915050565b5f613b0b8383613ae4565b9150826002028217905092915050565b613b2482612bd8565b67ffffffffffffffff811115613b3d57613b3c613373565b5b613b4782546133fa565b613b52828285613a92565b5f60209050601f831160018114613b83575f8415613b71578287015190505b613b7b8582613b00565b865550613be2565b601f198416613b918661397e565b5f5b82811015613bb857848901518255600182019150602085019450602081019050613b93565b86831015613bd55784890151613bd1601f891682613ae4565b8355505b6001600288020188555050505b505050505050565b5f60c082019050613bfd5f830189612b25565b613c0a6020830188612b25565b613c176040830187612b25565b613c246060830186612f41565b613c316080830185612b25565b613c3e60a0830184612afd565b979650505050505050565b5f80fd5b5f80fd5b5f8085851115613c6457613c63613c49565b5b83861115613c7557613c74613c4d565b5b6001850283019150848603905094509492505050565b5f82905092915050565b5f7fffffffffffffffffffffffffffffffffffffffff00000000000000000000000082169050919050565b5f613ccb8383613c8b565b82613cd68135613c95565b92506014821015613d1657613d117fffffffffffffffffffffffffffffffffffffffff0000000000000000000000008360140360080261399f565b831692505b50509291505056fea2646970667358221220367fc25663889b9d47ba3ea77e390af01e3ad53f1fa7566fc95d27f512d875d164736f6c63430008190033","linkReferences":{}},"methodIdentifiers":{"chainCoopFees()":"1c1e5546","getSavingPoolByIndex(bytes32)":"8146fd9e","getSavingPoolBySaver(address)":"3759c8a5","getSavingPoolCount()":"0b1ad4a9","getTrustedForwarder()":"ce1b815f","getUserContributions(address)":"e36465a3","isTokenAllowed(address)":"f9eaee0d","isTrustedForwarder(address)":"572b6c05","openSavingPool(address,uint256,string,uint8,uint256)":"a9a95ddd","owner()":"8da5cb5b","poolCount()":"f525cb68","poolSavingPool(bytes32)":"7784fc1a","removeAllowedTokens(address)":"fec71f27","restartSaving(bytes32)":"fd3b15a0","setAllowedTokens(address)":"906d8f79","setChainCoopAddress(address)":"f87e3d63","stopSaving(bytes32)":"5fbc3c8d","supportsMetaTransactions()":"6851af09","transferOwnership(address)":"f2fde38b","trustedForwarder()":"7da0a877","updateSaving(bytes32,uint256)":"9c339d64","userContributedPools(address,uint256)":"0a090967","userPoolBalance(address,bytes32)":"c0fd05a1","withdraw(bytes32)":"8e19899e"},"id":41}