{"abi":[{"type":"constructor","inputs":[{"name":"_tokenAddress","type":"address","internalType":"address"}],"stateMutability":"nonpayable"},{"type":"function","name":"chainCoopFees","inputs":[],"outputs":[{"name":"","type":"address","internalType":"address"}],"stateMutability":"view"},{"type":"function","name":"getSavingPoolByIndex","inputs":[{"name":"_index","type":"bytes32","internalType":"bytes32"}],"outputs":[{"name":"","type":"tuple","internalType":"struct IChainCoopSaving.SavingPool","components":[{"name":"saver","type":"address","internalType":"address"},{"name":"tokenToSaveWith","type":"address","internalType":"address"},{"name":"Reason","type":"string","internalType":"string"},{"name":"poolIndex","type":"bytes32","internalType":"bytes32"},{"name":"goalAmount","type":"uint256","internalType":"uint256"},{"name":"Duration","type":"uint256","internalType":"uint256"},{"name":"amountSaved","type":"uint256","internalType":"uint256"},{"name":"isGoalAccomplished","type":"bool","internalType":"bool"}]}],"stateMutability":"view"},{"type":"function","name":"getSavingPoolBySaver","inputs":[{"name":"_saver","type":"address","internalType":"address"}],"outputs":[{"name":"pools","type":"tuple[]","internalType":"struct IChainCoopSaving.SavingPool[]","components":[{"name":"saver","type":"address","internalType":"address"},{"name":"tokenToSaveWith","type":"address","internalType":"address"},{"name":"Reason","type":"string","internalType":"string"},{"name":"poolIndex","type":"bytes32","internalType":"bytes32"},{"name":"goalAmount","type":"uint256","internalType":"uint256"},{"name":"Duration","type":"uint256","internalType":"uint256"},{"name":"amountSaved","type":"uint256","internalType":"uint256"},{"name":"isGoalAccomplished","type":"bool","internalType":"bool"}]}],"stateMutability":"view"},{"type":"function","name":"getSavingPoolCount","inputs":[],"outputs":[{"name":"","type":"uint256","internalType":"uint256"}],"stateMutability":"view"},{"type":"function","name":"isTokenAllowed","inputs":[{"name":"","type":"address","internalType":"address"}],"outputs":[{"name":"","type":"bool","internalType":"bool"}],"stateMutability":"view"},{"type":"function","name":"openSavingPool","inputs":[{"name":"_tokenTosaveWith","type":"address","internalType":"address"},{"name":"_savedAmount","type":"uint256","internalType":"uint256"},{"name":"_goalAmount","type":"uint256","internalType":"uint256"},{"name":"_reason","type":"string","internalType":"string"},{"name":"_duration","type":"uint256","internalType":"uint256"}],"outputs":[],"stateMutability":"nonpayable"},{"type":"function","name":"owner","inputs":[],"outputs":[{"name":"","type":"address","internalType":"address"}],"stateMutability":"view"},{"type":"function","name":"poolCount","inputs":[],"outputs":[{"name":"","type":"uint256","internalType":"uint256"}],"stateMutability":"view"},{"type":"function","name":"poolSavingPool","inputs":[{"name":"","type":"bytes32","internalType":"bytes32"}],"outputs":[{"name":"saver","type":"address","internalType":"address"},{"name":"tokenToSaveWith","type":"address","internalType":"address"},{"name":"Reason","type":"string","internalType":"string"},{"name":"poolIndex","type":"bytes32","internalType":"bytes32"},{"name":"goalAmount","type":"uint256","internalType":"uint256"},{"name":"Duration","type":"uint256","internalType":"uint256"},{"name":"amountSaved","type":"uint256","internalType":"uint256"},{"name":"isGoalAccomplished","type":"bool","internalType":"bool"}],"stateMutability":"view"},{"type":"function","name":"removeAllowedTokens","inputs":[{"name":"_tokenAddress","type":"address","internalType":"address"}],"outputs":[],"stateMutability":"nonpayable"},{"type":"function","name":"setAllowedTokens","inputs":[{"name":"_tokenAddress","type":"address","internalType":"address"}],"outputs":[],"stateMutability":"nonpayable"},{"type":"function","name":"setChainCoopAddress","inputs":[{"name":"_chaincoopfees","type":"address","internalType":"address"}],"outputs":[],"stateMutability":"nonpayable"},{"type":"function","name":"transferOwnership","inputs":[{"name":"newOwner","type":"address","internalType":"address"}],"outputs":[],"stateMutability":"nonpayable"},{"type":"function","name":"updateSaving","inputs":[{"name":"_poolId","type":"bytes32","internalType":"bytes32"},{"name":"_amount","type":"uint256","internalType":"uint256"}],"outputs":[],"stateMutability":"nonpayable"},{"type":"function","name":"userPoolBalance","inputs":[{"name":"","type":"address","internalType":"address"},{"name":"","type":"bytes32","internalType":"bytes32"}],"outputs":[{"name":"","type":"uint256","internalType":"uint256"}],"stateMutability":"view"},{"type":"function","name":"userSavingPool","inputs":[{"name":"_poolIndex","type":"uint256","internalType":"uint256"}],"outputs":[{"name":"saver","type":"address","internalType":"address"},{"name":"tokenToSaveWith","type":"address","internalType":"address"},{"name":"Reason","type":"string","internalType":"string"},{"name":"poolIndex","type":"bytes32","internalType":"bytes32"},{"name":"goalAmount","type":"uint256","internalType":"uint256"},{"name":"Duration","type":"uint256","internalType":"uint256"},{"name":"amountSaved","type":"uint256","internalType":"uint256"},{"name":"isGoalAccomplished","type":"bool","internalType":"bool"}],"stateMutability":"view"},{"type":"function","name":"withdraw","inputs":[{"name":"_poolId","type":"bytes32","internalType":"bytes32"}],"outputs":[],"stateMutability":"nonpayable"},{"type":"event","name":"AdminChanged","inputs":[{"name":"previousAdmin","type":"address","indexed":false,"internalType":"address"},{"name":"newAdmin","type":"address","indexed":false,"internalType":"address"}],"anonymous":false},{"type":"event","name":"AllowToken","inputs":[{"name":"_updator","type":"address","indexed":false,"internalType":"address"},{"name":"_allowedToken","type":"address","indexed":false,"internalType":"address"}],"anonymous":false},{"type":"event","name":"ChainCoopFeesChanged","inputs":[{"name":"previousChainCoopFees","type":"address","indexed":true,"internalType":"address"},{"name":"newChainCoopFees","type":"address","indexed":true,"internalType":"address"},{"name":"_ownerChanged","type":"address","indexed":true,"internalType":"address"}],"anonymous":false},{"type":"event","name":"OpenSavingPool","inputs":[{"name":"user","type":"address","indexed":true,"internalType":"address"},{"name":"_tokenAddress","type":"address","indexed":true,"internalType":"address"},{"name":"_index","type":"uint256","indexed":false,"internalType":"uint256"},{"name":"initialAmount","type":"uint256","indexed":false,"internalType":"uint256"},{"name":"goalAmount","type":"uint256","indexed":false,"internalType":"uint256"},{"name":"duration","type":"uint256","indexed":false,"internalType":"uint256"},{"name":"_poolId","type":"bytes32","indexed":false,"internalType":"bytes32"}],"anonymous":false},{"type":"event","name":"UpdateSaving","inputs":[{"name":"user","type":"address","indexed":true,"internalType":"address"},{"name":"_tokenAddress","type":"address","indexed":true,"internalType":"address"},{"name":"amount","type":"uint256","indexed":false,"internalType":"uint256"},{"name":"_poolId","type":"bytes32","indexed":false,"internalType":"bytes32"}],"anonymous":false},{"type":"event","name":"Withdraw","inputs":[{"name":"user","type":"address","indexed":true,"internalType":"address"},{"name":"_tokenAddress","type":"address","indexed":true,"internalType":"address"},{"name":"amount","type":"uint256","indexed":false,"internalType":"uint256"},{"name":"_poolId","type":"bytes32","indexed":false,"internalType":"bytes32"}],"anonymous":false},{"type":"error","name":"NotPoolOwner","inputs":[{"name":"_caller","type":"address","internalType":"address"},{"name":"_poolId","type":"bytes32","internalType":"bytes32"}]},{"type":"error","name":"ReentrancyGuardReentrantCall","inputs":[]},{"type":"error","name":"ZeroAmount","inputs":[{"name":"_amount","type":"uint256","internalType":"uint256"}]},{"type":"error","name":"ZeroDuration","inputs":[{"name":"_duration","type":"uint256","internalType":"uint256"}]},{"type":"error","name":"ZeroGoalAmount","inputs":[{"name":"_goalamount","type":"uint256","internalType":"uint256"}]}],"bytecode":{"object":"0x60806040526000600755348015601457600080fd5b50604051611773380380611773833981016040819052603191606e565b600080546001600160a01b031916331781556001600160a01b039091168152600260205260409020805460ff19166001908117909155600355609c565b600060208284031215607f57600080fd5b81516001600160a01b0381168114609557600080fd5b9392505050565b6116c8806100ab6000396000f3fe608060405234801561001057600080fd5b506004361061010b5760003560e01c8063906d8f79116100a2578063f2fde38b11610071578063f2fde38b14610258578063f525cb681461026b578063f87e3d6314610274578063f9eaee0d14610287578063fec71f27146101f457600080fd5b8063906d8f79146101f45780639c339d6414610207578063a62786501461021a578063c0fd05a11461022d57600080fd5b80637784fc1a116100de5780637784fc1a146101995780638146fd9e146101ac5780638da5cb5b146101cc5780638e19899e146101df57600080fd5b80630b1ad4a9146101105780631c1e5546146101275780633759c8a5146101525780634521dff414610172575b600080fd5b6007545b6040519081526020015b60405180910390f35b60015461013a906001600160a01b031681565b6040516001600160a01b03909116815260200161011e565b610165610160366004611199565b6102ba565b60405161011e9190611278565b6101856101803660046112dc565b6104cc565b60405161011e9897969594939291906112f5565b6101856101a73660046112dc565b6105a6565b6101bf6101ba3660046112dc565b6105db565b60405161011e9190611350565b60005461013a906001600160a01b031681565b6101f26101ed3660046112dc565b6105e8565b005b6101f2610202366004611199565b61093d565b6101f2610215366004611363565b6109c9565b6101f2610228366004611385565b610ba1565b61011461023b366004611424565b600660209081526000928352604080842090915290825290205481565b6101f2610266366004611199565b611004565b61011460075481565b6101f2610282366004611199565b611083565b6102aa610295366004611199565b60026020526000908152604090205460ff1681565b604051901515815260200161011e565b60606000805b600754811015610301576000818152600460205260409020546001600160a01b038086169116036102f957816102f581611464565b9250505b6001016102c0565b508067ffffffffffffffff81111561031b5761031b61147d565b60405190808252806020026020018201604052801561035457816020015b610341611126565b8152602001906001900390816103395790505b5091506000805b6007548110156104c4576000818152600460205260409020546001600160a01b038087169116036104bc5760008181526004602090815260409182902082516101008101845281546001600160a01b0390811682526001830154169281019290925260028101805492939192918401916103d490611493565b80601f016020809104026020016040519081016040528092919081815260200182805461040090611493565b801561044d5780601f106104225761010080835404028352916020019161044d565b820191906000526020600020905b81548152906001019060200180831161043057829003601f168201915b50505091835250506003820154602082015260048201546040820152600582015460608201526006820154608082015260079091015460ff16151560a09091015284518590849081106104a2576104a26114cd565b602002602001018190525081806104b890611464565b9250505b60010161035b565b505050919050565b6004602052600090815260409020805460018201546002830180546001600160a01b0393841694929093169261050190611493565b80601f016020809104026020016040519081016040528092919081815260200182805461052d90611493565b801561057a5780601f1061054f5761010080835404028352916020019161057a565b820191906000526020600020905b81548152906001019060200180831161055d57829003601f168201915b505050600384015460048501546005860154600687015460079097015495969295919450925060ff1688565b6005602052600090815260409020805460018201546002830180546001600160a01b0393841694929093169261050190611493565b6105e3611126565b919050565b6105f06110fc565b600081815260056020526040902080546001600160a01b0316331461063c576003810154604051632a96f86960e21b815233600482015260248101919091526044015b60405180910390fd5b600781015460ff16156107165760018101548154600683015460405163a9059cbb60e01b81526001600160a01b039283166004820152602481019190915291169063a9059cbb906044016020604051808303816000875af11580156106a5573d6000803e3d6000fd5b505050506040513d601f19601f820116820180604052508101906106c991906114e3565b61070a5760405162461bcd60e51b81526020600482015260126024820152713330b4b632b2103a37903a3930b739b332b960711b6044820152606401610633565b6000600682015561092f565b600681015460405163052ba3af60e51b815260009173d3bb7d60e58a95d70781e4ca463d8d3b9f05e2809163a57475e0916107579160040190815260200190565b602060405180830381865af4158015610774573d6000803e3d6000fd5b505050506040513d601f19601f820116820180604052508101906107989190611505565b905060008183600601546107ac919061151e565b6001840154845460405163a9059cbb60e01b81526001600160a01b03918216600482015260248101849052929350169063a9059cbb906044016020604051808303816000875af1158015610804573d6000803e3d6000fd5b505050506040513d601f19601f8201168201806040525081019061082891906114e3565b6108695760405162461bcd60e51b81526020600482015260126024820152712330b4b632b2103a37903a3930b739b332b960711b6044820152606401610633565b600183810154905460405163a9059cbb60e01b81526001600160a01b0391821660048201526024810185905291169063a9059cbb906044016020604051808303816000875af11580156108c0573d6000803e3d6000fd5b505050506040513d601f19601f820116820180604052508101906108e491906114e3565b6109255760405162461bcd60e51b81526020600482015260126024820152712330b4b632b2103a37903a3930b739b332b960711b6044820152606401610633565b5050600060068201555b5061093a6001600355565b50565b6000546001600160a01b031633146109675760405162461bcd60e51b815260040161063390611537565b6001600160a01b038116600081815260026020908152604091829020805460ff191660011790558151338152908101929092527fb255eb80cd9faf1bf370ec9d568e7ddcd76db8329d4665996ac3ff866e93a1a691015b60405180910390a150565b6000828152600560205260409020546001600160a01b03163314610a1d5760008281526005602052604090819020600301549051632a96f86960e21b81523360048201526024810191909152604401610633565b60008111610a415760405163135ee08960e31b815260048101829052602401610633565b60008281526005602052604090819020600181015491516323b872dd60e01b81523360048201523060248201526044810184905290916001600160a01b0316906323b872dd906064016020604051808303816000875af1158015610aa9573d6000803e3d6000fd5b505050506040513d601f19601f82011682018060405250810190610acd91906114e3565b610b0d5760405162461bcd60e51b815260206004820152601160248201527019985a5b1959081d1bc819195c1bdcda5d607a1b6044820152606401610633565b81816006016000828254610b21919061156e565b90915550506004810154600682015410610b455760078101805460ff191660011790555b600181015460038201546040516001600160a01b039092169133917fd6b63929f187e155f5af5fadc43fccae09fe211e961616fc2a75a4434c08f95c91610b9491878252602082015260400190565b60405180910390a3505050565b6001600160a01b038616600090815260026020526040902054869060ff16610c015760405162461bcd60e51b81526020600482015260136024820152724f6e6c7920616c6c6f77656420746f6b656e7360681b6044820152606401610633565b60008611610c255760405163135ee08960e31b815260048101879052602401610633565b60008511610c495760405163c7e9758160e01b815260048101869052602401610633565b60008211610c6d5760405163745b0e9360e11b815260048101839052602401610633565b600754604051633c1d2f3160e11b81523360048201524260248201526044810187905260009073d3bb7d60e58a95d70781e4ca463d8d3b9f05e2809063783a5e6290606401602060405180830381865af4158015610ccf573d6000803e3d6000fd5b505050506040513d601f19601f82011682018060405250810190610cf39190611505565b6040516323b872dd60e01b8152336004820152306024820152604481018a90529091506001600160a01b038a16906323b872dd906064016020604051808303816000875af1158015610d49573d6000803e3d6000fd5b505050506040513d601f19601f82011682018060405250810190610d6d91906114e3565b610dad5760405162461bcd60e51b815260206004820152601160248201527019985a5b1959081d1bc819195c1bdcda5d607a1b6044820152606401610633565b6000604051806101000160405280336001600160a01b031681526020018b6001600160a01b0316815260200188888080601f0160208091040260200160405190810160405280939291908181526020018383808284376000920182905250938552505050602080830186905260408084018d9052606084018a9052608084018e905260a09093018290528682526004815290829020835181546001600160a01b03199081166001600160a01b03928316178355928501516001830180549094169116179091559082015191925082916002820190610e8b90826115d2565b50606082015160038201556080820151600482015560a082015160058083019190915560c0830151600683015560e0909201516007909101805460ff191691151591909117905560008381526020918252604090819020835181546001600160a01b03199081166001600160a01b03928316178355938501516001830180549095169116179092558201518291906002820190610f2890826115d2565b50606082015160038201556080820151600482015560a0820151600582015560c082015160068083019190915560e0909201516007918201805460ff1916911515919091179055336000908152602092835260408082208683529093529182208b9055805491610f9783611464565b909155505060408051848152602081018b905290810189905260608101869052608081018390526001600160a01b038b169033907f8dedd1562afbeac42681d270d53b8eaa7513dd1e3f9fc0d43201b6d89e60a9939060a00160405180910390a350505050505050505050565b6000546001600160a01b0316331461102e5760405162461bcd60e51b815260040161063390611537565b600080546001600160a01b0319166001600160a01b0383169081179091556040805182815260208101929092527f7e644d79422f17c01e4894b5f4f588d331ebfa28653d42ae832dc59e38c9798f91016109be565b6000546001600160a01b031633146110ad5760405162461bcd60e51b815260040161063390611537565b600180546001600160a01b0319166001600160a01b03831690811790915560405133919081907fccedfbc095a2ce404e74d81d857b3784d947e43dfb011de63698049fed93dbbf90600090a450565b60026003540361111f57604051633ee5aeb560e01b815260040160405180910390fd5b6002600355565b60405180610100016040528060006001600160a01b0316815260200160006001600160a01b0316815260200160608152602001600080191681526020016000815260200160008152602001600081526020016000151581525090565b80356001600160a01b03811681146105e357600080fd5b6000602082840312156111ab57600080fd5b6111b482611182565b9392505050565b6000815180845260005b818110156111e1576020818501810151868301820152016111c5565b506000602082860101526020601f19601f83011685010191505092915050565b600061010060018060a01b03808451168552806020850151166020860152506040830151816040860152611237828601826111bb565b915050606083015160608501526080830151608085015260a083015160a085015260c083015160c085015260e0830151151560e08501528091505092915050565b600060208083016020845280855180835260408601915060408160051b87010192506020870160005b828110156112cf57603f198886030184526112bd858351611201565b945092850192908501906001016112a1565b5092979650505050505050565b6000602082840312156112ee57600080fd5b5035919050565b6001600160a01b03898116825288166020820152610100604082018190526000906113228382018a6111bb565b60608401989098525050608081019490945260a084019290925260c0830152151560e0909101529392505050565b6020815260006111b46020830184611201565b6000806040838503121561137657600080fd5b50508035926020909101359150565b60008060008060008060a0878903121561139e57600080fd5b6113a787611182565b95506020870135945060408701359350606087013567ffffffffffffffff808211156113d257600080fd5b818901915089601f8301126113e657600080fd5b8135818111156113f557600080fd5b8a602082850101111561140757600080fd5b602083019550809450505050608087013590509295509295509295565b6000806040838503121561143757600080fd5b61144083611182565b946020939093013593505050565b634e487b7160e01b600052601160045260246000fd5b6000600182016114765761147661144e565b5060010190565b634e487b7160e01b600052604160045260246000fd5b600181811c908216806114a757607f821691505b6020821081036114c757634e487b7160e01b600052602260045260246000fd5b50919050565b634e487b7160e01b600052603260045260246000fd5b6000602082840312156114f557600080fd5b815180151581146111b457600080fd5b60006020828403121561151757600080fd5b5051919050565b818103818111156115315761153161144e565b92915050565b6020808252601f908201527f4f6e6c7920746865206f776e65722063616e2065786563757465207468697300604082015260600190565b808201808211156115315761153161144e565b601f8211156115cd576000816000526020600020601f850160051c810160208610156115aa5750805b601f850160051c820191505b818110156115c9578281556001016115b6565b5050505b505050565b815167ffffffffffffffff8111156115ec576115ec61147d565b611600816115fa8454611493565b84611581565b602080601f831160018114611635576000841561161d5750858301515b600019600386901b1c1916600185901b1785556115c9565b600085815260208120601f198616915b8281101561166457888601518255948401946001909101908401611645565b50858210156116825787850151600019600388901b60f8161c191681555b5050505050600190811b0190555056fea2646970667358221220e88140d9240097cee32f1b826cadef17361339ad33e3ce8218899068b4486c2264736f6c63430008190033","linkReferences":{}},"methodIdentifiers":{"chainCoopFees()":"1c1e5546","getSavingPoolByIndex(bytes32)":"8146fd9e","getSavingPoolBySaver(address)":"3759c8a5","getSavingPoolCount()":"0b1ad4a9","isTokenAllowed(address)":"f9eaee0d","openSavingPool(address,uint256,uint256,string,uint256)":"a6278650","owner()":"8da5cb5b","poolCount()":"f525cb68","poolSavingPool(bytes32)":"7784fc1a","removeAllowedTokens(address)":"fec71f27","setAllowedTokens(address)":"906d8f79","setChainCoopAddress(address)":"f87e3d63","transferOwnership(address)":"f2fde38b","updateSaving(bytes32,uint256)":"9c339d64","userPoolBalance(address,bytes32)":"c0fd05a1","userSavingPool(uint256)":"4521dff4","withdraw(bytes32)":"8e19899e"},"id":33}