{"abi":[{"type":"constructor","inputs":[{"name":"trustedForwarder_","type":"address","internalType":"address"}],"stateMutability":"nonpayable"},{"type":"function","name":"UPGRADE_INTERFACE_VERSION","inputs":[],"outputs":[{"name":"","type":"string","internalType":"string"}],"stateMutability":"view"},{"type":"function","name":"aaveConfigs","inputs":[{"name":"","type":"address","internalType":"address"}],"outputs":[{"name":"pool","type":"address","internalType":"contract IPool"},{"name":"aToken","type":"address","internalType":"contract IERC20"},{"name":"rewardsController","type":"address","internalType":"contract IRewardsController"},{"name":"isConfigured","type":"bool","internalType":"bool"}],"stateMutability":"view"},{"type":"function","name":"chainCoopFees","inputs":[],"outputs":[{"name":"","type":"address","internalType":"address"}],"stateMutability":"view"},{"type":"function","name":"claimAaveRewards","inputs":[{"name":"_poolId","type":"bytes32","internalType":"bytes32"}],"outputs":[],"stateMutability":"nonpayable"},{"type":"function","name":"configureAave","inputs":[{"name":"tokenAddress","type":"address","internalType":"address"},{"name":"aavePool","type":"address","internalType":"address"},{"name":"aToken","type":"address","internalType":"address"},{"name":"rewardsController","type":"address","internalType":"address"}],"outputs":[],"stateMutability":"nonpayable"},{"type":"function","name":"enableAaveForPool","inputs":[{"name":"_poolId","type":"bytes32","internalType":"bytes32"}],"outputs":[],"stateMutability":"nonpayable"},{"type":"function","name":"getPoolAaveBalance","inputs":[{"name":"_poolId","type":"bytes32","internalType":"bytes32"}],"outputs":[{"name":"","type":"uint256","internalType":"uint256"}],"stateMutability":"view"},{"type":"function","name":"getPoolYield","inputs":[{"name":"_poolId","type":"bytes32","internalType":"bytes32"}],"outputs":[{"name":"","type":"uint256","internalType":"uint256"}],"stateMutability":"view"},{"type":"function","name":"getSavingPoolByIndex","inputs":[{"name":"_index","type":"bytes32","internalType":"bytes32"}],"outputs":[{"name":"","type":"tuple","internalType":"struct IChainCoopSaving.SavingPool","components":[{"name":"saver","type":"address","internalType":"address"},{"name":"tokenToSaveWith","type":"address","internalType":"address"},{"name":"Reason","type":"string","internalType":"string"},{"name":"poolIndex","type":"bytes32","internalType":"bytes32"},{"name":"startDate","type":"uint256","internalType":"uint256"},{"name":"Duration","type":"uint256","internalType":"uint256"},{"name":"amountSaved","type":"uint256","internalType":"uint256"},{"name":"aaveDepositAmount","type":"uint256","internalType":"uint256"},{"name":"locktype","type":"uint8","internalType":"enum IChainCoopSaving.LockingType"},{"name":"isGoalAccomplished","type":"bool","internalType":"bool"},{"name":"isStoped","type":"bool","internalType":"bool"},{"name":"aaveEnabled","type":"bool","internalType":"bool"}]}],"stateMutability":"view"},{"type":"function","name":"getSavingPoolBySaver","inputs":[{"name":"_saver","type":"address","internalType":"address"}],"outputs":[{"name":"pools","type":"tuple[]","internalType":"struct IChainCoopSaving.SavingPool[]","components":[{"name":"saver","type":"address","internalType":"address"},{"name":"tokenToSaveWith","type":"address","internalType":"address"},{"name":"Reason","type":"string","internalType":"string"},{"name":"poolIndex","type":"bytes32","internalType":"bytes32"},{"name":"startDate","type":"uint256","internalType":"uint256"},{"name":"Duration","type":"uint256","internalType":"uint256"},{"name":"amountSaved","type":"uint256","internalType":"uint256"},{"name":"aaveDepositAmount","type":"uint256","internalType":"uint256"},{"name":"locktype","type":"uint8","internalType":"enum IChainCoopSaving.LockingType"},{"name":"isGoalAccomplished","type":"bool","internalType":"bool"},{"name":"isStoped","type":"bool","internalType":"bool"},{"name":"aaveEnabled","type":"bool","internalType":"bool"}]}],"stateMutability":"view"},{"type":"function","name":"getTrustedForwarder","inputs":[],"outputs":[{"name":"","type":"address","internalType":"address"}],"stateMutability":"view"},{"type":"function","name":"getUserContributions","inputs":[{"name":"_saver","type":"address","internalType":"address"}],"outputs":[{"name":"contributions","type":"tuple[]","internalType":"struct IChainCoopSaving.Contribution[]","components":[{"name":"tokenAddress","type":"address","internalType":"address"},{"name":"amount","type":"uint256","internalType":"uint256"},{"name":"aaveBalance","type":"uint256","internalType":"uint256"}]}],"stateMutability":"view"},{"type":"function","name":"initialize","inputs":[{"name":"_tokenAddress","type":"address","internalType":"address"}],"outputs":[],"stateMutability":"nonpayable"},{"type":"function","name":"isAaveConfigured","inputs":[{"name":"token","type":"address","internalType":"address"}],"outputs":[{"name":"","type":"bool","internalType":"bool"}],"stateMutability":"view"},{"type":"function","name":"isTokenAllowed","inputs":[{"name":"","type":"address","internalType":"address"}],"outputs":[{"name":"","type":"bool","internalType":"bool"}],"stateMutability":"view"},{"type":"function","name":"isTrustedForwarder","inputs":[{"name":"forwarder","type":"address","internalType":"address"}],"outputs":[{"name":"","type":"bool","internalType":"bool"}],"stateMutability":"view"},{"type":"function","name":"openSavingPool","inputs":[{"name":"_tokenTosaveWith","type":"address","internalType":"address"},{"name":"_savedAmount","type":"uint256","internalType":"uint256"},{"name":"_reason","type":"string","internalType":"string"},{"name":"_locktype","type":"uint8","internalType":"enum IChainCoopSaving.LockingType"},{"name":"_duration","type":"uint256","internalType":"uint256"}],"outputs":[],"stateMutability":"nonpayable"},{"type":"function","name":"owner","inputs":[],"outputs":[{"name":"","type":"address","internalType":"address"}],"stateMutability":"view"},{"type":"function","name":"poolSavingPool","inputs":[{"name":"","type":"bytes32","internalType":"bytes32"}],"outputs":[{"name":"saver","type":"address","internalType":"address"},{"name":"tokenToSaveWith","type":"address","internalType":"address"},{"name":"Reason","type":"string","internalType":"string"},{"name":"poolIndex","type":"bytes32","internalType":"bytes32"},{"name":"startDate","type":"uint256","internalType":"uint256"},{"name":"Duration","type":"uint256","internalType":"uint256"},{"name":"amountSaved","type":"uint256","internalType":"uint256"},{"name":"aaveDepositAmount","type":"uint256","internalType":"uint256"},{"name":"locktype","type":"uint8","internalType":"enum IChainCoopSaving.LockingType"},{"name":"isGoalAccomplished","type":"bool","internalType":"bool"},{"name":"isStoped","type":"bool","internalType":"bool"},{"name":"aaveEnabled","type":"bool","internalType":"bool"}],"stateMutability":"view"},{"type":"function","name":"proxiableUUID","inputs":[],"outputs":[{"name":"","type":"bytes32","internalType":"bytes32"}],"stateMutability":"view"},{"type":"function","name":"removeAllowedTokens","inputs":[{"name":"_tokenAddress","type":"address","internalType":"address"}],"outputs":[],"stateMutability":"nonpayable"},{"type":"function","name":"renounceOwnership","inputs":[],"outputs":[],"stateMutability":"nonpayable"},{"type":"function","name":"restartSaving","inputs":[{"name":"_poolId","type":"bytes32","internalType":"bytes32"}],"outputs":[],"stateMutability":"nonpayable"},{"type":"function","name":"setAllowedTokens","inputs":[{"name":"_tokenAddress","type":"address","internalType":"address"}],"outputs":[],"stateMutability":"nonpayable"},{"type":"function","name":"setChainCoopAddress","inputs":[{"name":"_chaincoopfees","type":"address","internalType":"address"}],"outputs":[],"stateMutability":"nonpayable"},{"type":"function","name":"stopSaving","inputs":[{"name":"_poolId","type":"bytes32","internalType":"bytes32"}],"outputs":[],"stateMutability":"nonpayable"},{"type":"function","name":"supportsMetaTransactions","inputs":[],"outputs":[{"name":"","type":"bool","internalType":"bool"}],"stateMutability":"pure"},{"type":"function","name":"totalAaveDeposits","inputs":[{"name":"","type":"address","internalType":"address"}],"outputs":[{"name":"","type":"uint256","internalType":"uint256"}],"stateMutability":"view"},{"type":"function","name":"transferOwnership","inputs":[{"name":"newOwner","type":"address","internalType":"address"}],"outputs":[],"stateMutability":"nonpayable"},{"type":"function","name":"trustedForwarder","inputs":[],"outputs":[{"name":"","type":"address","internalType":"address"}],"stateMutability":"view"},{"type":"function","name":"updateSaving","inputs":[{"name":"_poolId","type":"bytes32","internalType":"bytes32"},{"name":"_amount","type":"uint256","internalType":"uint256"}],"outputs":[],"stateMutability":"nonpayable"},{"type":"function","name":"upgradeToAndCall","inputs":[{"name":"newImplementation","type":"address","internalType":"address"},{"name":"data","type":"bytes","internalType":"bytes"}],"outputs":[],"stateMutability":"payable"},{"type":"function","name":"userContributedPools","inputs":[{"name":"","type":"address","internalType":"address"},{"name":"","type":"uint256","internalType":"uint256"}],"outputs":[{"name":"","type":"bytes32","internalType":"bytes32"}],"stateMutability":"view"},{"type":"function","name":"userPoolBalance","inputs":[{"name":"","type":"address","internalType":"address"},{"name":"","type":"bytes32","internalType":"bytes32"}],"outputs":[{"name":"","type":"uint256","internalType":"uint256"}],"stateMutability":"view"},{"type":"function","name":"withdraw","inputs":[{"name":"_poolId","type":"bytes32","internalType":"bytes32"}],"outputs":[],"stateMutability":"nonpayable"},{"type":"event","name":"AaveConfigured","inputs":[{"name":"token","type":"address","indexed":true,"internalType":"address"},{"name":"pool","type":"address","indexed":false,"internalType":"address"},{"name":"aToken","type":"address","indexed":false,"internalType":"address"}],"anonymous":false},{"type":"event","name":"AaveDepositEnabled","inputs":[{"name":"user","type":"address","indexed":true,"internalType":"address"},{"name":"poolId","type":"bytes32","indexed":true,"internalType":"bytes32"},{"name":"amount","type":"uint256","indexed":false,"internalType":"uint256"}],"anonymous":false},{"type":"event","name":"AaveRewardsClaimed","inputs":[{"name":"user","type":"address","indexed":true,"internalType":"address"},{"name":"rewards","type":"address[]","indexed":false,"internalType":"address[]"},{"name":"amounts","type":"uint256[]","indexed":false,"internalType":"uint256[]"}],"anonymous":false},{"type":"event","name":"AdminChanged","inputs":[{"name":"previousAdmin","type":"address","indexed":false,"internalType":"address"},{"name":"newAdmin","type":"address","indexed":false,"internalType":"address"}],"anonymous":false},{"type":"event","name":"AllowToken","inputs":[{"name":"_updator","type":"address","indexed":false,"internalType":"address"},{"name":"_allowedToken","type":"address","indexed":false,"internalType":"address"}],"anonymous":false},{"type":"event","name":"ChainCoopFeesChanged","inputs":[{"name":"previousChainCoopFees","type":"address","indexed":true,"internalType":"address"},{"name":"newChainCoopFees","type":"address","indexed":true,"internalType":"address"},{"name":"_ownerChanged","type":"address","indexed":true,"internalType":"address"}],"anonymous":false},{"type":"event","name":"Initialized","inputs":[{"name":"version","type":"uint64","indexed":false,"internalType":"uint64"}],"anonymous":false},{"type":"event","name":"OpenSavingPool","inputs":[{"name":"user","type":"address","indexed":true,"internalType":"address"},{"name":"_tokenAddress","type":"address","indexed":true,"internalType":"address"},{"name":"initialAmount","type":"uint256","indexed":false,"internalType":"uint256"},{"name":"startTime","type":"uint256","indexed":false,"internalType":"uint256"},{"name":"locktype","type":"uint8","indexed":false,"internalType":"enum IChainCoopSaving.LockingType"},{"name":"duration","type":"uint256","indexed":false,"internalType":"uint256"},{"name":"_poolId","type":"bytes32","indexed":false,"internalType":"bytes32"}],"anonymous":false},{"type":"event","name":"OwnershipTransferred","inputs":[{"name":"previousOwner","type":"address","indexed":true,"internalType":"address"},{"name":"newOwner","type":"address","indexed":true,"internalType":"address"}],"anonymous":false},{"type":"event","name":"PoolClosed","inputs":[{"name":"user","type":"address","indexed":true,"internalType":"address"},{"name":"poolId","type":"bytes32","indexed":true,"internalType":"bytes32"}],"anonymous":false},{"type":"event","name":"RestartSaving","inputs":[{"name":"_poolOwner","type":"address","indexed":false,"internalType":"address"},{"name":"_poolId","type":"bytes32","indexed":false,"internalType":"bytes32"}],"anonymous":false},{"type":"event","name":"StopSaving","inputs":[{"name":"_poolOwner","type":"address","indexed":false,"internalType":"address"},{"name":"_poolId","type":"bytes32","indexed":false,"internalType":"bytes32"}],"anonymous":false},{"type":"event","name":"UpdateSaving","inputs":[{"name":"user","type":"address","indexed":true,"internalType":"address"},{"name":"_tokenAddress","type":"address","indexed":true,"internalType":"address"},{"name":"amount","type":"uint256","indexed":false,"internalType":"uint256"},{"name":"_poolId","type":"bytes32","indexed":false,"internalType":"bytes32"}],"anonymous":false},{"type":"event","name":"Upgraded","inputs":[{"name":"implementation","type":"address","indexed":true,"internalType":"address"}],"anonymous":false},{"type":"event","name":"Withdraw","inputs":[{"name":"user","type":"address","indexed":true,"internalType":"address"},{"name":"_tokenAddress","type":"address","indexed":true,"internalType":"address"},{"name":"amount","type":"uint256","indexed":false,"internalType":"uint256"},{"name":"_poolId","type":"bytes32","indexed":false,"internalType":"bytes32"},{"name":"aaveYield","type":"uint256","indexed":false,"internalType":"uint256"}],"anonymous":false},{"type":"error","name":"AaveNotConfigured","inputs":[]},{"type":"error","name":"AddressEmptyCode","inputs":[{"name":"target","type":"address","internalType":"address"}]},{"type":"error","name":"ERC1967InvalidImplementation","inputs":[{"name":"implementation","type":"address","internalType":"address"}]},{"type":"error","name":"ERC1967NonPayable","inputs":[]},{"type":"error","name":"FailedCall","inputs":[]},{"type":"error","name":"InvalidInitialization","inputs":[]},{"type":"error","name":"NotInitializing","inputs":[]},{"type":"error","name":"NotPoolOwner","inputs":[{"name":"_caller","type":"address","internalType":"address"},{"name":"_poolId","type":"bytes32","internalType":"bytes32"}]},{"type":"error","name":"OwnableInvalidOwner","inputs":[{"name":"owner","type":"address","internalType":"address"}]},{"type":"error","name":"OwnableUnauthorizedAccount","inputs":[{"name":"account","type":"address","internalType":"address"}]},{"type":"error","name":"PoolAlreadyOnAave","inputs":[{"name":"_poolId","type":"bytes32","internalType":"bytes32"}]},{"type":"error","name":"PoolStoped","inputs":[{"name":"_caller","type":"address","internalType":"address"},{"name":"_poolid","type":"bytes32","internalType":"bytes32"}]},{"type":"error","name":"ReentrancyGuardReentrantCall","inputs":[]},{"type":"error","name":"SafeERC20FailedOperation","inputs":[{"name":"token","type":"address","internalType":"address"}]},{"type":"error","name":"SavingPeriodStillOn","inputs":[{"name":"_caller","type":"address","internalType":"address"},{"name":"_poolId","type":"bytes32","internalType":"bytes32"},{"name":"_endDate","type":"uint256","internalType":"uint256"}]},{"type":"error","name":"StrictlySavingType","inputs":[{"name":"_caller","type":"address","internalType":"address"},{"name":"_poolId","type":"bytes32","internalType":"bytes32"}]},{"type":"error","name":"UUPSUnauthorizedCallContext","inputs":[]},{"type":"error","name":"UUPSUnsupportedProxiableUUID","inputs":[{"name":"slot","type":"bytes32","internalType":"bytes32"}]},{"type":"error","name":"ZeroAmount","inputs":[{"name":"_amount","type":"uint256","internalType":"uint256"}]},{"type":"error","name":"ZeroDuration","inputs":[{"name":"_duration","type":"uint256","internalType":"uint256"}]}],"bytecode":{"object":"0x60c06040523461004f57610019610014610114565b610135565b610021610054565b615fce6103e88239608051816125cb015260a0518181816151240152818161518901526153300152615fce90f35b61005a565b60405190565b5f80fd5b601f801991011690565b634e487b7160e01b5f52604160045260245ffd5b906100869061005e565b810190811060018060401b0382111761009e57604052565b610068565b906100b66100af610054565b928361007c565b565b5f80fd5b60018060a01b031690565b6100d0906100bc565b90565b6100dc816100c7565b036100e357565b5f80fd5b905051906100f4826100d3565b565b9060208282031261010f5761010c915f016100e7565b90565b6100b8565b6101326163b680380380610127816100a3565b9283398101906100f6565b90565b61013e90610148565b6101466102be565b565b61015190610153565b565b61015c90610166565b6101646102be565b565b61016f906101a8565b565b90565b61018861018361018d926100bc565b610171565b6100bc565b90565b61019990610174565b90565b6101a590610190565b90565b6101b1906101bf565b6101ba3061019c565b60a052565b6101c8906101ca565b565b608052565b60401c90565b60ff1690565b6101e76101ec916101cf565b6101d5565b90565b6101f990546101db565b90565b5f0190565b5f1c90565b60018060401b031690565b61021d61022291610201565b610206565b90565b61022f9054610211565b90565b60018060401b031690565b5f1b90565b9061025360018060401b039161023d565b9181191691161790565b61027161026c61027692610232565b610171565b610232565b90565b90565b9061029161028c6102989261025d565b610279565b8254610242565b9055565b6102a590610232565b9052565b91906102bc905f6020850194019061029c565b565b6102c6610376565b6102d15f82016101ef565b61035a576102e05f8201610225565b6102f86102f260018060401b03610232565b91610232565b03610301575b50565b610314905f60018060401b03910161027c565b60018060401b036103517fc7f505b2f371ae2175ee4913f4499e1f2633a7b5936321eed1cdaeb6115181d291610348610054565b918291826102a9565b0390a15f6102fe565b5f63f92ee8a960e01b815280610372600482016101fc565b0390fd5b61037e6103d3565b90565b5f90565b90565b90565b61039f61039a6103a492610385565b61023d565b610388565b90565b6103d07ff0c57e16840df040f15088dc2f81fe391c3923bec73e23a9662efc9c229c6a0061038b565b90565b6103db610381565b506103e46103a7565b9056fe60806040526004361015610013575b611a2e565b61001d5f3561024c565b80630668a9a1146102475780630a09096714610242578063127fc5371461023d5780631c1e5546146102385780633759c8a5146102335780634f1ef2861461022e57806352d1902d14610229578063572b6c05146102245780635fbc3c8d1461021f5780636851af091461021a578063715018a6146102155780637784fc1a146102105780637da0a8771461020b5780638146fd9e146102065780638be12cb5146102015780638d9328aa146101fc5780638da5cb5b146101f75780638e19899e146101f2578063906d8f79146101ed5780639c339d64146101e8578063a7cb8ba9146101e3578063a9a95ddd146101de578063ad3afda2146101d9578063ad3cb1cc146101d4578063bf17ec2b146101cf578063c0fd05a1146101ca578063c4d66de8146101c5578063ce1b815f146101c0578063e36465a3146101bb578063f062291e146101b6578063f2fde38b146101b1578063f87e3d63146101ac578063f9eaee0d146101a7578063fd3b15a0146101a25763fec71f270361000e576119fb565b6119c8565b611993565b61190b565b6118d8565b6118a3565b61186e565b611771565b61173e565b611708565b611659565b6115cf565b6114e9565b6114af565b6113a6565b611372565b611312565b6112df565b6112aa565b611277565b611242565b6111f8565b6110c2565b61107d565b610c72565b610c3d565b610c0a565b610b94565b610b4a565b610b20565b6109c5565b610733565b61068c565b61060b565b610499565b60e01c90565b60405190565b5f80fd5b5f80fd5b5f80fd5b60018060a01b031690565b61027890610264565b90565b6102848161026f565b0361028b57565b5f80fd5b9050359061029c8261027b565b565b906020828203126102b7576102b4915f0161028f565b90565b61025c565b90565b6102d36102ce6102d892610264565b6102bc565b610264565b90565b6102e4906102bf565b90565b6102f0906102db565b90565b906102fd906102e7565b5f5260205260405f2090565b5f1c90565b60018060a01b031690565b61032561032a91610309565b61030e565b90565b6103379054610319565b90565b60018060a01b031690565b61035161035691610309565b61033a565b90565b6103639054610345565b90565b60018060a01b031690565b61037d61038291610309565b610366565b90565b61038f9054610371565b90565b60a01c90565b60ff1690565b6103aa6103af91610392565b610398565b90565b6103bc905461039e565b90565b6103ca9060336102f3565b906103d65f830161032d565b916103e360018201610359565b916103fb60026103f4818501610385565b93016103b2565b90565b610407906102db565b90565b610413906103fe565b9052565b610420906102db565b90565b61042c90610417565b9052565b610439906102db565b90565b61044590610430565b9052565b151590565b61045790610449565b9052565b6104906104979461048660609498979561047c608086019a5f87019061040a565b6020850190610423565b604083019061043c565b019061044e565b565b346104cd576104c96104b46104af36600461029e565b6103bf565b906104c0949294610252565b9485948561045b565b0390f35b610258565b90565b6104de816104d2565b036104e557565b5f80fd5b905035906104f6826104d5565b565b9190604083820312610520578061051461051d925f860161028f565b936020016104e9565b90565b61025c565b9061052f906102e7565b5f5260205260405f2090565b634e487b7160e01b5f52603260045260245ffd5b5490565b5f5260205f2090565b6105658161054f565b82101561057f57610577600191610553565b910201905f90565b61053b565b1c90565b90565b61059b9060086105a09302610584565b610588565b90565b906105ae915461058b565b90565b6105bc906037610525565b6105c58161054f565b8210156105e2576105df916105d99161055c565b906105a3565b90565b5f80fd5b90565b6105f2906105e6565b9052565b9190610609905f602085019401906105e9565b565b3461063c576106386106276106213660046104f8565b906105b1565b61062f610252565b918291826105f6565b0390f35b610258565b60808183031261068257610657825f830161028f565b9261067f610668846020850161028f565b93610676816040860161028f565b9360600161028f565b90565b61025c565b5f0190565b346106be576106a861069f366004610641565b92919091611fb8565b6106b0610252565b806106ba81610687565b0390f35b610258565b5f9103126106cd57565b61025c565b60018060a01b031690565b6106ed9060086106f29302610584565b6106d2565b90565b9061070091546106dd565b90565b61070e5f5f906106f5565b90565b61071a9061026f565b9052565b9190610731905f60208501940190610711565b565b34610763576107433660046106c3565b61075f61074e610703565b610756610252565b9182918261071e565b0390f35b610258565b5190565b60209181520190565b60200190565b6107849061026f565b9052565b5190565b60209181520190565b90825f9392825e0152565b601f801991011690565b6107c96107d26020936107d7936107c081610788565b9384809361078c565b95869101610795565b6107a0565b0190565b6107e4906105e6565b9052565b6107f1906104d2565b9052565b634e487b7160e01b5f52602160045260245ffd5b6003111561081357565b6107f5565b9061082282610809565b565b61082d90610818565b90565b61083990610824565b9052565b61084690610449565b9052565b90610930906101608061088f610180840161086b5f8801515f87019061077b565b61087d6020880151602087019061077b565b604087015185820360408701526107aa565b946108a2606082015160608601906107db565b6108b4608082015160808601906107e8565b6108c660a082015160a08601906107e8565b6108d860c082015160c08601906107e8565b6108ea60e082015160e08601906107e8565b6108fe610100820151610100860190610830565b61091261012082015161012086019061083d565b61092661014082015161014086019061083d565b015191019061083d565b90565b9061093d9161084a565b90565b60200190565b9061095a61095383610768565b809261076c565b908161096b60208302840194610775565b925f915b83831061097e57505050505090565b909192939460206109a061099a83856001950387528951610933565b97610940565b930193019193929061096f565b6109c29160208201915f818403910152610946565b90565b346109f5576109f16109e06109db36600461029e565b6122d5565b6109e8610252565b918291826109ad565b0390f35b610258565b5f80fd5b5f80fd5b634e487b7160e01b5f52604160045260245ffd5b90610a20906107a0565b810190811067ffffffffffffffff821117610a3a57604052565b610a02565b90610a52610a4b610252565b9283610a16565b565b67ffffffffffffffff8111610a7257610a6e6020916107a0565b0190565b610a02565b90825f939282370152565b90929192610a97610a9282610a54565b610a3f565b93818552602085019082840111610ab357610ab192610a77565b565b6109fe565b9080601f83011215610ad657816020610ad393359101610a82565b90565b6109fa565b919091604081840312610b1b57610af4835f830161028f565b92602082013567ffffffffffffffff8111610b1657610b139201610ab8565b90565b610260565b61025c565b610b34610b2e366004610adb565b906123a6565b610b3c610252565b80610b4681610687565b0390f35b34610b7a57610b5a3660046106c3565b610b76610b65612421565b610b6d610252565b918291826105f6565b0390f35b610258565b9190610b92905f6020850194019061044e565b565b34610bc457610bc0610baf610baa36600461029e565b612438565b610bb7610252565b91829182610b7f565b0390f35b610258565b610bd2816105e6565b03610bd957565b5f80fd5b90503590610bea82610bc9565b565b90602082820312610c0557610c02915f01610bdd565b90565b61025c565b34610c3857610c22610c1d366004610bec565b6124bf565b610c2a610252565b80610c3481610687565b0390f35b610258565b34610c6d57610c4d3660046106c3565b610c69610c5861257f565b610c60610252565b91829182610b7f565b0390f35b610258565b34610ca057610c823660046106c3565b610c8a6125b2565b610c92610252565b80610c9c81610687565b0390f35b610258565b610cae906105e6565b90565b90610cbb90610ca5565b5f5260205260405f2090565b610cd3610cd891610309565b6106d2565b90565b610ce59054610cc7565b90565b634e487b7160e01b5f52602260045260245ffd5b9060016002830492168015610d1c575b6020831014610d1757565b610ce8565b91607f1691610d0c565b5f5260205f2090565b905f9291805490610d49610d4283610cfc565b809461078c565b916001811690815f14610da05750600114610d64575b505050565b610d719192939450610d26565b915f925b818410610d8857505001905f8080610d5f565b60018160209295939554848601520191019290610d75565b92949550505060ff19168252151560200201905f8080610d5f565b90610dc591610d2f565b90565b90610de8610de192610dd8610252565b93848092610dbb565b0383610a16565b565b610df6610dfb91610309565b610588565b90565b610e089054610dea565b90565b90565b610e1a610e1f91610309565b610e0b565b90565b610e2c9054610e0e565b90565b60ff1690565b610e41610e4691610309565b610e2f565b90565b610e539054610e35565b90565b60081c90565b610e68610e6d91610e56565b610398565b90565b610e7a9054610e5c565b90565b60101c90565b610e8f610e9491610e7d565b610398565b90565b610ea19054610e83565b90565b60181c90565b610eb6610ebb91610ea4565b610398565b90565b610ec89054610eaa565b90565b610ed6906035610cb1565b90610ee25f8301610cdb565b91610eef60018201610cdb565b91610efc60028301610dc8565b91610f0960038201610dfe565b91610f1660048301610e22565b91610f2360058201610e22565b91610f3060068301610e22565b91610f3d60078201610e22565b91610f4a60088301610e49565b91610f5760088201610e70565b91610f6f6008610f68818501610e97565b9301610ebe565b90565b60209181520190565b610f9a610fa3602093610fa893610f9181610788565b93848093610f72565b95869101610795565b6107a0565b0190565b610fb5906104d2565b9052565b610fc290610824565b9052565b999795939c9b9a98969492916101808b01915f8c01610fe491610711565b60208b01610ff191610711565b89810360408b015261100291610f7b565b9a60608901611010916105e9565b6080880161101d91610fac565b60a0870161102a91610fac565b60c0860161103791610fac565b60e0850161104491610fac565b610100840161105291610fb9565b61012083016110609161044e565b610140820161106e9161044e565b6101600161107b9161044e565b565b346110bd576110b9611098611093366004610bec565b610ecb565b986110b09c9a9c989198979297969396959495610252565b9c8d9c8d610fc6565b0390f35b610258565b346110f2576110d23660046106c3565b6110ee6110dd6125c0565b6110e5610252565b9182918261071e565b0390f35b610258565b906111dd906101608061113c61018084016111185f8801515f87019061077b565b61112a6020880151602087019061077b565b604087015185820360408701526107aa565b9461114f606082015160608601906107db565b611161608082015160808601906107e8565b61117360a082015160a08601906107e8565b61118560c082015160c08601906107e8565b61119760e082015160e08601906107e8565b6111ab610100820151610100860190610830565b6111bf61012082015161012086019061083d565b6111d361014082015161014086019061083d565b015191019061083d565b90565b6111f59160208201915f8184039101526110f7565b90565b346112285761122461121361120e366004610bec565b6125f8565b61121b610252565b918291826111e0565b0390f35b610258565b9190611240905f60208501940190610fac565b565b346112725761126e61125d611258366004610bec565b612661565b611265610252565b9182918261122d565b0390f35b610258565b346112a55761128f61128a366004610bec565b612bb4565b611297610252565b806112a181610687565b0390f35b610258565b346112da576112ba3660046106c3565b6112d66112c5612bbf565b6112cd610252565b9182918261071e565b0390f35b610258565b3461130d576112f76112f2366004610bec565b6135d1565b6112ff610252565b8061130981610687565b0390f35b610258565b346113405761132a61132536600461029e565b613678565b611332610252565b8061133c81610687565b0390f35b610258565b919060408382031261136d578061136161136a925f8601610bdd565b936020016104e9565b90565b61025c565b346113a15761138b611385366004611345565b906136e3565b611393610252565b8061139d81610687565b0390f35b610258565b346113d6576113d26113c16113bc36600461029e565b613aa5565b6113c9610252565b91829182610b7f565b0390f35b610258565b5f80fd5b5f80fd5b909182601f8301121561141d5781359167ffffffffffffffff831161141857602001926001830284011161141357565b6113df565b6113db565b6109fa565b6003111561142c57565b5f80fd5b9050359061143d82611422565b565b9060a0828203126114aa57611456815f840161028f565b9261146482602085016104e9565b9260408101359167ffffffffffffffff83116114a557611489846114a29484016113e3565b9390946114998160608601611430565b936080016104e9565b90565b610260565b61025c565b346114e4576114ce6114c236600461143f565b949390939291926141e5565b6114d6610252565b806114e081610687565b0390f35b610258565b34611517576115016114fc366004610bec565b614714565b611509610252565b8061151381610687565b0390f35b610258565b67ffffffffffffffff811161153a576115366020916107a0565b0190565b610a02565b9061155161154c8361151c565b610a3f565b918252565b5f7f352e302e30000000000000000000000000000000000000000000000000000000910152565b611587600561153f565b9061159460208301611556565b565b61159e61157d565b90565b6115a9611596565b90565b6115b46115a1565b90565b6115cc9160208201915f818403910152610f7b565b90565b346115ff576115df3660046106c3565b6115fb6115ea6115ac565b6115f2610252565b918291826115b7565b0390f35b610258565b9061160e906102e7565b5f5260205260405f2090565b61162a90600861162f9302610584565b610e0b565b90565b9061163d915461161a565b90565b611656906116516034915f92611604565b611632565b90565b346116895761168561167461166f36600461029e565b611640565b61167c610252565b9182918261122d565b0390f35b610258565b91906040838203126116b657806116aa6116b3925f860161028f565b93602001610bdd565b90565b61025c565b906116c5906102e7565b5f5260205260405f2090565b906116db90610ca5565b5f5260205260405f2090565b611700611705926116fb6036935f946116bb565b6116d1565b611632565b90565b346117395761173561172461171e36600461168e565b906116e7565b61172c610252565b9182918261122d565b0390f35b610258565b3461176c5761175661175136600461029e565b6149f7565b61175e610252565b8061176881610687565b0390f35b610258565b346117a1576117813660046106c3565b61179d61178c614a02565b611794610252565b9182918261071e565b0390f35b610258565b5190565b60209181520190565b60200190565b906040806117ed936117d15f8201515f86019061077b565b6117e3602082015160208601906107e8565b01519101906107e8565b565b906117fc816060936117b9565b0190565b60200190565b9061182361181d611816846117a6565b80936117aa565b926117b3565b905f5b8181106118335750505090565b90919261184c61184660019286516117ef565b94611800565b9101919091611826565b61186b9160208201915f818403910152611806565b90565b3461189e5761189a61188961188436600461029e565b614b10565b611891610252565b91829182611856565b0390f35b610258565b346118d3576118cf6118be6118b9366004610bec565b614c61565b6118c6610252565b9182918261122d565b0390f35b610258565b34611906576118f06118eb36600461029e565b614e4b565b6118f8610252565b8061190281610687565b0390f35b610258565b346119395761192361191e36600461029e565b614ed3565b61192b610252565b8061193581610687565b0390f35b610258565b90611948906102e7565b5f5260205260405f2090565b6119649060086119699302610584565b610398565b90565b906119779154611954565b90565b6119909061198b6001915f9261193e565b61196c565b90565b346119c3576119bf6119ae6119a936600461029e565b61197a565b6119b6610252565b91829182610b7f565b0390f35b610258565b346119f6576119e06119db366004610bec565b614ede565b6119e8610252565b806119f281610687565b0390f35b610258565b34611a2957611a13611a0e36600461029e565b615002565b611a1b610252565b80611a2581610687565b0390f35b610258565b5f80fd5b90611a46939291611a4161500d565b611e7f565b565b90565b611a5f611a5a611a6492611a48565b6102bc565b610264565b90565b611a7090611a4b565b90565b5f7f496e76616c696420746f6b656e20616464726573730000000000000000000000910152565b611aa76015602092610f72565b611ab081611a73565b0190565b611ac99060208101905f818303910152611a9a565b90565b15611ad357565b611adb610252565b62461bcd60e51b815280611af160048201611ab4565b0390fd5b5f7f496e76616c6964204161766520706f6f6c000000000000000000000000000000910152565b611b296011602092610f72565b611b3281611af5565b0190565b611b4b9060208101905f818303910152611b1c565b90565b15611b5557565b611b5d610252565b62461bcd60e51b815280611b7360048201611b36565b0390fd5b5f7f496e76616c69642061546f6b656e000000000000000000000000000000000000910152565b611bab600e602092610f72565b611bb481611b77565b0190565b611bcd9060208101905f818303910152611b9e565b90565b15611bd757565b611bdf610252565b62461bcd60e51b815280611bf560048201611bb8565b0390fd5b611c02906102bf565b90565b611c0e90611bf9565b90565b611c1a906102bf565b90565b611c2690611c11565b90565b611c32906102bf565b90565b611c3e90611c29565b90565b611c4b6080610a3f565b90565b611c579061026f565b90565b90611c6490611c4e565b9052565b611c719061026f565b90565b90611c7e90611c68565b9052565b611c8b9061026f565b90565b90611c9890611c82565b9052565b90611ca690610449565b9052565b634e487b7160e01b5f525f60045260245ffd5b611cc79051611c4e565b90565b5f1b90565b90611ce060018060a01b0391611cca565b9181191691161790565b611cf390611bf9565b90565b90565b90611d0e611d09611d1592611cea565b611cf6565b8254611ccf565b9055565b611d239051611c68565b90565b611d2f90611c11565b90565b90565b90611d4a611d45611d5192611d26565b611d32565b8254611ccf565b9055565b611d5f9051611c82565b90565b611d6b90611c29565b90565b90565b90611d86611d81611d8d92611d62565b611d6e565b8254611ccf565b9055565b611d9b9051610449565b90565b60a01b90565b90611db360ff60a01b91611d9e565b9181191691161790565b611dc690610449565b90565b90565b90611de1611ddc611de892611dbd565b611dc9565b8254611da4565b9055565b90611e4860606002611e4e94611e0f5f8201611e095f8801611cbd565b90611cf9565b611e2860018201611e2260208801611d19565b90611d35565b611e40828201611e3a60408801611d55565b90611d71565b019201611d91565b90611dcc565b565b90611e5a91611dec565b565b916020611e7d929493611e7660408201965f830190610711565b0190610711565b565b909192611f5d90611eab83611ea4611e9e611e995f611a67565b61026f565b9161026f565b1415611acc565b611ed084611ec9611ec3611ebe5f611a67565b61026f565b9161026f565b1415611b4e565b611ef585611eee611ee8611ee35f611a67565b61026f565b9161026f565b1415611bd0565b611f4c611f0185611c05565b91611f43611f17611f1189611c1d565b92611c35565b611f3a600193611f31611f28611c41565b975f8901611c5a565b60208701611c74565b60408501611c8e565b60608301611c9c565b611f58603384906102f3565b611e50565b611f72611f6982611c1d565b835f1991615067565b9091611f9e7fdaf5c434e6d13840503e8dc5676b76d5cd72efd0ecc7f6bb21af320c5e51ac60926102e7565b92611fb3611faa610252565b92839283611e5c565b0390a2565b90611fc4939291611a32565b565b606090565b67ffffffffffffffff8111611fe35760208091020190565b610a02565b90611ffa611ff583611fcb565b610a3f565b918252565b61200a610180610a3f565b90565b5f90565b606090565b5f90565b5f90565b5f90565b5f90565b61202e611fff565b90602080808080808080808080808d61204561200d565b81520161205061200d565b81520161205b612011565b815201612066612016565b81520161207161201a565b81520161207c61201a565b81520161208761201a565b81520161209261201a565b81520161209d61201e565b8152016120a8612022565b8152016120b3612022565b8152016120be612022565b81525050565b6120cc612026565b90565b5f5b8281106120dd57505050565b6020906120e86120c4565b81840152016120d1565b906121176120ff83611fe8565b9260208061210d8693611fcb565b92019103906120cf565b565b61212d61212861213292611a48565b6102bc565b6104d2565b90565b600161214191016104d2565b90565b9061214e82610768565b81101561215f576020809102010190565b61053b565b9061216e9061026f565b9052565b52565b9061217f906105e6565b9052565b9061218d906104d2565b9052565b9061219b90610818565b9052565b906122c76122bd60086121b0611fff565b946121c76121bf5f8301610cdb565b5f8801612164565b6121df6121d660018301610cdb565b60208801612164565b6121f76121ee60028301610dc8565b60408801612172565b61220f61220660038301610dfe565b60608801612175565b61222761221e60048301610e22565b60808801612183565b61223f61223660058301610e22565b60a08801612183565b61225761224e60068301610e22565b60c08801612183565b61226f61226660078301610e22565b60e08801612183565b61228761227d838301610e49565b6101008801612191565b61229f612295838301610e70565b6101208801611c9c565b6122b76122ad838301610e97565b6101408801611c9c565b01610ebe565b6101608401611c9c565b565b6122d29061219f565b90565b6122dd611fc6565b506122f26122ed60378390610525565b61054f565b906122fc826120f2565b926123065f612119565b5b8061231a612314866104d2565b916104d2565b1015612377576123729061236b61235061234961234361233c60378990610525565b859061055c565b906105a3565b6035610cb1565b8761235b84926122c9565b6123658383612144565b52612144565b5150612135565b612307565b50915050565b9061238f9161238a615113565b612391565b565b906123a49161239f816151c5565b615221565b565b906123b09161237d565b565b5f90565b6123c7906123c261531f565b612415565b90565b90565b6123e16123dc6123e6926123ca565b611cca565b6105e6565b90565b6124127f360894a13ba1a3210667c828492db98dca3e2076cc3735a920a3ca505d382bbc6123cd565b90565b5061241e6123e9565b90565b61243161242c6123b2565b6123b6565b90565b5f90565b612440612434565b5061245a61245461244f6125c0565b61026f565b9161026f565b1490565b91602061247f92949361247860408201965f830190610711565b01906105e9565b565b60101b90565b9061249562ff000091612481565b9181191691161790565b906124b46124af6124bb92611dbd565b611dc9565b8254612487565b9055565b6124c761537d565b6124dd5f6124d760358590610cb1565b01610cdb565b6124ef6124e98361026f565b9161026f565b036125495761250d6001600861250760358690610cb1565b0161249f565b907fdea4b365a5e006e9098e7ff31a184a5b4f07c8e1786764fa483ba6c424af66bb9161254461253b610252565b9283928361245e565b0390a1565b600361255a61256092936035610cb1565b01610dfe565b9061257b5f928392632a96f86960e21b84526004840161245e565b0390fd5b612587612434565b50600190565b61259561500d565b61259d61259f565b565b6125b06125ab5f611a67565b615391565b565b6125ba61258d565b565b5f90565b6125c86125bc565b507f000000000000000000000000000000000000000000000000000000000000000090565b6125f5612026565b90565b61260f612614916126076125ed565b506035610cb1565b6122c9565b90565b5f90565b61262590516104d2565b90565b634e487b7160e01b5f52601160045260245ffd5b61264b612651919392936104d2565b926104d2565b820391821161265c57565b612628565b612669612617565b5061267e61267960358390610cb1565b6122c9565b9061269561268f6101608401611d91565b15610449565b6126f2576126a290614c61565b90816126c16126bb6126b660e0850161261b565b6104d2565b916104d2565b115f146126e2576126d860e06126de93920161261b565b9061263c565b5b90565b50506126ed5f612119565b6126df565b50506126fd5f612119565b90565b6127119061270c615429565b612907565b612719615499565b565b90565b6127286080610a3f565b90565b90612791612788600261273c61271e565b9461275361274b5f830161032d565b5f8801611c5a565b61276b61276260018301610359565b60208801611c74565b612782612779838301610385565b60408801611c8e565b016103b2565b60608401611c9c565b565b61279c9061272b565b90565b6127a8906102db565b90565b61ffff1690565b6127c66127c16127cb92611a48565b6102bc565b6127ab565b90565b6127d75f6127b2565b90565b5f80fd5b60e01b90565b5f9103126127ee57565b61025c565b6127fc906127ab565b9052565b61283561283c9461282b606094989795612821608086019a5f870190610711565b6020850190610fac565b6040830190610711565b01906127f3565b565b612846610252565b3d5f823e3d90fd5b60181b90565b9061286363ff0000009161284e565b9181191691161790565b9061288261287d61288992611dbd565b611dc9565b8254612854565b9055565b906128995f1991611cca565b9181191691161790565b6128b76128b26128bc926104d2565b6102bc565b6104d2565b90565b90565b906128d76128d26128de926128a3565b6128bf565b825461288d565b9055565b6128f16128f7919392936104d2565b926104d2565b820180921161290257565b612628565b61290f61537d565b61292361291e60358490610cb1565b61271b565b9061292f5f8301610cdb565b61294161293b8361026f565b9161026f565b03612b885761295260088301610e97565b612b685761296260088301610ebe565b612b495761299161298b6002612985603361297f60018801610cdb565b906102f3565b016103b2565b15610449565b612b2d576129c66129c15f6129bb6129b660336129b060018901610cdb565b906102f3565b612793565b01611cbd565b6103fe565b9063617ba0376129d860018501610cdb565b6129e460068601610e22565b936129ee3061279f565b6129f66127ce565b823b15612b28575f94612a278692612a1c94612a10610252565b9a8b98899788966127de565b865260048601612800565b03925af1908115612b2357612aa992600692612af7575b50612a4d60016008860161286d565b612a64612a5b838601610e22565b600786016128c2565b612aa1612a72838601610e22565b612a9b612a8c6034612a8660018a01610cdb565b90611604565b91612a9683610e22565b6128e2565b906128c2565b939201610e22565b91612af2612ae0612ada7faa9c5407451212e7e465802e3235b13f46d81d31d8b705dd8bd5b28634861f84936102e7565b93610ca5565b93612ae9610252565b9182918261122d565b0390a3565b612b16905f3d8111612b1c575b612b0e8183610a16565b8101906127e4565b5f612a3e565b503d612b04565b61283e565b6127da565b5f631d3b721560e11b815280612b4560048201610687565b0390fd5b612b64835f9182916374330d1d60e11b8352600483016105f6565b0390fd5b9050612b845f92839263e8279ca160e01b84526004840161245e565b0390fd5b6003612b95919201610dfe565b90612bb05f928392632a96f86960e21b84526004840161245e565b0390fd5b612bbd90612700565b565b612bc76125bc565b50612bda5f612bd46154b6565b01610cdb565b90565b612bee90612be9615429565b6130a4565b612bf6615499565b565b604090612c21612c289496959396612c1760608401985f850190610711565b60208301906105e9565b0190610fac565b565b90505190612c37826104d5565b565b90602082820312612c5257612c4f915f01612c2a565b90565b61025c565b604090612c80612c879496959396612c7660608401985f850190610711565b6020830190610fac565b0190610711565b565b604090612cb2612cb99496959396612ca860608401985f850190610fac565b60208301906105e9565b0190610fac565b565b90612cce905f1990602003600802610584565b8154169055565b1b90565b91906008612cf4910291612cee5f1984612cd5565b92612cd5565b9181191691161790565b9190612d14612d0f612d1c936128a3565b6128bf565b908354612cd9565b9055565b612d3291612d2c612617565b91612cfe565b565b5b818110612d40575050565b80612d4d5f600193612d20565b01612d35565b90612d63905f1990600802610584565b191690565b81612d7291612d53565b906002021790565b905f91612d91612d8982610d26565b928354612d68565b905555565b601f602091010490565b919290602082105f14612df957601f8411600114612dc957612dc3929350612d68565b90555b5b565b5090612def612df4936001612de6612de085610d26565b92612d96565b82019101612d34565b612d7a565b612dc6565b50612e308293612e0a600194610d26565b612e29612e1685612d96565b820192601f861680612e3b575b50612d96565b0190612d34565b600202179055612dc7565b612e4790888603612cbb565b5f612e23565b929091680100000000000000008211612ead576020115f14612e9e57602081105f14612e8257612e7c91612d68565b90555b5b565b60019160ff1916612e9284610d26565b55600202019055612e7f565b60019150600202019055612e80565b610a02565b908154612ebe81610cfc565b90818311612ee7575b818310612ed5575b50505050565b612ede93612da0565b5f808080612ecf565b612ef383838387612e4d565b612ec7565b612f07612f0d919392936104d2565b926104d2565b91612f198382026104d2565b928184041490151715612f2857565b612628565b5f612f3791612eb2565b565b905f03612f4b57612f4990612f2d565b565b611caa565b612f5990610309565b90565b9190612f72612f6d612f7a93610ca5565b612f50565b908354612cd9565b9055565b612f9091612f8a6123b2565b91612f5c565b565b60085f918280820155826001820155612fae8360028301612f39565b612fbb8360038301612f7e565b612fc88360048301612d20565b612fd58360058301612d20565b612fe28360068301612d20565b612fef8360078301612d20565b0155565b905f036130055761300390612f92565b565b611caa565b90565b5490565b5f5260205f2090565b6130238161300d565b82101561303d57613035600191613011565b910201905f90565b61053b565b90565b61305961305461305e92613042565b6102bc565b6104d2565b90565b634e487b7160e01b5f52603160045260245ffd5b61307e8161300d565b801561309f57600190039061309c613096838361301a565b90612f7e565b55565b613061565b6130ac61537d565b906130c16130bc60358390610cb1565b61271b565b6130cc5f8201610cdb565b6130de6130d88561026f565b9161026f565b036135a5576130ec5f612119565b506130f65f612119565b61310260088301610e49565b61311561310f6002610818565b91610818565b14613553575b61312760088301610ebe565b8061352e575b5f1461351d575061315361314e603361314860018501610cdb565b906102f3565b612793565b602061317161316c5f61316587614c61565b9401611cbd565b6103fe565b916369328dec926131aa5f61318860018801610cdb565b93956131b56131963061279f565b61319e610252565b988997889687956127de565b855260048501612c57565b03925af1908115613518575f916134ea575b50806131e66131e06131db60078601610e22565b6104d2565b916104d2565b115f146134dc57613203816131fd60078501610e22565b9061263c565b5b9061324361321460078501610e22565b61323d61322e603461322860018901610cdb565b90611604565b9161323883610e22565b61263c565b906128c2565b5b61325961325360088501610e70565b15610449565b806134b5575b5f14613486576132cb61327c613274836155d9565b92839061263c565b916132a661329461328f60018801610cdb565b611c1d565b61329f5f8801610cdb565b859161552e565b6132ba6132b560018701610cdb565b611c1d565b906132c45f610cdb565b909161552e565b905b84906132e860036132e060018701610cdb565b949501610dfe565b909361333261332061331a7f89eeb38ad2da123e4b3662ad415c1856733f76deaccee072a5234ab427ffdb70956102e7565b956102e7565b95613329610252565b93849384612c89565b0390a361334a5f61334560358490610cb1565b612ff3565b6133695f61336461335d603686906116bb565b84906116d1565b612d20565b61337d61337860378490610525565b61300a565b916133875f612119565b5b806133a361339d6133988761300d565b6104d2565b916104d2565b101561347d576133bd6133b785839061301a565b906105a3565b6133cf6133c9856105e6565b916105e6565b146133e2576133dd90612135565b613388565b9261342b61343092939461342561341e613418856134126134028861300d565b61340c6001613045565b9061263c565b9061301a565b906105a3565b918461301a565b90612f5c565b613075565b5b9061346561345f7f711dc13dc0d55b44aec704a91c510c322588933910cb86d308a195456caa90c5936102e7565b91610ca5565b9161346e610252565b8061347881610687565b0390a3565b50909150613431565b906134b061349e61349960018601610cdb565b611c1d565b6134a95f8601610cdb565b849161552e565b6132cd565b506134c260088401610e49565b6134d56134cf6002610818565b91610818565b141561325f565b6134e55f612119565b613204565b61350b915060203d8111613511575b6135038183610a16565b810190612c39565b5f6131c7565b503d6134f9565b61283e565b61352960068301610e22565b613244565b5061353b60078301610e22565b61354d6135475f612119565b916104d2565b1161312d565b61355f60058301610e22565b61357161356b426104d2565b916104d2565b111561311b57509161358a60056135a192939401610e22565b5f9384936349e2efcf60e11b855260048501612bf8565b0390fd5b6135b26003849201610dfe565b906135cd5f928392632a96f86960e21b84526004840161245e565b0390fd5b6135da90612bdd565b565b6135ed906135e861500d565b613625565b565b906135fb60ff91611cca565b9181191691161790565b9061361a61361561362192611dbd565b611dc9565b82546135ef565b9055565b61363b60016136366001849061193e565b613605565b33907fb255eb80cd9faf1bf370ec9d568e7ddcd76db8329d4665996ac3ff866e93a1a69161367361366a610252565b92839283611e5c565b0390a1565b613681906135dc565b565b60081b90565b9061369661ff0091613683565b9181191691161790565b906136b56136b06136bc92611dbd565b611dc9565b8254613689565b9055565b9160206136e19294936136da60408201965f830190610fac565b01906105e9565b565b906136ec61537d565b6137025f6136fc60358690610cb1565b01610cdb565b61371461370e8361026f565b9161026f565b03613a7057613730600861372a60358690610cb1565b01610e97565b613a505761374b600861374560358690610cb1565b01610e49565b61375e6137586002610818565b91610818565b14613a3057816137766137705f612119565b916104d2565b1115613a115761379061378b60358590610cb1565b61271b565b926137ba6137a86137a360018701610cdb565b611c1d565b836137b23061279f565b908692615652565b6137c660088501610ebe565b6138e5575b61381d906137ef846137e960068801916137e483610e22565b6128e2565b906128c2565b6138176138088592613803603687906116bb565b6116d1565b9161381283610e22565b6128e2565b906128c2565b61382960088401610e49565b61383c6138366001610818565b91610818565b146138a8575b61385b600361385360018601610cdb565b939401610dfe565b61388e6138887fd6b63929f187e155f5af5fadc43fccae09fe211e961616fc2a75a4434c08f95c936102e7565b936102e7565b936138a361389a610252565b928392836136c0565b0390a3565b6138b460058401610e22565b6138c66138c0426104d2565b916104d2565b11156138d2575b613842565b6138e06001600885016136a0565b6138cd565b6139166139115f61390b613906603361390060018b01610cdb565b906102f3565b612793565b01611cbd565b6103fe565b9063617ba03761392860018701610cdb565b85936139333061279f565b61393b6127ce565b823b15613a0c575f9461396c869261396194613955610252565b9a8b98899788966127de565b865260048601612800565b03925af1918215613a075761381d926139db575b506139a18461399b600788019161399683610e22565b6128e2565b906128c2565b6139d4846139ce6139bf60346139b960018b01610cdb565b90611604565b916139c983610e22565b6128e2565b906128c2565b90506137cb565b6139fa905f3d8111613a00575b6139f28183610a16565b8101906127e4565b5f613980565b503d6139e8565b61283e565b6127da565b613a2c825f91829163135ee08960e31b83526004830161122d565b0390fd5b9050613a4c5f928392636b695b3560e11b84526004840161245e565b0390fd5b9050613a6c5f92839263e8279ca160e01b84526004840161245e565b0390fd5b613a866003613a80856035610cb1565b01610dfe565b90613aa15f928392632a96f86960e21b84526004840161245e565b0390fd5b6002613abe613ac492613ab6612434565b5060336102f3565b016103b2565b90565b613ad3613ad891610309565b610398565b90565b613ae59054613ac7565b90565b5f7f4f6e6c7920616c6c6f77656420746f6b656e7300000000000000000000000000910152565b613b1c6013602092610f72565b613b2581613ae8565b0190565b613b3e9060208101905f818303910152613b0f565b90565b15613b4857565b613b50610252565b62461bcd60e51b815280613b6660048201613b29565b0390fd5b90613b939594939291613b8e613b89613b8483600161193e565b613adb565b613b41565b613f72565b565b613ba0610180610a3f565b90565b90929192613bb8613bb38261151c565b610a3f565b93818552602085019082840111613bd457613bd292610a77565b565b6109fe565b613be4913691613ba3565b90565b613bf1905161026f565b90565b90565b90613c0c613c07613c13926102e7565b613bf4565b8254611ccf565b9055565b5190565b9190601f8111613c2b575b505050565b613c37613c5c93610d26565b906020613c4384612d96565b83019310613c64575b613c5590612d96565b0190612d34565b5f8080613c26565b9150613c5581929050613c4c565b90613c7c81610788565b9067ffffffffffffffff8211613d3c57613ca082613c9a8554610cfc565b85613c1b565b602090601f8311600114613cd457918091613cc3935f92613cc8575b5050612d68565b90555b565b90915001515f80613cbc565b601f19831691613ce385610d26565b925f5b818110613d2457509160029391856001969410613d0a575b50505002019055613cc6565b613d1a910151601f841690612d53565b90555f8080613cfe565b91936020600181928787015181550195019201613ce6565b610a02565b90613d4b91613c72565b565b613d5790516105e6565b90565b90613d6f613d6a613d7692610ca5565b612f50565b825461288d565b9055565b613d849051610818565b90565b613d9090610818565b90565b90565b90613dab613da6613db292613d87565b613d93565b82546135ef565b9055565b90613edc6101606008613ee294613dda5f8201613dd45f8801613be7565b90613bf7565b613df360018201613ded60208801613be7565b90613bf7565b613e0c60028201613e0660408801613c17565b90613d41565b613e2560038201613e1f60608801613d4d565b90613d5a565b613e3e60048201613e386080880161261b565b906128c2565b613e5760058201613e5160a0880161261b565b906128c2565b613e7060068201613e6a60c0880161261b565b906128c2565b613e8960078201613e8360e0880161261b565b906128c2565b613ea2828201613e9c6101008801613d7a565b90613d96565b613ebb828201613eb56101208801611d91565b906136a0565b613ed4828201613ece6101408801611d91565b9061249f565b019201611d91565b9061286d565b565b90613eee91613db6565b565b9081549168010000000000000000831015613f205782613f18916001613f1e9501815561301a565b90612f5c565b565b610a02565b90959492613f7094613f5f613f6992613f55608096613f4b60a088019c5f890190610fac565b6020870190610fac565b6040850190610fb9565b6060830190610fac565b01906105e9565b565b929491939093613f8061537d565b85613f93613f8d5f612119565b916104d2565b11156141c65783613fac613fa65f612119565b916104d2565b11156141a757613fba612434565b9683613fce613fc85f610818565b91610818565b1461419d575b429282428990613fe3926156de565b9887613fee90611c1d565b8430613ff99061279f565b8b9161400493615652565b8392889290918b878a8d915f938c95965f985f9a614020613b95565b9c5f8e019061402e91612164565b60208d019061403c91612164565b61404591613bd9565b60408b019061405391612172565b60608a019061406191612175565b608089019061406f91612183565b60a088019061407d91612183565b60c087019061408b91612183565b61409490612119565b60e08601906140a291612183565b6101008501906140b191612191565b6101208401906140c091611c9c565b6101408301906140cf91611c9c565b6101608201906140de91611c9c565b6035886140ea91610cb1565b906140f491613ee4565b60378161410091610525565b6141099061300a565b8761411391613ef0565b85603682614120916116bb565b8861412a916116d1565b9061413482610e22565b9061413e916128e2565b614147916128c2565b9394909192957f417266f289a6e1d10da5454582310c213d5523d8d7a073673f57dbaba1818eaa94614178906102e7565b95614182906102e7565b9661418b610252565b9485946141989486613f25565b0390a3565b9650600196613fd4565b6141c2845f91829163745b0e9360e11b83526004830161122d565b0390fd5b6141e1865f91829163135ee08960e31b83526004830161122d565b0390fd5b906141f39594939291613b6a565b565b6142069061420161500d565b61454a565b565b67ffffffffffffffff81116142205760208091020190565b610a02565b9061423761423283614208565b610a3f565b918252565b369037565b9061426661424e83614225565b9260208061425c8693614208565b920191039061423c565b565b5190565b9061427682614268565b811015614287576020809102010190565b61053b565b905051906142998261027b565b565b909291926142b06142ab82614208565b610a3f565b93818552602080860192028301928184116142ed57915b8383106142d45750505050565b602080916142e2848661428c565b8152019201916142c7565b6113df565b9080601f830112156143105781602061430d9351910161429b565b90565b6109fa565b67ffffffffffffffff811161432d5760208091020190565b610a02565b9092919261434761434282614315565b610a3f565b938185526020808601920283019281841161438457915b83831061436b5750505050565b602080916143798486612c2a565b81520192019161435e565b6113df565b9080601f830112156143a7578160206143a493519101614332565b90565b6109fa565b919091604081840312614404575f81015167ffffffffffffffff81116143ff57836143d89183016142f2565b92602082015167ffffffffffffffff81116143fa576143f79201614389565b90565b610260565b610260565b61025c565b60209181520190565b60200190565b906144258160209361077b565b0190565b60200190565b9061444c61444661443f84614268565b8093614409565b92614412565b905f5b81811061445c5750505090565b90919261447561446f6001928651614418565b94614429565b910191909161444f565b9291602061449b6144a39360408701908782035f89015261442f565b940190610711565b565b5190565b60209181520190565b60200190565b906144c5816020936107e8565b0190565b60200190565b906144ec6144e66144df846144a5565b80936144a9565b926144b2565b905f5b8181106144fc5750505090565b90919261451561450f60019286516144b8565b946144c9565b91019190916144ef565b90916145396145479360408401908482035f86015261442f565b9160208184039101526144cf565b90565b61456561456061455861537d565b926035610cb1565b61271b565b6145705f8201610cdb565b61458261457c8461026f565b9161026f565b036146e85761459c61459660088301610ebe565b15610449565b6146cc576145bb6145c0916145b5600160339201610cdb565b906102f3565b612793565b5f61461661461160406145db6145d66001613045565b614241565b9461460b6145f36145ee60208401611d19565b610417565b6146068861460089612119565b9061426c565b612164565b01611d55565b610430565b63bb492bf5929061463a83869561464561462e610252565b978896879586946127de565b84526004840161447f565b03925af180156146c7575f809290916146a2575b50909190916146887f97af491e16ff48b08c651690e54f892a906c49d59a5b44f150731d20614d514e926102e7565b9261469d614694610252565b9283928361451f565b0390a2565b90506146c091503d805f833e6146b88183610a16565b8101906143ac565b905f614659565b61283e565b5f631d3b721560e11b8152806146e460048201610687565b0390fd5b6146f56003839201610dfe565b906147105f928392632a96f86960e21b84526004840161245e565b0390fd5b61471d906141f5565b565b60401c90565b6147316147369161471f565b610398565b90565b6147439054614725565b90565b67ffffffffffffffff1690565b61475f61476491610309565b614746565b90565b6147719054614753565b90565b67ffffffffffffffff1690565b61479561479061479a92611a48565b6102bc565b614774565b90565b6147b16147ac6147b692613042565b6102bc565b614774565b90565b6147c2906102db565b90565b906147d867ffffffffffffffff91611cca565b9181191691161790565b6147f66147f16147fb92614774565b6102bc565b614774565b90565b90565b9061481661481161481d926147e2565b6147fe565b82546147c5565b9055565b60401b90565b9061483b68ff000000000000000091614821565b9181191691161790565b9061485a61485561486192611dbd565b611dc9565b8254614827565b9055565b61486e9061479d565b9052565b9190614885905f60208501940190614865565b565b61488f61572a565b906148a461489e5f8401614739565b15610449565b906148b05f8401614767565b806148c36148bd5f614781565b91614774565b14806149dd575b906148de6148d8600161479d565b91614774565b14806149b5575b6148f0909115610449565b90816149a4575b50614988576149209061491561490d600161479d565b5f8601614801565b82614976575b6149e4565b614928575b50565b614935905f809101614845565b600161496d7fc7f505b2f371ae2175ee4913f4499e1f2633a7b5936321eed1cdaeb6115181d291614964610252565b91829182614872565b0390a15f614925565b61498360015f8601614845565b61491b565b5f63f92ee8a960e01b8152806149a060048201610687565b0390fd5b6149af915015610449565b5f6148f7565b506148f06149c2306147b9565b3b6149d56149cf5f612119565b916104d2565b1490506148e5565b50826148ca565b6149f5906149f0615751565b61578f565b565b614a0090614887565b565b614a0a6125bc565b50614a136125c0565b90565b606090565b67ffffffffffffffff8111614a335760208091020190565b610a02565b90614a4a614a4583614a1b565b610a3f565b918252565b614a596060610a3f565b90565b614a64614a4f565b906020808084614a7261200d565b815201614a7d61201a565b815201614a8861201a565b81525050565b614a96614a5c565b90565b5f5b828110614aa757505050565b602090614ab2614a8e565b8184015201614a9b565b90614ae1614ac983614a38565b92602080614ad78693614a1b565b9201910390614a99565b565b614aed6060610a3f565b90565b90614afa826117a6565b811015614b0b576020809102010190565b61053b565b614b18614a16565b50614b2d614b2860378390610525565b61054f565b90614b3782614abc565b92614b415f612119565b5b80614b55614b4f866104d2565b916104d2565b1015614c2557614c1090614c09614b81614b7b614b7460378890610525565b849061055c565b906105a3565b614bf6614b98614b9360358490610cb1565b61271b565b91614ba25f612119565b90614baf60088501610ebe565b614c15575b50614bed614bd06006614bc960018701610cdb565b9501610e22565b614be4614bdb614ae3565b955f8701612164565b60208501612183565b60408301612183565b878391614c038383614af0565b52614af0565b5150612135565b614b42565b614c1f9150614c61565b5f614bb4565b50915050565b634e487b7160e01b5f52601260045260245ffd5b614c4b614c51916104d2565b916104d2565b908115614c5c570490565b614c2b565b614c78614c7d91614c70612617565b506035610cb1565b6122c9565b614c93614c8d6101608301611d91565b15610449565b8015614dc1575b614db457614d056020614cd3614cce82614cc8614cc36033614cbd848a01613be7565b906102f3565b612793565b01611d19565b610417565b6370a0823190614cfa614ce53061279f565b92614cee610252565b958694859384936127de565b83526004830161071e565b03915afa908115614daf575f91614d81575b50614d37614d326034614d2c60208601613be7565b90611604565b610e22565b9081614d4b614d455f612119565b916104d2565b14614d7257614d6f92614d6460e0614d6a93920161261b565b90612ef8565b614c3f565b90565b505050614d7e5f612119565b90565b614da2915060203d8111614da8575b614d9a8183610a16565b810190612c39565b5f614d17565b503d614d90565b61283e565b50614dbe5f612119565b90565b50614dce60e0820161261b565b614de0614dda5f612119565b916104d2565b14614c9a565b614df790614df261500d565b614df9565b565b80614e14614e0e614e095f611a67565b61026f565b9161026f565b14614e2457614e2290615391565b565b614e47614e305f611a67565b5f918291631e4fbdf760e01b83526004830161071e565b0390fd5b614e5490614de6565b565b614e6790614e6261500d565b614e69565b565b614e725f610cdb565b614e7c825f613bf7565b903390614ebb614eb5614eaf7fccedfbc095a2ce404e74d81d857b3784d947e43dfb011de63698049fed93dbbf956102e7565b926102e7565b926102e7565b92614ec4610252565b80614ece81610687565b0390a4565b614edc90614e56565b565b614ee661537d565b614efc5f614ef660358590610cb1565b01610cdb565b614f0e614f088361026f565b9161026f565b03614f6757614f2b5f6008614f2560358690610cb1565b0161249f565b907fe4f3621c9f6ff4dcd632312c8be74a570b563c2f5d9b123775022d051ddcd78891614f62614f59610252565b9283928361245e565b0390a1565b6003614f78614f7e92936035610cb1565b01610dfe565b90614f995f928392632a96f86960e21b84526004840161245e565b0390fd5b614fae90614fa961500d565b614fb0565b565b614fc55f614fc06001849061193e565b613605565b33907fb255eb80cd9faf1bf370ec9d568e7ddcd76db8329d4665996ac3ff866e93a1a691614ffd614ff4610252565b92839283611e5c565b0390a1565b61500b90614f9d565b565b615015612bbf565b61502e61502861502361537d565b61026f565b9161026f565b0361503557565b61505761504061537d565b5f91829163118cdaa760e01b83526004830161071e565b0390fd5b615064906102db565b90565b61507081610417565b602063dd62ed3e916150813061505b565b9061509e86946150a9615092610252565b968795869485946127de565b845260048401611e5c565b03915afa938415615102576150d2946150cc925f916150d4575b509293926128e2565b916157ca565b565b6150f5915060203d81116150fb575b6150ed8183610a16565b810190612c39565b5f6150c3565b503d6150e3565b61283e565b615110906102db565b90565b61511c30615107565b61514e6151487f000000000000000000000000000000000000000000000000000000000000000061026f565b9161026f565b148015615178575b61515c57565b5f63703e46dd60e11b81528061517460048201610687565b0390fd5b50615181615886565b6151b36151ad7f000000000000000000000000000000000000000000000000000000000000000061026f565b9161026f565b1415615156565b506151c361500d565b565b6151ce906151ba565b565b6151d9906102bf565b90565b6151e5906151d0565b90565b6151f1906102db565b90565b9050519061520182610bc9565b565b9060208282031261521c57615219915f016151f4565b90565b61025c565b919061524f6020615239615234866151dc565b6151e8565b6352d1902d90615247610252565b9384926127de565b8252818061525f60048201610687565b03915afa80915f926152ef575b50155f146152a057505090600161528157505b565b61529c905f918291634c9c8ce360e01b83526004830161071e565b0390fd5b92836152bb6152b56152b06123e9565b6105e6565b916105e6565b036152d0576152cb9293506158ac565b61527f565b6152eb845f918291632a87526960e21b8352600483016105f6565b0390fd5b61531191925060203d8111615318575b6153098183610a16565b810190615203565b905f61526c565b503d6152ff565b61532830615107565b61535a6153547f000000000000000000000000000000000000000000000000000000000000000061026f565b9161026f565b0361536157565b5f63703e46dd60e11b81528061537960048201610687565b0390fd5b6153856125bc565b5061538e6159f4565b90565b6153996154b6565b6153b16153a75f8301610cdb565b915f849101613bf7565b906153e56153df7f8be0079c531659141344cd1fd0a4f28419497f9722a3daafe3b4186f6b6457e0936102e7565b916102e7565b916153ee610252565b806153f881610687565b0390a3565b90565b61541461540f615419926153fd565b6102bc565b6104d2565b90565b6154266002615400565b90565b615431615a7a565b61543c5f8201610e22565b61545561544f61544a61541c565b6104d2565b916104d2565b146154705761546e905f61546761541c565b91016128c2565b565b5f633ee5aeb560e01b81528061548860048201610687565b0390fd5b6154966001613045565b90565b6154b46154a4615a7a565b5f6154ad61548c565b91016128c2565b565b7f9016d09d72d40fdae2fd8ceac6b6234c7706214fd39c1cd1e609a0528c19930090565b63ffffffff1690565b63ffffffff60e01b1690565b6155036154fe615508926154da565b6127de565b6154e3565b90565b91602061552c92949361552560408201965f830190610711565b0190610fac565b565b9061557561557a936155666004949361554d63a9059cbb9193916154ef565b92615556610252565b968794602086019081520161550b565b60208201810382520383610a16565b615a9e565b565b90565b61559361558e6155989261557c565b6102bc565b6104d2565b90565b90565b6155b26155ad6155b79261559b565b6102bc565b6104d2565b90565b90565b6155d16155cc6155d6926155ba565b6102bc565b6104d2565b90565b61560c6155fc61561d926155eb612617565b506155f6600361557f565b90612ef8565b615606606461559e565b90612ef8565b6156176127106155bd565b90614c3f565b90565b604090615649615650949695939661563f60608401985f850190610711565b6020830190610711565b0190610fac565b565b60049261568c6156a0959361569b93946156736323b872dd929491926154ef565b9361567c610252565b9788956020870190815201615620565b60208201810382520383610a16565b615a9e565b565b6040906156cb6156d294969593966156c160608401985f850190610711565b6020830190610fac565b0190610fac565b565b60200190565b5190565b90615705615714926156ee6123b2565b5091936156f9610252565b948593602085016156a2565b60208201810382520382610a16565b615726615720826156da565b916156d4565b2090565b615732615b9d565b90565b61573d615bb1565b615745615747565b565b61574f615c13565b565b615759615735565b565b61576c90615767615bb1565b61576e565b565b61578d9061577b33615c3b565b615788600191600161193e565b613605565b565b6157989061575b565b565b6157a390612119565b9052565b9160206157c89294936157c160408201965f830190610711565b019061579a565b565b909161580d6004916157fe63095ea7b36157e58793916154ef565b926157ee610252565b958694602086019081520161550b565b60208201810382520382610a16565b9061582261581c828490615c46565b15610449565b61582c575b505050565b615879600461587e94615874849161586563095ea7b361584c5f916154ef565b92615855610252565b96879460208601908152016157a7565b60208201810382520383610a16565b615a9e565b615a9e565b5f8080615827565b61588e6125bc565b506158a95f6158a361589e6123e9565b615ce8565b01610cdb565b90565b906158b682615ceb565b816158e17fbc7cd75a20ee27fd9adebab32041f755214dbc6bffa90cc0225b39da2e5c2d3b916102e7565b906158ea610252565b806158f481610687565b0390a2615900816156da565b61591261590c5f612119565b916104d2565b115f146159265761592291615dbb565b505b565b5050615930615d40565b615924565b5090565b9061594491036104d2565b90565b5f80fd5b5f80fd5b9093929384831161596f57841161596a576001820201920390565b61594b565b615947565b6bffffffffffffffffffffffff191690565b9061599461599b9183615935565b9135615974565b90601481106159a9575b5090565b6159c7906bffffffffffffffffffffffff1990601403600802612cd5565b165f6159a5565b60601c90565b6159e06159e5916159ce565b6102bf565b90565b6159f1906159d4565b90565b6159fc6125bc565b50615a085f3690615935565b615a10615dea565b81615a23615a1d836104d2565b916104d2565b101580615a6b575b5f14615a5e57615a50615a5691615a5b93615a485f923692615939565b90809261594f565b90615986565b6159e8565b90565b5050615a68615dfe565b90565b50615a7533612438565b615a2b565b7f9b779b17422d0df92223018b32b4d1fa46e071723d6817e2486d003becc55f0090565b905f602091615aab612617565b50615ab4612617565b50828151910182855af115615b47573d5f5190615ad9615ad35f612119565b916104d2565b145f14615b2d5750615aea81610417565b3b615afd615af75f612119565b916104d2565b145b615b065750565b615b12615b2991610417565b5f918291635274afe760e01b83526004830161071e565b0390fd5b615b40615b3a6001613045565b916104d2565b1415615aff565b6040513d5f823e3d90fd5b90565b615b69615b64615b6e92615b52565b611cca565b6105e6565b90565b615b9a7ff0c57e16840df040f15088dc2f81fe391c3923bec73e23a9662efc9c229c6a00615b55565b90565b615ba56123b2565b50615bae615b71565b90565b615bc2615bbc615e0b565b15610449565b615bc857565b5f631afcd79f60e31b815280615be060048201610687565b0390fd5b615bec615bb1565b615bf4615bf6565b565b615c11615c01615a7a565b5f615c0a61548c565b91016128c2565b565b615c1b615be4565b565b615c2e90615c29615bb1565b615c30565b565b615c3990615e8e565b565b615c4490615c1d565b565b905f602091615c53612434565b50615c5c612434565b50615c65612617565b50615c6e612617565b50828151910182855af13d915f51919283615c8a575b50505090565b90919250615ca0615c9a5f612119565b916104d2565b145f14615cce57615cb19150610417565b3b615cc4615cbe5f612119565b916104d2565b115b5f8080615c84565b50615ce2615cdc6001613045565b916104d2565b14615cc6565b90565b803b615cff615cf95f612119565b916104d2565b14615d2157615d1f905f615d19615d146123e9565b615ce8565b01613bf7565b565b615d3c905f918291634c9c8ce360e01b83526004830161071e565b0390fd5b34615d53615d4d5f612119565b916104d2565b11615d5a57565b5f63b398979f60e01b815280615d7260048201610687565b0390fd5b606090565b90615d8d615d8883610a54565b610a3f565b918252565b3d5f14615dad57615da23d615d7b565b903d5f602084013e5b565b615db5615d76565b90615dab565b5f80615de793615dc9615d76565b508390602081019051915af490615dde615d92565b90919091615e99565b90565b615df2612617565b50615dfb615f3c565b90565b615e066125bc565b503390565b615e13612434565b50615e265f615e2061572a565b01614739565b90565b615e3a90615e35615bb1565b615e3c565b565b80615e57615e51615e4c5f611a67565b61026f565b9161026f565b14615e6757615e6590615391565b565b615e8a615e735f611a67565b5f918291631e4fbdf760e01b83526004830161071e565b0390fd5b615e9790615e29565b565b90615ead90615ea6615d76565b5015610449565b5f14615eb95750615f52565b615ec2826156da565b615ed4615ece5f612119565b916104d2565b1480615f02575b615ee3575090565b615efe905f918291639996b31560e01b83526004830161071e565b0390fd5b50803b615f17615f115f612119565b916104d2565b14615edb565b90565b615f34615f2f615f3992615f1d565b6102bc565b6104d2565b90565b615f44612617565b50615f4f6014615f20565b90565b615f5b816156da565b615f6d615f675f612119565b916104d2565b115f14615f7c57805190602001fd5b5f63d6bda27560e01b815280615f9460048201610687565b0390fdfea26469706673582212201664ca8ae4f5916d08ebd9730375c9d22158a6fffb6236123dd2ccabf06d4abc64736f6c634300081e0033","linkReferences":{}},"methodIdentifiers":{"UPGRADE_INTERFACE_VERSION()":"ad3cb1cc","aaveConfigs(address)":"0668a9a1","chainCoopFees()":"1c1e5546","claimAaveRewards(bytes32)":"ad3afda2","configureAave(address,address,address,address)":"127fc537","enableAaveForPool(bytes32)":"8d9328aa","getPoolAaveBalance(bytes32)":"f062291e","getPoolYield(bytes32)":"8be12cb5","getSavingPoolByIndex(bytes32)":"8146fd9e","getSavingPoolBySaver(address)":"3759c8a5","getTrustedForwarder()":"ce1b815f","getUserContributions(address)":"e36465a3","initialize(address)":"c4d66de8","isAaveConfigured(address)":"a7cb8ba9","isTokenAllowed(address)":"f9eaee0d","isTrustedForwarder(address)":"572b6c05","openSavingPool(address,uint256,string,uint8,uint256)":"a9a95ddd","owner()":"8da5cb5b","poolSavingPool(bytes32)":"7784fc1a","proxiableUUID()":"52d1902d","removeAllowedTokens(address)":"fec71f27","renounceOwnership()":"715018a6","restartSaving(bytes32)":"fd3b15a0","setAllowedTokens(address)":"906d8f79","setChainCoopAddress(address)":"f87e3d63","stopSaving(bytes32)":"5fbc3c8d","supportsMetaTransactions()":"6851af09","totalAaveDeposits(address)":"bf17ec2b","transferOwnership(address)":"f2fde38b","trustedForwarder()":"7da0a877","updateSaving(bytes32,uint256)":"9c339d64","upgradeToAndCall(address,bytes)":"4f1ef286","userContributedPools(address,uint256)":"0a090967","userPoolBalance(address,bytes32)":"c0fd05a1","withdraw(bytes32)":"8e19899e"},"storageLayout":{"storage":[{"astId":51444,"contract":"src/ChainCoopSavingv2.sol:ChainCoopSaving","label":"chainCoopFees","offset":0,"slot":"0","type":"t_address"},{"astId":51468,"contract":"src/ChainCoopSavingv2.sol:ChainCoopSaving","label":"isTokenAllowed","offset":0,"slot":"1","type":"t_mapping(t_address,t_bool)"},{"astId":51575,"contract":"src/ChainCoopSavingv2.sol:ChainCoopSaving","label":"__gap","offset":0,"slot":"2","type":"t_array(t_uint256)49_storage"},{"astId":53136,"contract":"src/ChainCoopSavingv2.sol:ChainCoopSaving","label":"aaveConfigs","offset":0,"slot":"51","type":"t_mapping(t_address,t_struct(AaveConfig)54668_storage)"},{"astId":53140,"contract":"src/ChainCoopSavingv2.sol:ChainCoopSaving","label":"totalAaveDeposits","offset":0,"slot":"52","type":"t_mapping(t_address,t_uint256)"},{"astId":53148,"contract":"src/ChainCoopSavingv2.sol:ChainCoopSaving","label":"poolSavingPool","offset":0,"slot":"53","type":"t_mapping(t_bytes32,t_struct(SavingPool)54649_storage)"},{"astId":53154,"contract":"src/ChainCoopSavingv2.sol:ChainCoopSaving","label":"userPoolBalance","offset":0,"slot":"54","type":"t_mapping(t_address,t_mapping(t_bytes32,t_uint256))"},{"astId":53159,"contract":"src/ChainCoopSavingv2.sol:ChainCoopSaving","label":"userContributedPools","offset":0,"slot":"55","type":"t_mapping(t_address,t_array(t_bytes32)dyn_storage)"},{"astId":54445,"contract":"src/ChainCoopSavingv2.sol:ChainCoopSaving","label":"__gap","offset":0,"slot":"56","type":"t_array(t_uint256)45_storage"}],"types":{"t_address":{"encoding":"inplace","label":"address","numberOfBytes":"20"},"t_array(t_bytes32)dyn_storage":{"encoding":"dynamic_array","label":"bytes32[]","numberOfBytes":"32","base":"t_bytes32"},"t_array(t_uint256)45_storage":{"encoding":"inplace","label":"uint256[45]","numberOfBytes":"1440","base":"t_uint256"},"t_array(t_uint256)49_storage":{"encoding":"inplace","label":"uint256[49]","numberOfBytes":"1568","base":"t_uint256"},"t_bool":{"encoding":"inplace","label":"bool","numberOfBytes":"1"},"t_bytes32":{"encoding":"inplace","label":"bytes32","numberOfBytes":"32"},"t_contract(IERC20)41625":{"encoding":"inplace","label":"contract IERC20","numberOfBytes":"20"},"t_contract(IPool)849":{"encoding":"inplace","label":"contract IPool","numberOfBytes":"20"},"t_contract(IRewardsController)1669":{"encoding":"inplace","label":"contract IRewardsController","numberOfBytes":"20"},"t_enum(LockingType)54623":{"encoding":"inplace","label":"enum IChainCoopSaving.LockingType","numberOfBytes":"1"},"t_mapping(t_address,t_array(t_bytes32)dyn_storage)":{"encoding":"mapping","key":"t_address","label":"mapping(address => bytes32[])","numberOfBytes":"32","value":"t_array(t_bytes32)dyn_storage"},"t_mapping(t_address,t_bool)":{"encoding":"mapping","key":"t_address","label":"mapping(address => bool)","numberOfBytes":"32","value":"t_bool"},"t_mapping(t_address,t_mapping(t_bytes32,t_uint256))":{"encoding":"mapping","key":"t_address","label":"mapping(address => mapping(bytes32 => uint256))","numberOfBytes":"32","value":"t_mapping(t_bytes32,t_uint256)"},"t_mapping(t_address,t_struct(AaveConfig)54668_storage)":{"encoding":"mapping","key":"t_address","label":"mapping(address => struct IChainCoopSaving.AaveConfig)","numberOfBytes":"32","value":"t_struct(AaveConfig)54668_storage"},"t_mapping(t_address,t_uint256)":{"encoding":"mapping","key":"t_address","label":"mapping(address => uint256)","numberOfBytes":"32","value":"t_uint256"},"t_mapping(t_bytes32,t_struct(SavingPool)54649_storage)":{"encoding":"mapping","key":"t_bytes32","label":"mapping(bytes32 => struct IChainCoopSaving.SavingPool)","numberOfBytes":"32","value":"t_struct(SavingPool)54649_storage"},"t_mapping(t_bytes32,t_uint256)":{"encoding":"mapping","key":"t_bytes32","label":"mapping(bytes32 => uint256)","numberOfBytes":"32","value":"t_uint256"},"t_string_storage":{"encoding":"bytes","label":"string","numberOfBytes":"32"},"t_struct(AaveConfig)54668_storage":{"encoding":"inplace","label":"struct IChainCoopSaving.AaveConfig","numberOfBytes":"96","members":[{"astId":54659,"contract":"src/ChainCoopSavingv2.sol:ChainCoopSaving","label":"pool","offset":0,"slot":"0","type":"t_contract(IPool)849"},{"astId":54662,"contract":"src/ChainCoopSavingv2.sol:ChainCoopSaving","label":"aToken","offset":0,"slot":"1","type":"t_contract(IERC20)41625"},{"astId":54665,"contract":"src/ChainCoopSavingv2.sol:ChainCoopSaving","label":"rewardsController","offset":0,"slot":"2","type":"t_contract(IRewardsController)1669"},{"astId":54667,"contract":"src/ChainCoopSavingv2.sol:ChainCoopSaving","label":"isConfigured","offset":20,"slot":"2","type":"t_bool"}]},"t_struct(SavingPool)54649_storage":{"encoding":"inplace","label":"struct IChainCoopSaving.SavingPool","numberOfBytes":"288","members":[{"astId":54625,"contract":"src/ChainCoopSavingv2.sol:ChainCoopSaving","label":"saver","offset":0,"slot":"0","type":"t_address"},{"astId":54627,"contract":"src/ChainCoopSavingv2.sol:ChainCoopSaving","label":"tokenToSaveWith","offset":0,"slot":"1","type":"t_address"},{"astId":54629,"contract":"src/ChainCoopSavingv2.sol:ChainCoopSaving","label":"Reason","offset":0,"slot":"2","type":"t_string_storage"},{"astId":54631,"contract":"src/ChainCoopSavingv2.sol:ChainCoopSaving","label":"poolIndex","offset":0,"slot":"3","type":"t_bytes32"},{"astId":54633,"contract":"src/ChainCoopSavingv2.sol:ChainCoopSaving","label":"startDate","offset":0,"slot":"4","type":"t_uint256"},{"astId":54635,"contract":"src/ChainCoopSavingv2.sol:ChainCoopSaving","label":"Duration","offset":0,"slot":"5","type":"t_uint256"},{"astId":54637,"contract":"src/ChainCoopSavingv2.sol:ChainCoopSaving","label":"amountSaved","offset":0,"slot":"6","type":"t_uint256"},{"astId":54639,"contract":"src/ChainCoopSavingv2.sol:ChainCoopSaving","label":"aaveDepositAmount","offset":0,"slot":"7","type":"t_uint256"},{"astId":54642,"contract":"src/ChainCoopSavingv2.sol:ChainCoopSaving","label":"locktype","offset":0,"slot":"8","type":"t_enum(LockingType)54623"},{"astId":54644,"contract":"src/ChainCoopSavingv2.sol:ChainCoopSaving","label":"isGoalAccomplished","offset":1,"slot":"8","type":"t_bool"},{"astId":54646,"contract":"src/ChainCoopSavingv2.sol:ChainCoopSaving","label":"isStoped","offset":2,"slot":"8","type":"t_bool"},{"astId":54648,"contract":"src/ChainCoopSavingv2.sol:ChainCoopSaving","label":"aaveEnabled","offset":3,"slot":"8","type":"t_bool"}]},"t_uint256":{"encoding":"inplace","label":"uint256","numberOfBytes":"32"}}},"id":79}