{"abi":[{"type":"constructor","inputs":[{"name":"_tokenAddress","type":"address","internalType":"address"}],"stateMutability":"nonpayable"},{"type":"function","name":"chainCoopFees","inputs":[],"outputs":[{"name":"","type":"address","internalType":"address"}],"stateMutability":"view"},{"type":"function","name":"getSavingPoolByIndex","inputs":[{"name":"_index","type":"bytes32","internalType":"bytes32"}],"outputs":[{"name":"","type":"tuple","internalType":"struct IChainCoopSaving.SavingPool","components":[{"name":"saver","type":"address","internalType":"address"},{"name":"tokenToSaveWith","type":"address","internalType":"address"},{"name":"Reason","type":"string","internalType":"string"},{"name":"poolIndex","type":"bytes32","internalType":"bytes32"},{"name":"startDate","type":"uint256","internalType":"uint256"},{"name":"Duration","type":"uint256","internalType":"uint256"},{"name":"amountSaved","type":"uint256","internalType":"uint256"},{"name":"locktype","type":"uint8","internalType":"enum IChainCoopSaving.LockingType"},{"name":"isGoalAccomplished","type":"bool","internalType":"bool"},{"name":"isStoped","type":"bool","internalType":"bool"}]}],"stateMutability":"view"},{"type":"function","name":"getSavingPoolBySaver","inputs":[{"name":"_saver","type":"address","internalType":"address"}],"outputs":[{"name":"pools","type":"tuple[]","internalType":"struct IChainCoopSaving.SavingPool[]","components":[{"name":"saver","type":"address","internalType":"address"},{"name":"tokenToSaveWith","type":"address","internalType":"address"},{"name":"Reason","type":"string","internalType":"string"},{"name":"poolIndex","type":"bytes32","internalType":"bytes32"},{"name":"startDate","type":"uint256","internalType":"uint256"},{"name":"Duration","type":"uint256","internalType":"uint256"},{"name":"amountSaved","type":"uint256","internalType":"uint256"},{"name":"locktype","type":"uint8","internalType":"enum IChainCoopSaving.LockingType"},{"name":"isGoalAccomplished","type":"bool","internalType":"bool"},{"name":"isStoped","type":"bool","internalType":"bool"}]}],"stateMutability":"view"},{"type":"function","name":"getSavingPoolCount","inputs":[],"outputs":[{"name":"","type":"uint256","internalType":"uint256"}],"stateMutability":"view"},{"type":"function","name":"getUserContributions","inputs":[{"name":"_saver","type":"address","internalType":"address"}],"outputs":[{"name":"contributions","type":"tuple[]","internalType":"struct ChainCoopSaving.Contribution[]","components":[{"name":"tokenAddress","type":"address","internalType":"address"},{"name":"amount","type":"uint256","internalType":"uint256"}]}],"stateMutability":"view"},{"type":"function","name":"isTokenAllowed","inputs":[{"name":"","type":"address","internalType":"address"}],"outputs":[{"name":"","type":"bool","internalType":"bool"}],"stateMutability":"view"},{"type":"function","name":"openSavingPool","inputs":[{"name":"_tokenTosaveWith","type":"address","internalType":"address"},{"name":"_savedAmount","type":"uint256","internalType":"uint256"},{"name":"_reason","type":"string","internalType":"string"},{"name":"_locktype","type":"uint8","internalType":"enum IChainCoopSaving.LockingType"},{"name":"_duration","type":"uint256","internalType":"uint256"}],"outputs":[],"stateMutability":"nonpayable"},{"type":"function","name":"owner","inputs":[],"outputs":[{"name":"","type":"address","internalType":"address"}],"stateMutability":"view"},{"type":"function","name":"poolCount","inputs":[],"outputs":[{"name":"","type":"uint256","internalType":"uint256"}],"stateMutability":"view"},{"type":"function","name":"poolSavingPool","inputs":[{"name":"","type":"bytes32","internalType":"bytes32"}],"outputs":[{"name":"saver","type":"address","internalType":"address"},{"name":"tokenToSaveWith","type":"address","internalType":"address"},{"name":"Reason","type":"string","internalType":"string"},{"name":"poolIndex","type":"bytes32","internalType":"bytes32"},{"name":"startDate","type":"uint256","internalType":"uint256"},{"name":"Duration","type":"uint256","internalType":"uint256"},{"name":"amountSaved","type":"uint256","internalType":"uint256"},{"name":"locktype","type":"uint8","internalType":"enum IChainCoopSaving.LockingType"},{"name":"isGoalAccomplished","type":"bool","internalType":"bool"},{"name":"isStoped","type":"bool","internalType":"bool"}],"stateMutability":"view"},{"type":"function","name":"removeAllowedTokens","inputs":[{"name":"_tokenAddress","type":"address","internalType":"address"}],"outputs":[],"stateMutability":"nonpayable"},{"type":"function","name":"restartSaving","inputs":[{"name":"_poolId","type":"bytes32","internalType":"bytes32"}],"outputs":[],"stateMutability":"nonpayable"},{"type":"function","name":"setAllowedTokens","inputs":[{"name":"_tokenAddress","type":"address","internalType":"address"}],"outputs":[],"stateMutability":"nonpayable"},{"type":"function","name":"setChainCoopAddress","inputs":[{"name":"_chaincoopfees","type":"address","internalType":"address"}],"outputs":[],"stateMutability":"nonpayable"},{"type":"function","name":"stopSaving","inputs":[{"name":"_poolId","type":"bytes32","internalType":"bytes32"}],"outputs":[],"stateMutability":"nonpayable"},{"type":"function","name":"transferOwnership","inputs":[{"name":"newOwner","type":"address","internalType":"address"}],"outputs":[],"stateMutability":"nonpayable"},{"type":"function","name":"updateSaving","inputs":[{"name":"_poolId","type":"bytes32","internalType":"bytes32"},{"name":"_amount","type":"uint256","internalType":"uint256"}],"outputs":[],"stateMutability":"nonpayable"},{"type":"function","name":"userContributedPools","inputs":[{"name":"","type":"address","internalType":"address"},{"name":"","type":"uint256","internalType":"uint256"}],"outputs":[{"name":"","type":"bytes32","internalType":"bytes32"}],"stateMutability":"view"},{"type":"function","name":"userPoolBalance","inputs":[{"name":"","type":"address","internalType":"address"},{"name":"","type":"bytes32","internalType":"bytes32"}],"outputs":[{"name":"","type":"uint256","internalType":"uint256"}],"stateMutability":"view"},{"type":"function","name":"userSavingPool","inputs":[{"name":"_poolIndex","type":"uint256","internalType":"uint256"}],"outputs":[{"name":"saver","type":"address","internalType":"address"},{"name":"tokenToSaveWith","type":"address","internalType":"address"},{"name":"Reason","type":"string","internalType":"string"},{"name":"poolIndex","type":"bytes32","internalType":"bytes32"},{"name":"startDate","type":"uint256","internalType":"uint256"},{"name":"Duration","type":"uint256","internalType":"uint256"},{"name":"amountSaved","type":"uint256","internalType":"uint256"},{"name":"locktype","type":"uint8","internalType":"enum IChainCoopSaving.LockingType"},{"name":"isGoalAccomplished","type":"bool","internalType":"bool"},{"name":"isStoped","type":"bool","internalType":"bool"}],"stateMutability":"view"},{"type":"function","name":"withdraw","inputs":[{"name":"_poolId","type":"bytes32","internalType":"bytes32"}],"outputs":[],"stateMutability":"nonpayable"},{"type":"event","name":"AdminChanged","inputs":[{"name":"previousAdmin","type":"address","indexed":false,"internalType":"address"},{"name":"newAdmin","type":"address","indexed":false,"internalType":"address"}],"anonymous":false},{"type":"event","name":"AllowToken","inputs":[{"name":"_updator","type":"address","indexed":false,"internalType":"address"},{"name":"_allowedToken","type":"address","indexed":false,"internalType":"address"}],"anonymous":false},{"type":"event","name":"ChainCoopFeesChanged","inputs":[{"name":"previousChainCoopFees","type":"address","indexed":true,"internalType":"address"},{"name":"newChainCoopFees","type":"address","indexed":true,"internalType":"address"},{"name":"_ownerChanged","type":"address","indexed":true,"internalType":"address"}],"anonymous":false},{"type":"event","name":"OpenSavingPool","inputs":[{"name":"user","type":"address","indexed":true,"internalType":"address"},{"name":"_tokenAddress","type":"address","indexed":true,"internalType":"address"},{"name":"_index","type":"uint256","indexed":false,"internalType":"uint256"},{"name":"initialAmount","type":"uint256","indexed":false,"internalType":"uint256"},{"name":"startTime","type":"uint256","indexed":false,"internalType":"uint256"},{"name":"","type":"uint8","indexed":false,"internalType":"enum IChainCoopSaving.LockingType"},{"name":"duration","type":"uint256","indexed":false,"internalType":"uint256"},{"name":"_poolId","type":"bytes32","indexed":false,"internalType":"bytes32"}],"anonymous":false},{"type":"event","name":"RestartSaving","inputs":[{"name":"_poolOwner","type":"address","indexed":false,"internalType":"address"},{"name":"_poolId","type":"bytes32","indexed":false,"internalType":"bytes32"}],"anonymous":false},{"type":"event","name":"StopSaving","inputs":[{"name":"_poolOwner","type":"address","indexed":false,"internalType":"address"},{"name":"_poolId","type":"bytes32","indexed":false,"internalType":"bytes32"}],"anonymous":false},{"type":"event","name":"UpdateSaving","inputs":[{"name":"user","type":"address","indexed":true,"internalType":"address"},{"name":"_tokenAddress","type":"address","indexed":true,"internalType":"address"},{"name":"amount","type":"uint256","indexed":false,"internalType":"uint256"},{"name":"_poolId","type":"bytes32","indexed":false,"internalType":"bytes32"}],"anonymous":false},{"type":"event","name":"Withdraw","inputs":[{"name":"user","type":"address","indexed":true,"internalType":"address"},{"name":"_tokenAddress","type":"address","indexed":true,"internalType":"address"},{"name":"amount","type":"uint256","indexed":false,"internalType":"uint256"},{"name":"_poolId","type":"bytes32","indexed":false,"internalType":"bytes32"}],"anonymous":false},{"type":"error","name":"NotPoolOwner","inputs":[{"name":"_caller","type":"address","internalType":"address"},{"name":"_poolId","type":"bytes32","internalType":"bytes32"}]},{"type":"error","name":"PoolStoped","inputs":[{"name":"_caller","type":"address","internalType":"address"},{"name":"_poolid","type":"bytes32","internalType":"bytes32"}]},{"type":"error","name":"ReentrancyGuardReentrantCall","inputs":[]},{"type":"error","name":"SavingPeriodStillOn","inputs":[{"name":"_caller","type":"address","internalType":"address"},{"name":"_poolId","type":"bytes32","internalType":"bytes32"},{"name":"_endDate","type":"uint256","internalType":"uint256"}]},{"type":"error","name":"StrictlySavingType","inputs":[{"name":"_caller","type":"address","internalType":"address"},{"name":"_poolId","type":"bytes32","internalType":"bytes32"}]},{"type":"error","name":"ZeroAmount","inputs":[{"name":"_amount","type":"uint256","internalType":"uint256"}]},{"type":"error","name":"ZeroDuration","inputs":[{"name":"_duration","type":"uint256","internalType":"uint256"}]}],"bytecode":{"object":"0x60806040526000600855348015601457600080fd5b50604051611f58380380611f58833981016040819052603191606e565b600080546001600160a01b031916331781556001600160a01b039091168152600260205260409020805460ff19166001908117909155600355609c565b600060208284031215607f57600080fd5b81516001600160a01b0381168114609557600080fd5b9392505050565b611ead806100ab6000396000f3fe608060405234801561001057600080fd5b50600436106101375760003560e01c8063906d8f79116100b8578063f2fde38b1161007c578063f2fde38b146102d0578063f525cb68146102e3578063f87e3d63146102ec578063f9eaee0d146102ff578063fd3b15a014610332578063fec71f271461034557600080fd5b8063906d8f791461024c5780639c339d641461025f578063a9a95ddd14610272578063c0fd05a114610285578063e36465a3146102b057600080fd5b80635fbc3c8d116100ff5780635fbc3c8d146101de5780637784fc1a146101f35780638146fd9e146102065780638da5cb5b146102265780638e19899e1461023957600080fd5b80630a0909671461013c5780630b1ad4a9146101625780631c1e55461461016a5780633759c8a5146101955780634521dff4146101b5575b600080fd5b61014f61014a36600461184a565b610358565b6040519081526020015b60405180910390f35b60085461014f565b60015461017d906001600160a01b031681565b6040516001600160a01b039091168152602001610159565b6101a86101a3366004611874565b610389565b60405161015991906119b8565b6101c86101c3366004611a1c565b6105e3565b6040516101599a99989796959493929190611a35565b6101f16101ec366004611a1c565b6106d0565b005b6101c8610201366004611a1c565b610782565b610219610214366004611a1c565b6107b7565b6040516101599190611aa9565b60005461017d906001600160a01b031681565b6101f1610247366004611a1c565b6107c4565b6101f161025a366004611874565b610c3b565b6101f161026d366004611abc565b610cc0565b6101f1610280366004611ade565b610f36565b61014f61029336600461184a565b600660209081526000928352604080842090915290825290205481565b6102c36102be366004611874565b61147b565b6040516101599190611b8c565b6101f16102de366004611874565b6115a2565b61014f60085481565b6101f16102fa366004611874565b611621565b61032261030d366004611874565b60026020526000908152604090205460ff1681565b6040519015158152602001610159565b6101f1610340366004611a1c565b61169a565b6101f1610353366004611874565b611733565b6007602052816000526040600020818154811061037457600080fd5b90600052602060002001600091509150505481565b60606000805b6008548110156103d0576000818152600460205260409020546001600160a01b038086169116036103c857816103c481611bfa565b9250505b60010161038f565b508067ffffffffffffffff8111156103ea576103ea611c13565b60405190808252806020026020018201604052801561042357816020015b6104106117df565b8152602001906001900390816104085790505b5091506000805b6008548110156105db576000818152600460205260409020546001600160a01b038087169116036105d35760008181526004602090815260409182902082516101408101845281546001600160a01b0390811682526001830154169281019290925260028101805492939192918401916104a390611c29565b80601f01602080910402602001604051908101604052809291908181526020018280546104cf90611c29565b801561051c5780601f106104f15761010080835404028352916020019161051c565b820191906000526020600020905b8154815290600101906020018083116104ff57829003601f168201915b505050918352505060038201546020820152600482015460408201526005820154606082015260068201546080820152600782015460a09091019060ff16600281111561056b5761056b6118dc565b600281111561057c5761057c6118dc565b81526007919091015460ff61010082048116151560208401526201000090910416151560409091015284518590849081106105b9576105b9611c63565b602002602001018190525081806105cf90611bfa565b9250505b60010161042a565b505050919050565b6004602052600090815260409020805460018201546002830180546001600160a01b0393841694929093169261061890611c29565b80601f016020809104026020016040519081016040528092919081815260200182805461064490611c29565b80156106915780601f1061066657610100808354040283529160200191610691565b820191906000526020600020905b81548152906001019060200180831161067457829003601f168201915b505050600384015460048501546005860154600687015460079097015495969295919450925060ff80821691610100810482169162010000909104168a565b6000818152600560205260409020546001600160a01b031633146107255760008181526005602052604090819020600301549051632a96f86960e21b815261071c913391600401611c79565b60405180910390fd5b60008181526005602052604090819020600701805462ff0000191662010000179055517fdea4b365a5e006e9098e7ff31a184a5b4f07c8e1786764fa483ba6c424af66bb906107779033908490611c79565b60405180910390a150565b6005602052600090815260409020805460018201546002830180546001600160a01b0393841694929093169261061890611c29565b6107bf6117df565b919050565b6107cc6117b5565b600081815260056020526040902080546001600160a01b0316331461080b576003810154604051632a96f86960e21b815261071c913391600401611c79565b6002600782015460ff166002811115610826576108266118dc565b036109385742816005015411156108665760058101546040516349e2efcf60e11b815233600482015260248101849052604481019190915260640161071c565b60006006820181905560078201805461ff0019166101001790556001820154825460405163a9059cbb60e01b81526001600160a01b039283169363a9059cbb936108b4931691600401611c79565b6020604051808303816000875af11580156108d3573d6000803e3d6000fd5b505050506040513d601f19601f820116820180604052508101906108f79190611c92565b6109385760405162461bcd60e51b81526020600482015260126024820152713330b4b632b2103a37903a3930b739b332b960711b604482015260640161071c565b6007810154610100900460ff1615610a145760018101548154600683015460405163a9059cbb60e01b81526001600160a01b039384169363a9059cbb9361098493911691600401611c79565b6020604051808303816000875af11580156109a3573d6000803e3d6000fd5b505050506040513d601f19601f820116820180604052508101906109c79190611c92565b610a085760405162461bcd60e51b81526020600482015260126024820152713330b4b632b2103a37903a3930b739b332b960711b604482015260640161071c565b60006006820155610c2d565b600681015460405163052ba3af60e51b8152600091736880b4eabe0e24e1c229002072a8ea6ff3bcde0d9163a57475e091610a559160040190815260200190565b602060405180830381865af4158015610a72573d6000803e3d6000fd5b505050506040513d601f19601f82011682018060405250810190610a969190611cb4565b90506000818360060154610aaa9190611ccd565b600060068501556001840154845460405163a9059cbb60e01b81529293506001600160a01b039182169263a9059cbb92610aea9216908590600401611c79565b6020604051808303816000875af1158015610b09573d6000803e3d6000fd5b505050506040513d601f19601f82011682018060405250810190610b2d9190611c92565b610b6e5760405162461bcd60e51b81526020600482015260126024820152712330b4b632b2103a37903a3930b739b332b960711b604482015260640161071c565b600180840154905460405163a9059cbb60e01b81526001600160a01b039283169263a9059cbb92610ba6929116908690600401611c79565b6020604051808303816000875af1158015610bc5573d6000803e3d6000fd5b505050506040513d601f19601f82011682018060405250810190610be99190611c92565b610c2a5760405162461bcd60e51b81526020600482015260126024820152712330b4b632b2103a37903a3930b739b332b960711b604482015260640161071c565b50505b50610c386001600355565b50565b6000546001600160a01b03163314610c655760405162461bcd60e51b815260040161071c90611ce6565b6001600160a01b038116600081815260026020908152604091829020805460ff191660011790558151338152908101929092527fb255eb80cd9faf1bf370ec9d568e7ddcd76db8329d4665996ac3ff866e93a1a69101610777565b6000828152600560205260409020546001600160a01b03163314610d0c5760008281526005602052604090819020600301549051632a96f86960e21b815261071c913391600401611c79565b60008281526005602052604090206007015462010000900460ff1615610d4957338260405163e8279ca160e01b815260040161071c929190611c79565b600260008381526005602052604090206007015460ff166002811115610d7157610d716118dc565b03610d93573382604051636b695b3560e11b815260040161071c929190611c79565b60008111610db75760405163135ee08960e31b81526004810182905260240161071c565b60008281526005602052604090819020600181015491516323b872dd60e01b81523360048201523060248201526044810184905290916001600160a01b0316906323b872dd906064016020604051808303816000875af1158015610e1f573d6000803e3d6000fd5b505050506040513d601f19601f82011682018060405250810190610e439190611c92565b610e835760405162461bcd60e51b815260206004820152601160248201527019985a5b1959081d1bc819195c1bdcda5d607a1b604482015260640161071c565b81816006016000828254610e979190611d1d565b9091555060019050600782015460ff166002811115610eb857610eb86118dc565b03610eda5742816005015411610eda5760078101805461ff0019166101001790555b600181015460038201546040516001600160a01b039092169133917fd6b63929f187e155f5af5fadc43fccae09fe211e961616fc2a75a4434c08f95c91610f2991878252602082015260400190565b60405180910390a3505050565b6001600160a01b038616600090815260026020526040902054869060ff16610f965760405162461bcd60e51b81526020600482015260136024820152724f6e6c7920616c6c6f77656420746f6b656e7360681b604482015260640161071c565b60008611610fba5760405163135ee08960e31b81526004810187905260240161071c565b60008211610fde5760405163745b0e9360e11b81526004810183905260240161071c565b600854600080856002811115610ff657610ff66118dc565b03610fff575060015b604051633c1d2f3160e11b81523360048201524260248201819052604482018a905290600090736880b4eabe0e24e1c229002072a8ea6ff3bcde0d9063783a5e6290606401602060405180830381865af4158015611061573d6000803e3d6000fd5b505050506040513d601f19601f820116820180604052508101906110859190611cb4565b6040516323b872dd60e01b8152336004820152306024820152604481018c90529091506001600160a01b038c16906323b872dd906064016020604051808303816000875af11580156110db573d6000803e3d6000fd5b505050506040513d601f19601f820116820180604052508101906110ff9190611c92565b61113f5760405162461bcd60e51b815260206004820152601160248201527019985a5b1959081d1bc819195c1bdcda5d607a1b604482015260640161071c565b6000604051806101400160405280336001600160a01b031681526020018d6001600160a01b031681526020018b8b8080601f016020809104026020016040519081016040528093929190818152602001838380828437600092019190915250505090825250602081018490526040810185905260608101899052608081018d905260a0018960028111156111d5576111d56118dc565b815285151560208201526000604090910181905260088054929350906111fa83611bfa565b9091555050600085815260046020908152604091829020835181546001600160a01b03199081166001600160a01b03928316178355928501516001830180549094169116179091559082015182919060028201906112589082611d81565b50606082015160038201556080820151600482015560a0820151600582015560c0820151600682015560e082015160078201805460ff191660018360028111156112a4576112a46118dc565b02179055506101008281015160079290920180546101209094015162ffff001990941692151590910262ff00001916919091176201000092151592909202919091179055600082815260056020908152604091829020835181546001600160a01b03199081166001600160a01b03928316178355928501516001830180549094169116179091559082015182919060028201906113419082611d81565b50606082015160038201556080820151600482015560a0820151600582015560c0820151600682015560e082015160078201805460ff1916600183600281111561138d5761138d6118dc565b02179055506101008281015160079283018054610120909501511515620100000262ff0000199215159093029190911662ffff001990941693909317179091553360008181526020928352604080822080546001810182559083528483200186905591815260068352818120858252909252812080548d9290611411908490611d1d565b925050819055508b6001600160a01b0316336001600160a01b03167f146c838f2b0fe5a6f74afd3842521cf1b9739e75b6c517635b2c592bdb4f88de878e878d8d8960405161146596959493929190611e41565b60405180910390a3505050505050505050505050565b6001600160a01b0381166000908152600760205260409020546060908067ffffffffffffffff8111156114b0576114b0611c13565b6040519080825280602002602001820160405280156114f557816020015b60408051808201909152600080825260208201528152602001906001900390816114ce5790505b50915060005b8181101561159b576001600160a01b038416600090815260076020526040812080548390811061152d5761152d611c63565b600091825260208083209091015480835260058252604092839020835180850190945260018101546001600160a01b03168452600681015492840192909252865190935090919086908590811061158657611586611c63565b602090810291909101015250506001016114fb565b5050919050565b6000546001600160a01b031633146115cc5760405162461bcd60e51b815260040161071c90611ce6565b600080546001600160a01b0319166001600160a01b0383169081179091556040805182815260208101929092527f7e644d79422f17c01e4894b5f4f588d331ebfa28653d42ae832dc59e38c9798f9101610777565b6000546001600160a01b0316331461164b5760405162461bcd60e51b815260040161071c90611ce6565b600180546001600160a01b0319166001600160a01b03831690811790915560405133919081907fccedfbc095a2ce404e74d81d857b3784d947e43dfb011de63698049fed93dbbf90600090a450565b6000818152600560205260409020546001600160a01b031633146116e65760008181526005602052604090819020600301549051632a96f86960e21b815261071c913391600401611c79565b60008181526005602052604090819020600701805462ff000019169055517fe4f3621c9f6ff4dcd632312c8be74a570b563c2f5d9b123775022d051ddcd788906107779033908490611c79565b6000546001600160a01b0316331461175d5760405162461bcd60e51b815260040161071c90611ce6565b6001600160a01b038116600081815260026020908152604091829020805460ff191690558151338152908101929092527fb255eb80cd9faf1bf370ec9d568e7ddcd76db8329d4665996ac3ff866e93a1a69101610777565b6002600354036117d857604051633ee5aeb560e01b815260040160405180910390fd5b6002600355565b604080516101408101825260008082526020820181905260609282018390529181018290526080810182905260a0810182905260c081018290529060e0820190815260006020820181905260409091015290565b80356001600160a01b03811681146107bf57600080fd5b6000806040838503121561185d57600080fd5b61186683611833565b946020939093013593505050565b60006020828403121561188657600080fd5b61188f82611833565b9392505050565b6000815180845260005b818110156118bc576020818501810151868301820152016118a0565b506000602082860101526020601f19601f83011685010191505092915050565b634e487b7160e01b600052602160045260246000fd5b6003811061191057634e487b7160e01b600052602160045260246000fd5b9052565b80516001600160a01b031682526000610140602083015161194060208601826001600160a01b03169052565b50604083015181604086015261195882860182611896565b915050606083015160608501526080830151608085015260a083015160a085015260c083015160c085015260e083015161199560e08601826118f2565b506101008381015115159085015261012092830151151592909301919091525090565b600060208083016020845280855180835260408601915060408160051b87010192506020870160005b82811015611a0f57603f198886030184526119fd858351611914565b945092850192908501906001016119e1565b5092979650505050505050565b600060208284031215611a2e57600080fd5b5035919050565b6001600160a01b038b811682528a16602082015261014060408201819052600090611a628382018c611896565b9150508860608301528760808301528660a08301528560c0830152611a8a60e08301866118f2565b9215156101008201529015156101209091015298975050505050505050565b60208152600061188f6020830184611914565b60008060408385031215611acf57600080fd5b50508035926020909101359150565b60008060008060008060a08789031215611af757600080fd5b611b0087611833565b955060208701359450604087013567ffffffffffffffff80821115611b2457600080fd5b818901915089601f830112611b3857600080fd5b813581811115611b4757600080fd5b8a6020828501011115611b5957600080fd5b602083019650809550505050606087013560038110611b7757600080fd5b80925050608087013590509295509295509295565b602080825282518282018190526000919060409081850190868401855b82811015611bd757815180516001600160a01b03168552860151868501529284019290850190600101611ba9565b5091979650505050505050565b634e487b7160e01b600052601160045260246000fd5b600060018201611c0c57611c0c611be4565b5060010190565b634e487b7160e01b600052604160045260246000fd5b600181811c90821680611c3d57607f821691505b602082108103611c5d57634e487b7160e01b600052602260045260246000fd5b50919050565b634e487b7160e01b600052603260045260246000fd5b6001600160a01b03929092168252602082015260400190565b600060208284031215611ca457600080fd5b8151801515811461188f57600080fd5b600060208284031215611cc657600080fd5b5051919050565b81810381811115611ce057611ce0611be4565b92915050565b6020808252601f908201527f4f6e6c7920746865206f776e65722063616e2065786563757465207468697300604082015260600190565b80820180821115611ce057611ce0611be4565b601f821115611d7c576000816000526020600020601f850160051c81016020861015611d595750805b601f850160051c820191505b81811015611d7857828155600101611d65565b5050505b505050565b815167ffffffffffffffff811115611d9b57611d9b611c13565b611daf81611da98454611c29565b84611d30565b602080601f831160018114611de45760008415611dcc5750858301515b600019600386901b1c1916600185901b178555611d78565b600085815260208120601f198616915b82811015611e1357888601518255948401946001909101908401611df4565b5085821015611e315787850151600019600388901b60f8161c191681555b5050505050600190811b01905550565b868152602081018690526040810185905260c08101611e6360608301866118f2565b608082019390935260a0015294935050505056fea2646970667358221220bfd965671dd514cb994188d53d57d7862e00de71620b5d97165bb072d8e46f2d64736f6c63430008190033","linkReferences":{}},"methodIdentifiers":{"chainCoopFees()":"1c1e5546","getSavingPoolByIndex(bytes32)":"8146fd9e","getSavingPoolBySaver(address)":"3759c8a5","getSavingPoolCount()":"0b1ad4a9","getUserContributions(address)":"e36465a3","isTokenAllowed(address)":"f9eaee0d","openSavingPool(address,uint256,string,uint8,uint256)":"a9a95ddd","owner()":"8da5cb5b","poolCount()":"f525cb68","poolSavingPool(bytes32)":"7784fc1a","removeAllowedTokens(address)":"fec71f27","restartSaving(bytes32)":"fd3b15a0","setAllowedTokens(address)":"906d8f79","setChainCoopAddress(address)":"f87e3d63","stopSaving(bytes32)":"5fbc3c8d","transferOwnership(address)":"f2fde38b","updateSaving(bytes32,uint256)":"9c339d64","userContributedPools(address,uint256)":"0a090967","userPoolBalance(address,bytes32)":"c0fd05a1","userSavingPool(uint256)":"4521dff4","withdraw(bytes32)":"8e19899e"},"id":33}