{"abi":[{"type":"constructor","inputs":[{"name":"_tokenAddress","type":"address","internalType":"address"}],"stateMutability":"nonpayable"},{"type":"function","name":"chainCoopFees","inputs":[],"outputs":[{"name":"","type":"address","internalType":"address"}],"stateMutability":"view"},{"type":"function","name":"getSavingPoolByIndex","inputs":[{"name":"_index","type":"bytes32","internalType":"bytes32"}],"outputs":[{"name":"","type":"tuple","internalType":"struct IChainCoopSaving.SavingPool","components":[{"name":"saver","type":"address","internalType":"address"},{"name":"tokenToSaveWith","type":"address","internalType":"address"},{"name":"Reason","type":"string","internalType":"string"},{"name":"poolIndex","type":"bytes32","internalType":"bytes32"},{"name":"startDate","type":"uint256","internalType":"uint256"},{"name":"Duration","type":"uint256","internalType":"uint256"},{"name":"amountSaved","type":"uint256","internalType":"uint256"},{"name":"locktype","type":"uint8","internalType":"enum IChainCoopSaving.LockingType"},{"name":"isGoalAccomplished","type":"bool","internalType":"bool"},{"name":"isStoped","type":"bool","internalType":"bool"}]}],"stateMutability":"view"},{"type":"function","name":"getSavingPoolBySaver","inputs":[{"name":"_saver","type":"address","internalType":"address"}],"outputs":[{"name":"pools","type":"tuple[]","internalType":"struct IChainCoopSaving.SavingPool[]","components":[{"name":"saver","type":"address","internalType":"address"},{"name":"tokenToSaveWith","type":"address","internalType":"address"},{"name":"Reason","type":"string","internalType":"string"},{"name":"poolIndex","type":"bytes32","internalType":"bytes32"},{"name":"startDate","type":"uint256","internalType":"uint256"},{"name":"Duration","type":"uint256","internalType":"uint256"},{"name":"amountSaved","type":"uint256","internalType":"uint256"},{"name":"locktype","type":"uint8","internalType":"enum IChainCoopSaving.LockingType"},{"name":"isGoalAccomplished","type":"bool","internalType":"bool"},{"name":"isStoped","type":"bool","internalType":"bool"}]}],"stateMutability":"view"},{"type":"function","name":"getSavingPoolCount","inputs":[],"outputs":[{"name":"","type":"uint256","internalType":"uint256"}],"stateMutability":"view"},{"type":"function","name":"getUserContributions","inputs":[{"name":"_saver","type":"address","internalType":"address"}],"outputs":[{"name":"contributions","type":"tuple[]","internalType":"struct ChainCoopSaving.Contribution[]","components":[{"name":"tokenAddress","type":"address","internalType":"address"},{"name":"amount","type":"uint256","internalType":"uint256"}]}],"stateMutability":"view"},{"type":"function","name":"isTokenAllowed","inputs":[{"name":"","type":"address","internalType":"address"}],"outputs":[{"name":"","type":"bool","internalType":"bool"}],"stateMutability":"view"},{"type":"function","name":"openSavingPool","inputs":[{"name":"_tokenTosaveWith","type":"address","internalType":"address"},{"name":"_savedAmount","type":"uint256","internalType":"uint256"},{"name":"_reason","type":"string","internalType":"string"},{"name":"_locktype","type":"uint8","internalType":"enum IChainCoopSaving.LockingType"},{"name":"_duration","type":"uint256","internalType":"uint256"}],"outputs":[],"stateMutability":"nonpayable"},{"type":"function","name":"owner","inputs":[],"outputs":[{"name":"","type":"address","internalType":"address"}],"stateMutability":"view"},{"type":"function","name":"poolCount","inputs":[],"outputs":[{"name":"","type":"uint256","internalType":"uint256"}],"stateMutability":"view"},{"type":"function","name":"poolSavingPool","inputs":[{"name":"","type":"bytes32","internalType":"bytes32"}],"outputs":[{"name":"saver","type":"address","internalType":"address"},{"name":"tokenToSaveWith","type":"address","internalType":"address"},{"name":"Reason","type":"string","internalType":"string"},{"name":"poolIndex","type":"bytes32","internalType":"bytes32"},{"name":"startDate","type":"uint256","internalType":"uint256"},{"name":"Duration","type":"uint256","internalType":"uint256"},{"name":"amountSaved","type":"uint256","internalType":"uint256"},{"name":"locktype","type":"uint8","internalType":"enum IChainCoopSaving.LockingType"},{"name":"isGoalAccomplished","type":"bool","internalType":"bool"},{"name":"isStoped","type":"bool","internalType":"bool"}],"stateMutability":"view"},{"type":"function","name":"removeAllowedTokens","inputs":[{"name":"_tokenAddress","type":"address","internalType":"address"}],"outputs":[],"stateMutability":"nonpayable"},{"type":"function","name":"restartSaving","inputs":[{"name":"_poolId","type":"bytes32","internalType":"bytes32"}],"outputs":[],"stateMutability":"nonpayable"},{"type":"function","name":"setAllowedTokens","inputs":[{"name":"_tokenAddress","type":"address","internalType":"address"}],"outputs":[],"stateMutability":"nonpayable"},{"type":"function","name":"setChainCoopAddress","inputs":[{"name":"_chaincoopfees","type":"address","internalType":"address"}],"outputs":[],"stateMutability":"nonpayable"},{"type":"function","name":"stopSaving","inputs":[{"name":"_poolId","type":"bytes32","internalType":"bytes32"}],"outputs":[],"stateMutability":"nonpayable"},{"type":"function","name":"transferOwnership","inputs":[{"name":"newOwner","type":"address","internalType":"address"}],"outputs":[],"stateMutability":"nonpayable"},{"type":"function","name":"updateSaving","inputs":[{"name":"_poolId","type":"bytes32","internalType":"bytes32"},{"name":"_amount","type":"uint256","internalType":"uint256"}],"outputs":[],"stateMutability":"nonpayable"},{"type":"function","name":"userContributedPools","inputs":[{"name":"","type":"address","internalType":"address"},{"name":"","type":"uint256","internalType":"uint256"}],"outputs":[{"name":"","type":"bytes32","internalType":"bytes32"}],"stateMutability":"view"},{"type":"function","name":"userPoolBalance","inputs":[{"name":"","type":"address","internalType":"address"},{"name":"","type":"bytes32","internalType":"bytes32"}],"outputs":[{"name":"","type":"uint256","internalType":"uint256"}],"stateMutability":"view"},{"type":"function","name":"withdraw","inputs":[{"name":"_poolId","type":"bytes32","internalType":"bytes32"}],"outputs":[],"stateMutability":"nonpayable"},{"type":"event","name":"AdminChanged","inputs":[{"name":"previousAdmin","type":"address","indexed":false,"internalType":"address"},{"name":"newAdmin","type":"address","indexed":false,"internalType":"address"}],"anonymous":false},{"type":"event","name":"AllowToken","inputs":[{"name":"_updator","type":"address","indexed":false,"internalType":"address"},{"name":"_allowedToken","type":"address","indexed":false,"internalType":"address"}],"anonymous":false},{"type":"event","name":"ChainCoopFeesChanged","inputs":[{"name":"previousChainCoopFees","type":"address","indexed":true,"internalType":"address"},{"name":"newChainCoopFees","type":"address","indexed":true,"internalType":"address"},{"name":"_ownerChanged","type":"address","indexed":true,"internalType":"address"}],"anonymous":false},{"type":"event","name":"OpenSavingPool","inputs":[{"name":"user","type":"address","indexed":true,"internalType":"address"},{"name":"_tokenAddress","type":"address","indexed":true,"internalType":"address"},{"name":"_index","type":"uint256","indexed":false,"internalType":"uint256"},{"name":"initialAmount","type":"uint256","indexed":false,"internalType":"uint256"},{"name":"startTime","type":"uint256","indexed":false,"internalType":"uint256"},{"name":"","type":"uint8","indexed":false,"internalType":"enum IChainCoopSaving.LockingType"},{"name":"duration","type":"uint256","indexed":false,"internalType":"uint256"},{"name":"_poolId","type":"bytes32","indexed":false,"internalType":"bytes32"}],"anonymous":false},{"type":"event","name":"PoolClosed","inputs":[{"name":"user","type":"address","indexed":true,"internalType":"address"},{"name":"poolId","type":"bytes32","indexed":true,"internalType":"bytes32"}],"anonymous":false},{"type":"event","name":"RestartSaving","inputs":[{"name":"_poolOwner","type":"address","indexed":false,"internalType":"address"},{"name":"_poolId","type":"bytes32","indexed":false,"internalType":"bytes32"}],"anonymous":false},{"type":"event","name":"StopSaving","inputs":[{"name":"_poolOwner","type":"address","indexed":false,"internalType":"address"},{"name":"_poolId","type":"bytes32","indexed":false,"internalType":"bytes32"}],"anonymous":false},{"type":"event","name":"UpdateSaving","inputs":[{"name":"user","type":"address","indexed":true,"internalType":"address"},{"name":"_tokenAddress","type":"address","indexed":true,"internalType":"address"},{"name":"amount","type":"uint256","indexed":false,"internalType":"uint256"},{"name":"_poolId","type":"bytes32","indexed":false,"internalType":"bytes32"}],"anonymous":false},{"type":"event","name":"Withdraw","inputs":[{"name":"user","type":"address","indexed":true,"internalType":"address"},{"name":"_tokenAddress","type":"address","indexed":true,"internalType":"address"},{"name":"amount","type":"uint256","indexed":false,"internalType":"uint256"},{"name":"_poolId","type":"bytes32","indexed":false,"internalType":"bytes32"}],"anonymous":false},{"type":"error","name":"NotPoolOwner","inputs":[{"name":"_caller","type":"address","internalType":"address"},{"name":"_poolId","type":"bytes32","internalType":"bytes32"}]},{"type":"error","name":"PoolStoped","inputs":[{"name":"_caller","type":"address","internalType":"address"},{"name":"_poolid","type":"bytes32","internalType":"bytes32"}]},{"type":"error","name":"ReentrancyGuardReentrantCall","inputs":[]},{"type":"error","name":"SavingPeriodStillOn","inputs":[{"name":"_caller","type":"address","internalType":"address"},{"name":"_poolId","type":"bytes32","internalType":"bytes32"},{"name":"_endDate","type":"uint256","internalType":"uint256"}]},{"type":"error","name":"StrictlySavingType","inputs":[{"name":"_caller","type":"address","internalType":"address"},{"name":"_poolId","type":"bytes32","internalType":"bytes32"}]},{"type":"error","name":"ZeroAmount","inputs":[{"name":"_amount","type":"uint256","internalType":"uint256"}]},{"type":"error","name":"ZeroDuration","inputs":[{"name":"_duration","type":"uint256","internalType":"uint256"}]}],"bytecode":{"object":"0x60806040525f600755348015610013575f5ffd5b50604051613a12380380613a1283398181016040528101906100359190610137565b80335f5f6101000a81548173ffffffffffffffffffffffffffffffffffffffff021916908373ffffffffffffffffffffffffffffffffffffffff160217905550600160025f8373ffffffffffffffffffffffffffffffffffffffff1673ffffffffffffffffffffffffffffffffffffffff1681526020019081526020015f205f6101000a81548160ff02191690831515021790555050600160038190555050610162565b5f5ffd5b5f73ffffffffffffffffffffffffffffffffffffffff82169050919050565b5f610106826100dd565b9050919050565b610116816100fc565b8114610120575f5ffd5b50565b5f815190506101318161010d565b92915050565b5f6020828403121561014c5761014b6100d9565b5b5f61015984828501610123565b91505092915050565b6138a38061016f5f395ff3fe608060405234801561000f575f5ffd5b506004361061012a575f3560e01c80639c339d64116100ab578063f525cb681161006f578063f525cb6814610359578063f87e3d6314610377578063f9eaee0d14610393578063fd3b15a0146103c3578063fec71f27146103df5761012a565b80639c339d64146102a5578063a9a95ddd146102c1578063c0fd05a1146102dd578063e36465a31461030d578063f2fde38b1461033d5761012a565b80637784fc1a116100f25780637784fc1a146101e65780638146fd9e1461021f5780638da5cb5b1461024f5780638e19899e1461026d578063906d8f79146102895761012a565b80630a0909671461012e5780630b1ad4a91461015e5780631c1e55461461017c5780633759c8a51461019a5780635fbc3c8d146101ca575b5f5ffd5b610148600480360381019061014391906126d7565b6103fb565b604051610155919061272d565b60405180910390f35b610166610426565b6040516101739190612755565b60405180910390f35b61018461042f565b604051610191919061277d565b60405180910390f35b6101b460048036038101906101af9190612796565b610454565b6040516101c19190612a7d565b60405180910390f35b6101e460048036038101906101df9190612ac7565b610779565b005b61020060048036038101906101fb9190612ac7565b61089a565b6040516102169a99989796959493929190612b58565b60405180910390f35b61023960048036038101906102349190612ac7565b6109d4565b6040516102469190612cd0565b60405180910390f35b6102576109e1565b604051610264919061277d565b60405180910390f35b61028760048036038101906102829190612ac7565b610a05565b005b6102a3600480360381019061029e9190612796565b61132b565b005b6102bf60048036038101906102ba9190612cf0565b61144a565b005b6102db60048036038101906102d69190612db2565b61183c565b005b6102f760048036038101906102f29190612e48565b611e35565b6040516103049190612755565b60405180910390f35b61032760048036038101906103229190612796565b611e55565b6040516103349190612f5b565b60405180910390f35b61035760048036038101906103529190612796565b611ff3565b005b61036161211c565b60405161036e9190612755565b60405180910390f35b610391600480360381019061038c9190612796565b612122565b005b6103ad60048036038101906103a89190612796565b612285565b6040516103ba9190612f7b565b60405180910390f35b6103dd60048036038101906103d89190612ac7565b6122a2565b005b6103f960048036038101906103f49190612796565b6123c2565b005b6006602052815f5260405f208181548110610414575f80fd5b905f5260205f20015f91509150505481565b5f600754905090565b60015f9054906101000a900473ffffffffffffffffffffffffffffffffffffffff1681565b60605f60065f8473ffffffffffffffffffffffffffffffffffffffff1673ffffffffffffffffffffffffffffffffffffffff1681526020019081526020015f208054905090508067ffffffffffffffff8111156104b4576104b3612f94565b5b6040519080825280602002602001820160405280156104ed57816020015b6104da612530565b8152602001906001900390816104d25790505b5091505f5f90505b81811015610772575f60065f8673ffffffffffffffffffffffffffffffffffffffff1673ffffffffffffffffffffffffffffffffffffffff1681526020019081526020015f20828154811061054d5761054c612fc1565b5b905f5260205f200154905060045f8281526020019081526020015f20604051806101400160405290815f82015f9054906101000a900473ffffffffffffffffffffffffffffffffffffffff1673ffffffffffffffffffffffffffffffffffffffff1673ffffffffffffffffffffffffffffffffffffffff168152602001600182015f9054906101000a900473ffffffffffffffffffffffffffffffffffffffff1673ffffffffffffffffffffffffffffffffffffffff1673ffffffffffffffffffffffffffffffffffffffff16815260200160028201805461062e9061301b565b80601f016020809104026020016040519081016040528092919081815260200182805461065a9061301b565b80156106a55780601f1061067c576101008083540402835291602001916106a5565b820191905f5260205f20905b81548152906001019060200180831161068857829003601f168201915b5050505050815260200160038201548152602001600482015481526020016005820154815260200160068201548152602001600782015f9054906101000a900460ff1660028111156106fa576106f9612887565b5b600281111561070c5761070b612887565b5b81526020016007820160019054906101000a900460ff161515151581526020016007820160029054906101000a900460ff16151515158152505084838151811061075957610758612fc1565b5b60200260200101819052505080806001019150506104f5565b5050919050565b3373ffffffffffffffffffffffffffffffffffffffff1660045f8381526020019081526020015f205f015f9054906101000a900473ffffffffffffffffffffffffffffffffffffffff1673ffffffffffffffffffffffffffffffffffffffff1614610831573360045f8381526020019081526020015f20600301546040517faa5be1a400000000000000000000000000000000000000000000000000000000815260040161082892919061304b565b60405180910390fd5b600160045f8381526020019081526020015f2060070160026101000a81548160ff0219169083151502179055507fdea4b365a5e006e9098e7ff31a184a5b4f07c8e1786764fa483ba6c424af66bb338260405161088f92919061304b565b60405180910390a150565b6004602052805f5260405f205f91509050805f015f9054906101000a900473ffffffffffffffffffffffffffffffffffffffff1690806001015f9054906101000a900473ffffffffffffffffffffffffffffffffffffffff16908060020180546109039061301b565b80601f016020809104026020016040519081016040528092919081815260200182805461092f9061301b565b801561097a5780601f106109515761010080835404028352916020019161097a565b820191905f5260205f20905b81548152906001019060200180831161095d57829003601f168201915b505050505090806003015490806004015490806005015490806006015490806007015f9054906101000a900460ff16908060070160019054906101000a900460ff16908060070160029054906101000a900460ff1690508a565b6109dc612530565b919050565b5f5f9054906101000a900473ffffffffffffffffffffffffffffffffffffffff1681565b610a0d6124e0565b5f60045f8381526020019081526020015f2090503373ffffffffffffffffffffffffffffffffffffffff16815f015f9054906101000a900473ffffffffffffffffffffffffffffffffffffffff1673ffffffffffffffffffffffffffffffffffffffff1614610ab9573381600301546040517faa5be1a4000000000000000000000000000000000000000000000000000000008152600401610ab092919061304b565b60405180910390fd5b600280811115610acc57610acb612887565b5b816007015f9054906101000a900460ff166002811115610aef57610aee612887565b5b03610c78574281600501541115610b4557338282600501546040517f93c5df9e000000000000000000000000000000000000000000000000000000008152600401610b3c93929190613072565b60405180910390fd5b5f816006015490505f826006018190555060018260070160016101000a81548160ff021916908315150217905550816001015f9054906101000a900473ffffffffffffffffffffffffffffffffffffffff1673ffffffffffffffffffffffffffffffffffffffff1663a9059cbb835f015f9054906101000a900473ffffffffffffffffffffffffffffffffffffffff16836040518363ffffffff1660e01b8152600401610bf39291906130a7565b6020604051808303815f875af1158015610c0f573d5f5f3e3d5ffd5b505050506040513d601f19601f82011682018060405250810190610c3391906130f8565b610c72576040517f08c379a0000000000000000000000000000000000000000000000000000000008152600401610c699061316d565b60405180910390fd5b5061103f565b8060070160019054906101000a900460ff1615610da5575f816006015490505f8260060181905550816001015f9054906101000a900473ffffffffffffffffffffffffffffffffffffffff1673ffffffffffffffffffffffffffffffffffffffff1663a9059cbb835f015f9054906101000a900473ffffffffffffffffffffffffffffffffffffffff16836040518363ffffffff1660e01b8152600401610d209291906130a7565b6020604051808303815f875af1158015610d3c573d5f5f3e3d5ffd5b505050506040513d601f19601f82011682018060405250810190610d6091906130f8565b610d9f576040517f08c379a0000000000000000000000000000000000000000000000000000000008152600401610d969061316d565b60405180910390fd5b5061103e565b5f73d3bb7d60e58a95d70781e4ca463d8d3b9f05e28063a57475e083600601546040518263ffffffff1660e01b8152600401610de1919061319a565b602060405180830381865af4158015610dfc573d5f5f3e3d5ffd5b505050506040513d601f19601f82011682018060405250810190610e2091906131c7565b90505f818360060154610e33919061321f565b90505f8360060181905550826001015f9054906101000a900473ffffffffffffffffffffffffffffffffffffffff1673ffffffffffffffffffffffffffffffffffffffff1663a9059cbb845f015f9054906101000a900473ffffffffffffffffffffffffffffffffffffffff16836040518363ffffffff1660e01b8152600401610ebe9291906130a7565b6020604051808303815f875af1158015610eda573d5f5f3e3d5ffd5b505050506040513d601f19601f82011682018060405250810190610efe91906130f8565b610f3d576040517f08c379a0000000000000000000000000000000000000000000000000000000008152600401610f349061329c565b60405180910390fd5b826001015f9054906101000a900473ffffffffffffffffffffffffffffffffffffffff1673ffffffffffffffffffffffffffffffffffffffff1663a9059cbb60015f9054906101000a900473ffffffffffffffffffffffffffffffffffffffff16846040518363ffffffff1660e01b8152600401610fbc9291906130a7565b6020604051808303815f875af1158015610fd8573d5f5f3e3d5ffd5b505050506040513d601f19601f82011682018060405250810190610ffc91906130f8565b61103b576040517f08c379a00000000000000000000000000000000000000000000000000000000081526004016110329061329c565b60405180910390fd5b50505b5b806001015f9054906101000a900473ffffffffffffffffffffffffffffffffffffffff1673ffffffffffffffffffffffffffffffffffffffff163373ffffffffffffffffffffffffffffffffffffffff167f6000e90278b62c00aaaf621956141fad63f2be8860557c31de1f736cafae2916836006015484600301546040516110c99291906132ba565b60405180910390a360045f8381526020019081526020015f205f5f82015f6101000a81549073ffffffffffffffffffffffffffffffffffffffff0219169055600182015f6101000a81549073ffffffffffffffffffffffffffffffffffffffff0219169055600282015f61113d91906125bc565b600382015f9055600482015f9055600582015f9055600682015f9055600782015f6101000a81549060ff02191690556007820160016101000a81549060ff02191690556007820160026101000a81549060ff0219169055505060055f3373ffffffffffffffffffffffffffffffffffffffff1673ffffffffffffffffffffffffffffffffffffffff1681526020019081526020015f205f8381526020019081526020015f205f90555f60065f3373ffffffffffffffffffffffffffffffffffffffff1673ffffffffffffffffffffffffffffffffffffffff1681526020019081526020015f2090505f5f90505b81805490508110156112d9578382828154811061124a57611249612fc1565b5b905f5260205f200154036112cc57816001838054905061126a919061321f565b8154811061127b5761127a612fc1565b5b905f5260205f20015482828154811061129757611296612fc1565b5b905f5260205f200181905550818054806112b4576112b36132e1565b5b600190038181905f5260205f20015f905590556112d9565b808060010191505061122a565b50823373ffffffffffffffffffffffffffffffffffffffff167f711dc13dc0d55b44aec704a91c510c322588933910cb86d308a195456caa90c560405160405180910390a35050611328612526565b50565b5f5f9054906101000a900473ffffffffffffffffffffffffffffffffffffffff1673ffffffffffffffffffffffffffffffffffffffff163373ffffffffffffffffffffffffffffffffffffffff16146113b9576040517f08c379a00000000000000000000000000000000000000000000000000000000081526004016113b090613358565b60405180910390fd5b600160025f8373ffffffffffffffffffffffffffffffffffffffff1673ffffffffffffffffffffffffffffffffffffffff1681526020019081526020015f205f6101000a81548160ff0219169083151502179055507fb255eb80cd9faf1bf370ec9d568e7ddcd76db8329d4665996ac3ff866e93a1a6338260405161143f929190613376565b60405180910390a150565b3373ffffffffffffffffffffffffffffffffffffffff1660045f8481526020019081526020015f205f015f9054906101000a900473ffffffffffffffffffffffffffffffffffffffff1673ffffffffffffffffffffffffffffffffffffffff1614611502573360045f8481526020019081526020015f20600301546040517faa5be1a40000000000000000000000000000000000000000000000000000000081526004016114f992919061304b565b60405180910390fd5b60045f8381526020019081526020015f2060070160029054906101000a900460ff16156115685733826040517fe8279ca100000000000000000000000000000000000000000000000000000000815260040161155f92919061304b565b60405180910390fd5b60028081111561157b5761157a612887565b5b60045f8481526020019081526020015f206007015f9054906101000a900460ff1660028111156115ae576115ad612887565b5b036115f25733826040517fd6d2b66a0000000000000000000000000000000000000000000000000000000081526004016115e992919061304b565b60405180910390fd5b5f811161163657806040517f9af7044800000000000000000000000000000000000000000000000000000000815260040161162d9190612755565b60405180910390fd5b5f60045f8481526020019081526020015f209050806001015f9054906101000a900473ffffffffffffffffffffffffffffffffffffffff1673ffffffffffffffffffffffffffffffffffffffff166323b872dd3330856040518463ffffffff1660e01b81526004016116aa9392919061339d565b6020604051808303815f875af11580156116c6573d5f5f3e3d5ffd5b505050506040513d601f19601f820116820180604052508101906116ea91906130f8565b611729576040517f08c379a00000000000000000000000000000000000000000000000000000000081526004016117209061341c565b60405180910390fd5b81816006015f82825461173c919061343a565b925050819055506001600281111561175757611756612887565b5b816007015f9054906101000a900460ff16600281111561177a57611779612887565b5b036117a957428160050154116117a85760018160070160016101000a81548160ff0219169083151502179055505b5b806001015f9054906101000a900473ffffffffffffffffffffffffffffffffffffffff1673ffffffffffffffffffffffffffffffffffffffff163373ffffffffffffffffffffffffffffffffffffffff167fd6b63929f187e155f5af5fadc43fccae09fe211e961616fc2a75a4434c08f95c84846003015460405161182f9291906132ba565b60405180910390a3505050565b8560025f8273ffffffffffffffffffffffffffffffffffffffff1673ffffffffffffffffffffffffffffffffffffffff1681526020019081526020015f205f9054906101000a900460ff166118c6576040517f08c379a00000000000000000000000000000000000000000000000000000000081526004016118bd906134b7565b60405180910390fd5b5f861161190a57856040517f9af704480000000000000000000000000000000000000000000000000000000081526004016119019190612755565b60405180910390fd5b5f821161194e57816040517fe8b61d260000000000000000000000000000000000000000000000000000000081526004016119459190612755565b60405180910390fd5b5f60075490505f5f600281111561196857611967612887565b5b85600281111561197b5761197a612887565b5b0361198557600190505b5f4290505f73d3bb7d60e58a95d70781e4ca463d8d3b9f05e28063783a5e6233428d6040518463ffffffff1660e01b81526004016119c5939291906134e4565b602060405180830381865af41580156119e0573d5f5f3e3d5ffd5b505050506040513d601f19601f82011682018060405250810190611a04919061352d565b90508a73ffffffffffffffffffffffffffffffffffffffff166323b872dd33308d6040518463ffffffff1660e01b8152600401611a439392919061339d565b6020604051808303815f875af1158015611a5f573d5f5f3e3d5ffd5b505050506040513d601f19601f82011682018060405250810190611a8391906130f8565b611ac2576040517f08c379a0000000000000000000000000000000000000000000000000000000008152600401611ab99061341c565b60405180910390fd5b5f6040518061014001604052803373ffffffffffffffffffffffffffffffffffffffff1681526020018d73ffffffffffffffffffffffffffffffffffffffff1681526020018b8b8080601f0160208091040260200160405190810160405280939291908181526020018383808284375f81840152601f19601f8201169050808301925050505050505081526020018381526020018481526020018881526020018c8152602001896002811115611b7b57611b7a612887565b5b815260200185151581526020015f1515815250905060075f815480929190611ba290613558565b91905055508060045f8481526020019081526020015f205f820151815f015f6101000a81548173ffffffffffffffffffffffffffffffffffffffff021916908373ffffffffffffffffffffffffffffffffffffffff1602179055506020820151816001015f6101000a81548173ffffffffffffffffffffffffffffffffffffffff021916908373ffffffffffffffffffffffffffffffffffffffff1602179055506040820151816002019081611c58919061373f565b50606082015181600301556080820151816004015560a0820151816005015560c0820151816006015560e0820151816007015f6101000a81548160ff02191690836002811115611cab57611caa612887565b5b02179055506101008201518160070160016101000a81548160ff0219169083151502179055506101208201518160070160026101000a81548160ff02191690831515021790555090505060065f3373ffffffffffffffffffffffffffffffffffffffff1673ffffffffffffffffffffffffffffffffffffffff1681526020019081526020015f2082908060018154018082558091505060019003905f5260205f20015f90919091909150558a60055f3373ffffffffffffffffffffffffffffffffffffffff1673ffffffffffffffffffffffffffffffffffffffff1681526020019081526020015f205f8481526020019081526020015f205f828254611db1919061343a565b925050819055508b73ffffffffffffffffffffffffffffffffffffffff163373ffffffffffffffffffffffffffffffffffffffff167f146c838f2b0fe5a6f74afd3842521cf1b9739e75b6c517635b2c592bdb4f88de878e878d8d89604051611e1f9695949392919061380e565b60405180910390a3505050505050505050505050565b6005602052815f5260405f20602052805f5260405f205f91509150505481565b60605f60065f8473ffffffffffffffffffffffffffffffffffffffff1673ffffffffffffffffffffffffffffffffffffffff1681526020019081526020015f208054905090508067ffffffffffffffff811115611eb557611eb4612f94565b5b604051908082528060200260200182016040528015611eee57816020015b611edb6125f9565b815260200190600190039081611ed35790505b5091505f5f90505b81811015611fec575f60065f8673ffffffffffffffffffffffffffffffffffffffff1673ffffffffffffffffffffffffffffffffffffffff1681526020019081526020015f208281548110611f4e57611f4d612fc1565b5b905f5260205f20015490505f60045f8381526020019081526020015f2090506040518060400160405280826001015f9054906101000a900473ffffffffffffffffffffffffffffffffffffffff1673ffffffffffffffffffffffffffffffffffffffff1681526020018260060154815250858481518110611fd257611fd1612fc1565b5b602002602001018190525050508080600101915050611ef6565b5050919050565b5f5f9054906101000a900473ffffffffffffffffffffffffffffffffffffffff1673ffffffffffffffffffffffffffffffffffffffff163373ffffffffffffffffffffffffffffffffffffffff1614612081576040517f08c379a000000000000000000000000000000000000000000000000000000000815260040161207890613358565b60405180910390fd5b805f5f6101000a81548173ffffffffffffffffffffffffffffffffffffffff021916908373ffffffffffffffffffffffffffffffffffffffff1602179055507f7e644d79422f17c01e4894b5f4f588d331ebfa28653d42ae832dc59e38c9798f5f5f9054906101000a900473ffffffffffffffffffffffffffffffffffffffff1682604051612111929190613376565b60405180910390a150565b60075481565b5f5f9054906101000a900473ffffffffffffffffffffffffffffffffffffffff1673ffffffffffffffffffffffffffffffffffffffff163373ffffffffffffffffffffffffffffffffffffffff16146121b0576040517f08c379a00000000000000000000000000000000000000000000000000000000081526004016121a790613358565b60405180910390fd5b8060015f6101000a81548173ffffffffffffffffffffffffffffffffffffffff021916908373ffffffffffffffffffffffffffffffffffffffff1602179055503373ffffffffffffffffffffffffffffffffffffffff168173ffffffffffffffffffffffffffffffffffffffff1660015f9054906101000a900473ffffffffffffffffffffffffffffffffffffffff1673ffffffffffffffffffffffffffffffffffffffff167fccedfbc095a2ce404e74d81d857b3784d947e43dfb011de63698049fed93dbbf60405160405180910390a450565b6002602052805f5260405f205f915054906101000a900460ff1681565b3373ffffffffffffffffffffffffffffffffffffffff1660045f8381526020019081526020015f205f015f9054906101000a900473ffffffffffffffffffffffffffffffffffffffff1673ffffffffffffffffffffffffffffffffffffffff161461235a573360045f8381526020019081526020015f20600301546040517faa5be1a400000000000000000000000000000000000000000000000000000000815260040161235192919061304b565b60405180910390fd5b5f60045f8381526020019081526020015f2060070160026101000a81548160ff0219169083151502179055507fe4f3621c9f6ff4dcd632312c8be74a570b563c2f5d9b123775022d051ddcd78833826040516123b792919061304b565b60405180910390a150565b5f5f9054906101000a900473ffffffffffffffffffffffffffffffffffffffff1673ffffffffffffffffffffffffffffffffffffffff163373ffffffffffffffffffffffffffffffffffffffff1614612450576040517f08c379a000000000000000000000000000000000000000000000000000000000815260040161244790613358565b60405180910390fd5b5f60025f8373ffffffffffffffffffffffffffffffffffffffff1673ffffffffffffffffffffffffffffffffffffffff1681526020019081526020015f205f6101000a81548160ff0219169083151502179055507fb255eb80cd9faf1bf370ec9d568e7ddcd76db8329d4665996ac3ff866e93a1a633826040516124d5929190613376565b60405180910390a150565b60026003540361251c576040517f3ee5aeb500000000000000000000000000000000000000000000000000000000815260040160405180910390fd5b6002600381905550565b6001600381905550565b6040518061014001604052805f73ffffffffffffffffffffffffffffffffffffffff1681526020015f73ffffffffffffffffffffffffffffffffffffffff168152602001606081526020015f81526020015f81526020015f81526020015f81526020015f60028111156125a6576125a5612887565b5b81526020015f151581526020015f151581525090565b5080546125c89061301b565b5f825580601f106125d957506125f6565b601f0160209004905f5260205f20908101906125f59190612627565b5b50565b60405180604001604052805f73ffffffffffffffffffffffffffffffffffffffff1681526020015f81525090565b5b8082111561263e575f815f905550600101612628565b5090565b5f5ffd5b5f5ffd5b5f73ffffffffffffffffffffffffffffffffffffffff82169050919050565b5f6126738261264a565b9050919050565b61268381612669565b811461268d575f5ffd5b50565b5f8135905061269e8161267a565b92915050565b5f819050919050565b6126b6816126a4565b81146126c0575f5ffd5b50565b5f813590506126d1816126ad565b92915050565b5f5f604083850312156126ed576126ec612642565b5b5f6126fa85828601612690565b925050602061270b858286016126c3565b9150509250929050565b5f819050919050565b61272781612715565b82525050565b5f6020820190506127405f83018461271e565b92915050565b61274f816126a4565b82525050565b5f6020820190506127685f830184612746565b92915050565b61277781612669565b82525050565b5f6020820190506127905f83018461276e565b92915050565b5f602082840312156127ab576127aa612642565b5b5f6127b884828501612690565b91505092915050565b5f81519050919050565b5f82825260208201905092915050565b5f819050602082019050919050565b6127f381612669565b82525050565b5f81519050919050565b5f82825260208201905092915050565b8281835e5f83830152505050565b5f601f19601f8301169050919050565b5f61283b826127f9565b6128458185612803565b9350612855818560208601612813565b61285e81612821565b840191505092915050565b61287281612715565b82525050565b612881816126a4565b82525050565b7f4e487b71000000000000000000000000000000000000000000000000000000005f52602160045260245ffd5b600381106128c5576128c4612887565b5b50565b5f8190506128d5826128b4565b919050565b5f6128e4826128c8565b9050919050565b6128f4816128da565b82525050565b5f8115159050919050565b61290e816128fa565b82525050565b5f61014083015f83015161292a5f8601826127ea565b50602083015161293d60208601826127ea565b50604083015184820360408601526129558282612831565b915050606083015161296a6060860182612869565b50608083015161297d6080860182612878565b5060a083015161299060a0860182612878565b5060c08301516129a360c0860182612878565b5060e08301516129b660e08601826128eb565b506101008301516129cb610100860182612905565b506101208301516129e0610120860182612905565b508091505092915050565b5f6129f68383612914565b905092915050565b5f602082019050919050565b5f612a14826127c1565b612a1e81856127cb565b935083602082028501612a30856127db565b805f5b85811015612a6b5784840389528151612a4c85826129eb565b9450612a57836129fe565b925060208a01995050600181019050612a33565b50829750879550505050505092915050565b5f6020820190508181035f830152612a958184612a0a565b905092915050565b612aa681612715565b8114612ab0575f5ffd5b50565b5f81359050612ac181612a9d565b92915050565b5f60208284031215612adc57612adb612642565b5b5f612ae984828501612ab3565b91505092915050565b5f82825260208201905092915050565b5f612b0c826127f9565b612b168185612af2565b9350612b26818560208601612813565b612b2f81612821565b840191505092915050565b612b43816128da565b82525050565b612b52816128fa565b82525050565b5f61014082019050612b6c5f83018d61276e565b612b79602083018c61276e565b8181036040830152612b8b818b612b02565b9050612b9a606083018a61271e565b612ba76080830189612746565b612bb460a0830188612746565b612bc160c0830187612746565b612bce60e0830186612b3a565b612bdc610100830185612b49565b612bea610120830184612b49565b9b9a5050505050505050505050565b5f61014083015f830151612c0f5f8601826127ea565b506020830151612c2260208601826127ea565b5060408301518482036040860152612c3a8282612831565b9150506060830151612c4f6060860182612869565b506080830151612c626080860182612878565b5060a0830151612c7560a0860182612878565b5060c0830151612c8860c0860182612878565b5060e0830151612c9b60e08601826128eb565b50610100830151612cb0610100860182612905565b50610120830151612cc5610120860182612905565b508091505092915050565b5f6020820190508181035f830152612ce88184612bf9565b905092915050565b5f5f60408385031215612d0657612d05612642565b5b5f612d1385828601612ab3565b9250506020612d24858286016126c3565b9150509250929050565b5f5ffd5b5f5ffd5b5f5ffd5b5f5f83601f840112612d4f57612d4e612d2e565b5b8235905067ffffffffffffffff811115612d6c57612d6b612d32565b5b602083019150836001820283011115612d8857612d87612d36565b5b9250929050565b60038110612d9b575f5ffd5b50565b5f81359050612dac81612d8f565b92915050565b5f5f5f5f5f5f60a08789031215612dcc57612dcb612642565b5b5f612dd989828a01612690565b9650506020612dea89828a016126c3565b955050604087013567ffffffffffffffff811115612e0b57612e0a612646565b5b612e1789828a01612d3a565b94509450506060612e2a89828a01612d9e565b9250506080612e3b89828a016126c3565b9150509295509295509295565b5f5f60408385031215612e5e57612e5d612642565b5b5f612e6b85828601612690565b9250506020612e7c85828601612ab3565b9150509250929050565b5f81519050919050565b5f82825260208201905092915050565b5f819050602082019050919050565b604082015f820151612ec35f8501826127ea565b506020820151612ed66020850182612878565b50505050565b5f612ee78383612eaf565b60408301905092915050565b5f602082019050919050565b5f612f0982612e86565b612f138185612e90565b9350612f1e83612ea0565b805f5b83811015612f4e578151612f358882612edc565b9750612f4083612ef3565b925050600181019050612f21565b5085935050505092915050565b5f6020820190508181035f830152612f738184612eff565b905092915050565b5f602082019050612f8e5f830184612b49565b92915050565b7f4e487b71000000000000000000000000000000000000000000000000000000005f52604160045260245ffd5b7f4e487b71000000000000000000000000000000000000000000000000000000005f52603260045260245ffd5b7f4e487b71000000000000000000000000000000000000000000000000000000005f52602260045260245ffd5b5f600282049050600182168061303257607f821691505b60208210810361304557613044612fee565b5b50919050565b5f60408201905061305e5f83018561276e565b61306b602083018461271e565b9392505050565b5f6060820190506130855f83018661276e565b613092602083018561271e565b61309f6040830184612746565b949350505050565b5f6040820190506130ba5f83018561276e565b6130c76020830184612746565b9392505050565b6130d7816128fa565b81146130e1575f5ffd5b50565b5f815190506130f2816130ce565b92915050565b5f6020828403121561310d5761310c612642565b5b5f61311a848285016130e4565b91505092915050565b7f6661696c656420746f207472616e7366657200000000000000000000000000005f82015250565b5f613157601283612af2565b915061316282613123565b602082019050919050565b5f6020820190508181035f8301526131848161314b565b9050919050565b613194816126a4565b82525050565b5f6020820190506131ad5f83018461318b565b92915050565b5f815190506131c1816126ad565b92915050565b5f602082840312156131dc576131db612642565b5b5f6131e9848285016131b3565b91505092915050565b7f4e487b71000000000000000000000000000000000000000000000000000000005f52601160045260245ffd5b5f613229826126a4565b9150613234836126a4565b925082820390508181111561324c5761324b6131f2565b5b92915050565b7f4661696c656420746f207472616e7366657200000000000000000000000000005f82015250565b5f613286601283612af2565b915061329182613252565b602082019050919050565b5f6020820190508181035f8301526132b38161327a565b9050919050565b5f6040820190506132cd5f830185612746565b6132da602083018461271e565b9392505050565b7f4e487b71000000000000000000000000000000000000000000000000000000005f52603160045260245ffd5b7f4f6e6c7920746865206f776e65722063616e20657865637574652074686973005f82015250565b5f613342601f83612af2565b915061334d8261330e565b602082019050919050565b5f6020820190508181035f83015261336f81613336565b9050919050565b5f6040820190506133895f83018561276e565b613396602083018461276e565b9392505050565b5f6060820190506133b05f83018661276e565b6133bd602083018561276e565b6133ca6040830184612746565b949350505050565b7f6661696c656420746f206465706f7369740000000000000000000000000000005f82015250565b5f613406601183612af2565b9150613411826133d2565b602082019050919050565b5f6020820190508181035f830152613433816133fa565b9050919050565b5f613444826126a4565b915061344f836126a4565b9250828201905080821115613467576134666131f2565b5b92915050565b7f4f6e6c7920616c6c6f77656420746f6b656e73000000000000000000000000005f82015250565b5f6134a1601383612af2565b91506134ac8261346d565b602082019050919050565b5f6020820190508181035f8301526134ce81613495565b9050919050565b6134de81612669565b82525050565b5f6060820190506134f75f8301866134d5565b613504602083018561318b565b613511604083018461318b565b949350505050565b5f8151905061352781612a9d565b92915050565b5f6020828403121561354257613541612642565b5b5f61354f84828501613519565b91505092915050565b5f613562826126a4565b91507fffffffffffffffffffffffffffffffffffffffffffffffffffffffffffffffff8203613594576135936131f2565b5b600182019050919050565b5f819050815f5260205f209050919050565b5f6020601f8301049050919050565b5f82821b905092915050565b5f600883026135fb7fffffffffffffffffffffffffffffffffffffffffffffffffffffffffffffffff826135c0565b61360586836135c0565b95508019841693508086168417925050509392505050565b5f819050919050565b5f61364061363b613636846126a4565b61361d565b6126a4565b9050919050565b5f819050919050565b61365983613626565b61366d61366582613647565b8484546135cc565b825550505050565b5f5f905090565b613684613675565b61368f818484613650565b505050565b5b818110156136b2576136a75f8261367c565b600181019050613695565b5050565b601f8211156136f7576136c88161359f565b6136d1846135b1565b810160208510156136e0578190505b6136f46136ec856135b1565b830182613694565b50505b505050565b5f82821c905092915050565b5f6137175f19846008026136fc565b1980831691505092915050565b5f61372f8383613708565b9150826002028217905092915050565b613748826127f9565b67ffffffffffffffff81111561376157613760612f94565b5b61376b825461301b565b6137768282856136b6565b5f60209050601f8311600181146137a7575f8415613795578287015190505b61379f8582613724565b865550613806565b601f1984166137b58661359f565b5f5b828110156137dc578489015182556001820191506020850194506020810190506137b7565b868310156137f957848901516137f5601f891682613708565b8355505b6001600288020188555050505b505050505050565b5f60c0820190506138215f830189612746565b61382e6020830188612746565b61383b6040830187612746565b6138486060830186612b3a565b6138556080830185612746565b61386260a083018461271e565b97965050505050505056fea2646970667358221220cdc7c90408eb71bc790b21bf338fcd0c2b490d27ddb7996d4b4406ab8d201d6564736f6c634300081c0033","linkReferences":{}},"methodIdentifiers":{"chainCoopFees()":"1c1e5546","getSavingPoolByIndex(bytes32)":"8146fd9e","getSavingPoolBySaver(address)":"3759c8a5","getSavingPoolCount()":"0b1ad4a9","getUserContributions(address)":"e36465a3","isTokenAllowed(address)":"f9eaee0d","openSavingPool(address,uint256,string,uint8,uint256)":"a9a95ddd","owner()":"8da5cb5b","poolCount()":"f525cb68","poolSavingPool(bytes32)":"7784fc1a","removeAllowedTokens(address)":"fec71f27","restartSaving(bytes32)":"fd3b15a0","setAllowedTokens(address)":"906d8f79","setChainCoopAddress(address)":"f87e3d63","stopSaving(bytes32)":"5fbc3c8d","transferOwnership(address)":"f2fde38b","updateSaving(bytes32,uint256)":"9c339d64","userContributedPools(address,uint256)":"0a090967","userPoolBalance(address,bytes32)":"c0fd05a1","withdraw(bytes32)":"8e19899e"},"id":28}