{
  "abi": [
    {
      "type": "constructor",
      "inputs": [
        {
          "name": "name",
          "type": "string",
          "internalType": "string"
        }
      ],
      "stateMutability": "nonpayable"
    },
    {
      "type": "function",
      "name": "eip712Domain",
      "inputs": [],
      "outputs": [
        {
          "name": "fields",
          "type": "bytes1",
          "internalType": "bytes1"
        },
        {
          "name": "name",
          "type": "string",
          "internalType": "string"
        },
        {
          "name": "version",
          "type": "string",
          "internalType": "string"
        },
        {
          "name": "chainId",
          "type": "uint256",
          "internalType": "uint256"
        },
        {
          "name": "verifyingContract",
          "type": "address",
          "internalType": "address"
        },
        {
          "name": "salt",
          "type": "bytes32",
          "internalType": "bytes32"
        },
        {
          "name": "extensions",
          "type": "uint256[]",
          "internalType": "uint256[]"
        }
      ],
      "stateMutability": "view"
    },
    {
      "type": "function",
      "name": "execute",
      "inputs": [
        {
          "name": "request",
          "type": "tuple",
          "internalType": "struct ERC2771Forwarder.ForwardRequestData",
          "components": [
            {
              "name": "from",
              "type": "address",
              "internalType": "address"
            },
            {
              "name": "to",
              "type": "address",
              "internalType": "address"
            },
            {
              "name": "value",
              "type": "uint256",
              "internalType": "uint256"
            },
            {
              "name": "gas",
              "type": "uint256",
              "internalType": "uint256"
            },
            {
              "name": "deadline",
              "type": "uint48",
              "internalType": "uint48"
            },
            {
              "name": "data",
              "type": "bytes",
              "internalType": "bytes"
            },
            {
              "name": "signature",
              "type": "bytes",
              "internalType": "bytes"
            }
          ]
        }
      ],
      "outputs": [],
      "stateMutability": "payable"
    },
    {
      "type": "function",
      "name": "executeBatch",
      "inputs": [
        {
          "name": "requests",
          "type": "tuple[]",
          "internalType": "struct ERC2771Forwarder.ForwardRequestData[]",
          "components": [
            {
              "name": "from",
              "type": "address",
              "internalType": "address"
            },
            {
              "name": "to",
              "type": "address",
              "internalType": "address"
            },
            {
              "name": "value",
              "type": "uint256",
              "internalType": "uint256"
            },
            {
              "name": "gas",
              "type": "uint256",
              "internalType": "uint256"
            },
            {
              "name": "deadline",
              "type": "uint48",
              "internalType": "uint48"
            },
            {
              "name": "data",
              "type": "bytes",
              "internalType": "bytes"
            },
            {
              "name": "signature",
              "type": "bytes",
              "internalType": "bytes"
            }
          ]
        },
        {
          "name": "refundReceiver",
          "type": "address",
          "internalType": "address payable"
        }
      ],
      "outputs": [],
      "stateMutability": "payable"
    },
    {
      "type": "function",
      "name": "nonces",
      "inputs": [
        {
          "name": "owner",
          "type": "address",
          "internalType": "address"
        }
      ],
      "outputs": [
        {
          "name": "",
          "type": "uint256",
          "internalType": "uint256"
        }
      ],
      "stateMutability": "view"
    },
    {
      "type": "function",
      "name": "verify",
      "inputs": [
        {
          "name": "request",
          "type": "tuple",
          "internalType": "struct ERC2771Forwarder.ForwardRequestData",
          "components": [
            {
              "name": "from",
              "type": "address",
              "internalType": "address"
            },
            {
              "name": "to",
              "type": "address",
              "internalType": "address"
            },
            {
              "name": "value",
              "type": "uint256",
              "internalType": "uint256"
            },
            {
              "name": "gas",
              "type": "uint256",
              "internalType": "uint256"
            },
            {
              "name": "deadline",
              "type": "uint48",
              "internalType": "uint48"
            },
            {
              "name": "data",
              "type": "bytes",
              "internalType": "bytes"
            },
            {
              "name": "signature",
              "type": "bytes",
              "internalType": "bytes"
            }
          ]
        }
      ],
      "outputs": [
        {
          "name": "",
          "type": "bool",
          "internalType": "bool"
        }
      ],
      "stateMutability": "view"
    },
    {
      "type": "event",
      "name": "EIP712DomainChanged",
      "inputs": [],
      "anonymous": false
    },
    {
      "type": "event",
      "name": "ExecutedForwardRequest",
      "inputs": [
        {
          "name": "signer",
          "type": "address",
          "indexed": true,
          "internalType": "address"
        },
        {
          "name": "nonce",
          "type": "uint256",
          "indexed": false,
          "internalType": "uint256"
        },
        {
          "name": "success",
          "type": "bool",
          "indexed": false,
          "internalType": "bool"
        }
      ],
      "anonymous": false
    },
    {
      "type": "error",
      "name": "ERC2771ForwarderExpiredRequest",
      "inputs": [
        {
          "name": "deadline",
          "type": "uint48",
          "internalType": "uint48"
        }
      ]
    },
    {
      "type": "error",
      "name": "ERC2771ForwarderInvalidSigner",
      "inputs": [
        {
          "name": "signer",
          "type": "address",
          "internalType": "address"
        },
        {
          "name": "from",
          "type": "address",
          "internalType": "address"
        }
      ]
    },
    {
      "type": "error",
      "name": "ERC2771ForwarderMismatchedValue",
      "inputs": [
        {
          "name": "requestedValue",
          "type": "uint256",
          "internalType": "uint256"
        },
        {
          "name": "msgValue",
          "type": "uint256",
          "internalType": "uint256"
        }
      ]
    },
    {
      "type": "error",
      "name": "ERC2771UntrustfulTarget",
      "inputs": [
        {
          "name": "target",
          "type": "address",
          "internalType": "address"
        },
        {
          "name": "forwarder",
          "type": "address",
          "internalType": "address"
        }
      ]
    },
    {
      "type": "error",
      "name": "FailedCall",
      "inputs": []
    },
    {
      "type": "error",
      "name": "InsufficientBalance",
      "inputs": [
        {
          "name": "balance",
          "type": "uint256",
          "internalType": "uint256"
        },
        {
          "name": "needed",
          "type": "uint256",
          "internalType": "uint256"
        }
      ]
    },
    {
      "type": "error",
      "name": "InvalidAccountNonce",
      "inputs": [
        {
          "name": "account",
          "type": "address",
          "internalType": "address"
        },
        {
          "name": "currentNonce",
          "type": "uint256",
          "internalType": "uint256"
        }
      ]
    },
    {
      "type": "error",
      "name": "InvalidShortString",
      "inputs": []
    },
    {
      "type": "error",
      "name": "StringTooLong",
      "inputs": [
        {
          "name": "str",
          "type": "string",
          "internalType": "string"
        }
      ]
    }
  ],
  "bytecode": {
    "object": "0x610160604052348015610010575f80fd5b506040516121d03803806121d08339818101604052810190610032919061037a565b806040518060400160405280600181526020017f310000000000000000000000000000000000000000000000000000000000000081525061007c5f8361011860201b90919060201c565b610120818152505061009860018261011860201b90919060201c565b6101408181525050818051906020012060e08181525050808051906020012061010081815250504660a081815250506100d561016560201b60201c565b608081815250503073ffffffffffffffffffffffffffffffffffffffff1660c08173ffffffffffffffffffffffffffffffffffffffff168152505050505061084f565b5f60208351101561013957610132836101bf60201b60201c565b905061015f565b826101498361022460201b60201c565b5f01908161015791906105ce565b5060ff5f1b90505b92915050565b5f7f8b73c3c69bb8fe3d512ecc4cf759cc79239f7b179b0ffacaa9a75d522b39400f60e0516101005146306040516020016101a4959493929190610703565b60405160208183030381529060405280519060200120905090565b5f80829050601f8151111561020b57826040517f305a27a9000000000000000000000000000000000000000000000000000000008152600401610202919061079c565b60405180910390fd5b805181610217906107e9565b5f1c175f1b915050919050565b5f819050919050565b5f604051905090565b5f80fd5b5f80fd5b5f80fd5b5f80fd5b5f601f19601f8301169050919050565b7f4e487b71000000000000000000000000000000000000000000000000000000005f52604160045260245ffd5b61028c82610246565b810181811067ffffffffffffffff821117156102ab576102aa610256565b5b80604052505050565b5f6102bd61022d565b90506102c98282610283565b919050565b5f67ffffffffffffffff8211156102e8576102e7610256565b5b6102f182610246565b9050602081019050919050565b8281835e5f83830152505050565b5f61031e610319846102ce565b6102b4565b90508281526020810184848401111561033a57610339610242565b5b6103458482856102fe565b509392505050565b5f82601f8301126103615761036061023e565b5b815161037184826020860161030c565b91505092915050565b5f6020828403121561038f5761038e610236565b5b5f82015167ffffffffffffffff8111156103ac576103ab61023a565b5b6103b88482850161034d565b91505092915050565b5f81519050919050565b7f4e487b71000000000000000000000000000000000000000000000000000000005f52602260045260245ffd5b5f600282049050600182168061040f57607f821691505b602082108103610422576104216103cb565b5b50919050565b5f819050815f5260205f209050919050565b5f6020601f8301049050919050565b5f82821b905092915050565b5f600883026104847fffffffffffffffffffffffffffffffffffffffffffffffffffffffffffffffff82610449565b61048e8683610449565b95508019841693508086168417925050509392505050565b5f819050919050565b5f819050919050565b5f6104d26104cd6104c8846104a6565b6104af565b6104a6565b9050919050565b5f819050919050565b6104eb836104b8565b6104ff6104f7826104d9565b848454610455565b825550505050565b5f90565b610513610507565b61051e8184846104e2565b505050565b5b81811015610541576105365f8261050b565b600181019050610524565b5050565b601f8211156105865761055781610428565b6105608461043a565b8101602085101561056f578190505b61058361057b8561043a565b830182610523565b50505b505050565b5f82821c905092915050565b5f6105a65f198460080261058b565b1980831691505092915050565b5f6105be8383610597565b9150826002028217905092915050565b6105d7826103c1565b67ffffffffffffffff8111156105f0576105ef610256565b5b6105fa82546103f8565b610605828285610545565b5f60209050601f831160018114610636575f8415610624578287015190505b61062e85826105b3565b865550610695565b601f19841661064486610428565b5f5b8281101561066b57848901518255600182019150602085019450602081019050610646565b868310156106885784890151610684601f891682610597565b8355505b6001600288020188555050505b505050505050565b5f819050919050565b6106af8161069d565b82525050565b6106be816104a6565b82525050565b5f73ffffffffffffffffffffffffffffffffffffffff82169050919050565b5f6106ed826106c4565b9050919050565b6106fd816106e3565b82525050565b5f60a0820190506107165f8301886106a6565b61072360208301876106a6565b61073060408301866106a6565b61073d60608301856106b5565b61074a60808301846106f4565b9695505050505050565b5f82825260208201905092915050565b5f61076e826103c1565b6107788185610754565b93506107888185602086016102fe565b61079181610246565b840191505092915050565b5f6020820190508181035f8301526107b48184610764565b905092915050565b5f81519050919050565b5f819050602082019050919050565b5f6107e0825161069d565b80915050919050565b5f6107f3826107bc565b826107fd846107c6565b9050610808816107d5565b92506020821015610848576108437fffffffffffffffffffffffffffffffffffffffffffffffffffffffffffffffff83602003600802610449565b831692505b5050919050565b60805160a05160c05160e0516101005161012051610140516119306108a05f395f61051601525f6104db01525f610ed701525f610eb601525f610c6a01525f610cc001525f610ce901526119305ff3fe608060405260043610610049575f3560e01c806319d8d38c1461004d5780637ecebe001461008957806384b0196e146100c5578063ccf96b4a146100f5578063df905caf14610111575b5f80fd5b348015610058575f80fd5b50610073600480360381019061006e9190610f51565b61012d565b6040516100809190610fb2565b60405180910390f35b348015610094575f80fd5b506100af60048036038101906100aa9190611025565b61015e565b6040516100bc9190611068565b60405180910390f35b3480156100d0575f80fd5b506100d96101a4565b6040516100ec9796959493929190611209565b60405180910390f35b61010f600480360381019061010a9190611327565b610249565b005b61012b60048036038101906101269190610f51565b61039a565b005b5f805f8061013a8561042c565b5092509250925082801561014b5750815b80156101545750805b9350505050919050565b5f60025f8373ffffffffffffffffffffffffffffffffffffffff1673ffffffffffffffffffffffffffffffffffffffff1681526020019081526020015f20549050919050565b5f6060805f805f60606101b56104d3565b6101bd61050d565b46305f801b5f67ffffffffffffffff8111156101dc576101db611384565b5b60405190808252806020026020018201604052801561020a5781602001602082028036833780820191505090505b507f0f00000000000000000000000000000000000000000000000000000000000000959493929190965096509650965096509650965090919293949596565b5f8073ffffffffffffffffffffffffffffffffffffffff168273ffffffffffffffffffffffffffffffffffffffff161490505f805f5b868690508110156103395786868281811061029d5761029c6113b1565b5b90506020028101906102af91906113ea565b60400135836102be919061143e565b92505f6102ef8888848181106102d7576102d66113b1565b5b90506020028101906102e991906113ea565b86610548565b90508061032d57878783818110610309576103086113b1565b5b905060200281019061031b91906113ea565b604001358361032a919061143e565b92505b5080600101905061027f565b503482146103805781346040517f70647f79000000000000000000000000000000000000000000000000000000008152600401610377929190611471565b60405180910390fd5b5f8114610392576103918482610771565b5b505050505050565b806040013534146103e8578060400135346040517f70647f790000000000000000000000000000000000000000000000000000000081526004016103df929190611471565b60405180910390fd5b6103f3816001610548565b610429576040517fd6bda27500000000000000000000000000000000000000000000000000000000815260040160405180910390fd5b50565b5f805f805f8061043b8761085c565b9150915061045a8760200160208101906104559190611025565b6109d3565b4288608001602081019061046e91906114d3565b65ffffffffffff1610158380156104c15750885f0160208101906104929190611025565b73ffffffffffffffffffffffffffffffffffffffff168373ffffffffffffffffffffffffffffffffffffffff16145b83955095509550955050509193509193565b60606105085f7f0000000000000000000000000000000000000000000000000000000000000000610a6990919063ffffffff16565b905090565b606061054360017f0000000000000000000000000000000000000000000000000000000000000000610a6990919063ffffffff16565b905090565b5f805f805f6105568761042c565b9350935093509350851561066457836105ba5786602001602081019061057c9190611025565b306040517fd2650cd10000000000000000000000000000000000000000000000000000000081526004016105b19291906114fe565b60405180910390fd5b8261060e578660800160208101906105d291906114d3565b6040517f94eef58a0000000000000000000000000000000000000000000000000000000081526004016106059190611534565b60405180910390fd5b816106635780875f0160208101906106269190611025565b6040517fc845a05600000000000000000000000000000000000000000000000000000000815260040161065a9291906114fe565b60405180910390fd5b5b83801561066e5750815b80156106775750825b15610767575f61068682610b16565b90505f886060013590505f8960200160208101906106a49190611025565b90505f8a6040013590505f8b8060a001906106bf919061154d565b8d5f0160208101906106d19190611025565b6040516020016106e393929190611630565b60405160208183030381529060405290505f805f83516020850186888af19a505a9050610710818e610b69565b8673ffffffffffffffffffffffffffffffffffffffff167f842fb24a83793558587a3dab2be7674da4a51d09c5542d6dd354e5d0ea70813c878d604051610758929190611659565b60405180910390a25050505050505b5050505092915050565b804710156107b85747816040517fcf4791810000000000000000000000000000000000000000000000000000000081526004016107af929190611471565b60405180910390fd5b5f8273ffffffffffffffffffffffffffffffffffffffff16826040516107dd906116a3565b5f6040518083038185875af1925050503d805f8114610817576040519150601f19603f3d011682016040523d82523d5f602084013e61081c565b606091505b5050905080610857576040517fd6bda27500000000000000000000000000000000000000000000000000000000815260040160405180910390fd5b505050565b5f805f8061099b858060c00190610873919061154d565b8080601f0160208091040260200160405190810160405280939291908181526020018383808284375f81840152601f19601f8201169050808301925050505050505061098d7f7f96328b83274ebc7c1cf4f7a3abda602b51a78b7fa1d86a2ce353d75e587cac885f0160208101906108eb9190611025565b8960200160208101906108fe9190611025565b8a604001358b606001356109228d5f01602081019061091d9190611025565b61015e565b8d608001602081019061093591906114d3565b8e8060a00190610945919061154d565b6040516109539291906116b7565b60405180910390206040516020016109729897969594939291906116cf565b60405160208183030381529060405280519060200120610b87565b610ba090919063ffffffff16565b50915091505f60038111156109b3576109b261174b565b5b8160038111156109c6576109c561174b565b5b1482935093505050915091565b5f80306040516024016109e69190611778565b60405160208183030381529060405263572b6c0560e01b6020820180517bffffffffffffffffffffffffffffffffffffffffffffffffffffffff838183161783525050505090505f805f60205f855160208701895afa92503d91505f519050828015610a53575060208210155b8015610a5e57505f81115b945050505050919050565b606060ff5f1b8314610a8557610a7e83610bf5565b9050610b10565b818054610a91906117be565b80601f0160208091040260200160405190810160405280929190818152602001828054610abd906117be565b8015610b085780601f10610adf57610100808354040283529160200191610b08565b820191905f5260205f20905b815481529060010190602001808311610aeb57829003601f168201915b505050505090505b92915050565b5f60025f8373ffffffffffffffffffffffffffffffffffffffff1673ffffffffffffffffffffffffffffffffffffffff1681526020019081526020015f205f815480929190600101919050559050919050565b603f8160600135610b7a919061181b565b821015610b8357fe5b5050565b5f610b99610b93610c67565b83610d1d565b9050919050565b5f805f6041845103610be0575f805f602087015192506040870151915060608701515f1a9050610bd288828585610d5d565b955095509550505050610bee565b5f600285515f1b9250925092505b9250925092565b60605f610c0183610e44565b90505f602067ffffffffffffffff811115610c1f57610c1e611384565b5b6040519080825280601f01601f191660200182016040528015610c515781602001600182028036833780820191505090505b5090508181528360208201528092505050919050565b5f7f000000000000000000000000000000000000000000000000000000000000000073ffffffffffffffffffffffffffffffffffffffff163073ffffffffffffffffffffffffffffffffffffffff16148015610ce257507f000000000000000000000000000000000000000000000000000000000000000046145b15610d0f577f00000000000000000000000000000000000000000000000000000000000000009050610d1a565b610d17610e92565b90505b90565b5f6040517f190100000000000000000000000000000000000000000000000000000000000081528360028201528260228201526042812091505092915050565b5f805f7f7fffffffffffffffffffffffffffffff5d576e7357a4501ddfe92f46681b20a0845f1c1115610d99575f600385925092509250610e3a565b5f6001888888886040515f8152602001604052604051610dbc9493929190611866565b6020604051602081039080840390855afa158015610ddc573d5f803e3d5ffd5b5050506020604051035190505f73ffffffffffffffffffffffffffffffffffffffff168173ffffffffffffffffffffffffffffffffffffffff1603610e2d575f60015f801b93509350935050610e3a565b805f805f1b935093509350505b9450945094915050565b5f8060ff835f1c169050601f811115610e89576040517fb3512b0c00000000000000000000000000000000000000000000000000000000815260040160405180910390fd5b80915050919050565b5f7f8b73c3c69bb8fe3d512ecc4cf759cc79239f7b179b0ffacaa9a75d522b39400f7f00000000000000000000000000000000000000000000000000000000000000007f00000000000000000000000000000000000000000000000000000000000000004630604051602001610f0c9594939291906118a9565b60405160208183030381529060405280519060200120905090565b5f80fd5b5f80fd5b5f80fd5b5f60e08284031215610f4857610f47610f2f565b5b81905092915050565b5f60208284031215610f6657610f65610f27565b5b5f82013567ffffffffffffffff811115610f8357610f82610f2b565b5b610f8f84828501610f33565b91505092915050565b5f8115159050919050565b610fac81610f98565b82525050565b5f602082019050610fc55f830184610fa3565b92915050565b5f73ffffffffffffffffffffffffffffffffffffffff82169050919050565b5f610ff482610fcb565b9050919050565b61100481610fea565b811461100e575f80fd5b50565b5f8135905061101f81610ffb565b92915050565b5f6020828403121561103a57611039610f27565b5b5f61104784828501611011565b91505092915050565b5f819050919050565b61106281611050565b82525050565b5f60208201905061107b5f830184611059565b92915050565b5f7fff0000000000000000000000000000000000000000000000000000000000000082169050919050565b6110b581611081565b82525050565b5f81519050919050565b5f82825260208201905092915050565b8281835e5f83830152505050565b5f601f19601f8301169050919050565b5f6110fd826110bb565b61110781856110c5565b93506111178185602086016110d5565b611120816110e3565b840191505092915050565b61113481610fea565b82525050565b5f819050919050565b61114c8161113a565b82525050565b5f81519050919050565b5f82825260208201905092915050565b5f819050602082019050919050565b61118481611050565b82525050565b5f611195838361117b565b60208301905092915050565b5f602082019050919050565b5f6111b782611152565b6111c1818561115c565b93506111cc8361116c565b805f5b838110156111fc5781516111e3888261118a565b97506111ee836111a1565b9250506001810190506111cf565b5085935050505092915050565b5f60e08201905061121c5f83018a6110ac565b818103602083015261122e81896110f3565b9050818103604083015261124281886110f3565b90506112516060830187611059565b61125e608083018661112b565b61126b60a0830185611143565b81810360c083015261127d81846111ad565b905098975050505050505050565b5f80fd5b5f80fd5b5f80fd5b5f8083601f8401126112ac576112ab61128b565b5b8235905067ffffffffffffffff8111156112c9576112c861128f565b5b6020830191508360208202830111156112e5576112e4611293565b5b9250929050565b5f6112f682610fcb565b9050919050565b611306816112ec565b8114611310575f80fd5b50565b5f81359050611321816112fd565b92915050565b5f805f6040848603121561133e5761133d610f27565b5b5f84013567ffffffffffffffff81111561135b5761135a610f2b565b5b61136786828701611297565b9350935050602061137a86828701611313565b9150509250925092565b7f4e487b71000000000000000000000000000000000000000000000000000000005f52604160045260245ffd5b7f4e487b71000000000000000000000000000000000000000000000000000000005f52603260045260245ffd5b5f80fd5b5f80fd5b5f80fd5b5f8235600160e003833603038112611405576114046113de565b5b80830191505092915050565b7f4e487b71000000000000000000000000000000000000000000000000000000005f52601160045260245ffd5b5f61144882611050565b915061145383611050565b925082820190508082111561146b5761146a611411565b5b92915050565b5f6040820190506114845f830185611059565b6114916020830184611059565b9392505050565b5f65ffffffffffff82169050919050565b6114b281611498565b81146114bc575f80fd5b50565b5f813590506114cd816114a9565b92915050565b5f602082840312156114e8576114e7610f27565b5b5f6114f5848285016114bf565b91505092915050565b5f6040820190506115115f83018561112b565b61151e602083018461112b565b9392505050565b61152e81611498565b82525050565b5f6020820190506115475f830184611525565b92915050565b5f8083356001602003843603038112611569576115686113de565b5b80840192508235915067ffffffffffffffff82111561158b5761158a6113e2565b5b6020830192506001820236038313156115a7576115a66113e6565b5b509250929050565b5f81905092915050565b828183375f83830152505050565b5f6115d283856115af565b93506115df8385846115b9565b82840190509392505050565b5f8160601b9050919050565b5f611601826115eb565b9050919050565b5f611612826115f7565b9050919050565b61162a61162582610fea565b611608565b82525050565b5f61163c8285876115c7565b91506116488284611619565b601482019150819050949350505050565b5f60408201905061166c5f830185611059565b6116796020830184610fa3565b9392505050565b50565b5f61168e5f836115af565b915061169982611680565b5f82019050919050565b5f6116ad82611683565b9150819050919050565b5f6116c38284866115c7565b91508190509392505050565b5f610100820190506116e35f83018b611143565b6116f0602083018a61112b565b6116fd604083018961112b565b61170a6060830188611059565b6117176080830187611059565b61172460a0830186611059565b61173160c0830185611525565b61173e60e0830184611143565b9998505050505050505050565b7f4e487b71000000000000000000000000000000000000000000000000000000005f52602160045260245ffd5b5f60208201905061178b5f83018461112b565b92915050565b7f4e487b71000000000000000000000000000000000000000000000000000000005f52602260045260245ffd5b5f60028204905060018216806117d557607f821691505b6020821081036117e8576117e7611791565b5b50919050565b7f4e487b71000000000000000000000000000000000000000000000000000000005f52601260045260245ffd5b5f61182582611050565b915061183083611050565b9250826118405761183f6117ee565b5b828204905092915050565b5f60ff82169050919050565b6118608161184b565b82525050565b5f6080820190506118795f830187611143565b6118866020830186611857565b6118936040830185611143565b6118a06060830184611143565b95945050505050565b5f60a0820190506118bc5f830188611143565b6118c96020830187611143565b6118d66040830186611143565b6118e36060830185611059565b6118f0608083018461112b565b969550505050505056fea26469706673582212201b0db913681b33f69a407789d7a7b80cf8acb6de07417ed7fe1ea970a948f70264736f6c63430008190033",
    "linkReferences": {}
  },
  "methodIdentifiers": {
    "eip712Domain()": "84b0196e",
    "execute((address,address,uint256,uint256,uint48,bytes,bytes))": "df905caf",
    "executeBatch((address,address,uint256,uint256,uint48,bytes,bytes)[],address)": "ccf96b4a",
    "nonces(address)": "7ecebe00",
    "verify((address,address,uint256,uint256,uint48,bytes,bytes))": "19d8d38c"
  },
  "id": 22
}