{
    "_format": "hh-sol-artifact-1",
    "contractName": "SavingCircles",
    "sourceName": "contracts/SavingCircles.sol",
    "abi": [
        {
            "inputs": [],
            "stateMutability": "nonpayable",
            "type": "constructor"
        },
        {
            "inputs": [],
            "name": "AlreadyDeposited",
            "type": "error"
        },
        {
            "inputs": [],
            "name": "AlreadyExists",
            "type": "error"
        },
        {
            "inputs": [],
            "name": "InvalidCircle",
            "type": "error"
        },
        {
            "inputs": [],
            "name": "InvalidDeposit",
            "type": "error"
        },
        {
            "inputs": [],
            "name": "InvalidInitialization",
            "type": "error"
        },
        {
            "inputs": [],
            "name": "NotCommissioned",
            "type": "error"
        },
        {
            "inputs": [],
            "name": "NotDecommissionable",
            "type": "error"
        },
        {
            "inputs": [],
            "name": "NotInitializing",
            "type": "error"
        },
        {
            "inputs": [],
            "name": "NotMember",
            "type": "error"
        },
        {
            "inputs": [],
            "name": "NotWithdrawable",
            "type": "error"
        },
        {
            "inputs": [
                {
                    "internalType": "address",
                    "name": "owner",
                    "type": "address"
                }
            ],
            "name": "OwnableInvalidOwner",
            "type": "error"
        },
        {
            "inputs": [
                {
                    "internalType": "address",
                    "name": "account",
                    "type": "address"
                }
            ],
            "name": "OwnableUnauthorizedAccount",
            "type": "error"
        },
        {
            "inputs": [],
            "name": "ReentrancyGuardReentrantCall",
            "type": "error"
        },
        {
            "inputs": [],
            "name": "TransferFailed",
            "type": "error"
        },
        {
            "anonymous": false,
            "inputs": [
                {
                    "indexed": true,
                    "internalType": "uint256",
                    "name": "id",
                    "type": "uint256"
                },
                {
                    "indexed": false,
                    "internalType": "address[]",
                    "name": "members",
                    "type": "address[]"
                },
                {
                    "indexed": false,
                    "internalType": "address",
                    "name": "token",
                    "type": "address"
                },
                {
                    "indexed": false,
                    "internalType": "uint256",
                    "name": "depositAmount",
                    "type": "uint256"
                },
                {
                    "indexed": false,
                    "internalType": "uint256",
                    "name": "depositInterval",
                    "type": "uint256"
                }
            ],
            "name": "CircleCreated",
            "type": "event"
        },
        {
            "anonymous": false,
            "inputs": [
                {
                    "indexed": true,
                    "internalType": "uint256",
                    "name": "id",
                    "type": "uint256"
                }
            ],
            "name": "CircleDecommissioned",
            "type": "event"
        },
        {
            "anonymous": false,
            "inputs": [
                {
                    "indexed": true,
                    "internalType": "uint256",
                    "name": "id",
                    "type": "uint256"
                },
                {
                    "indexed": true,
                    "internalType": "address",
                    "name": "member",
                    "type": "address"
                },
                {
                    "indexed": false,
                    "internalType": "uint256",
                    "name": "amount",
                    "type": "uint256"
                }
            ],
            "name": "FundsDeposited",
            "type": "event"
        },
        {
            "anonymous": false,
            "inputs": [
                {
                    "indexed": true,
                    "internalType": "uint256",
                    "name": "id",
                    "type": "uint256"
                },
                {
                    "indexed": true,
                    "internalType": "address",
                    "name": "member",
                    "type": "address"
                },
                {
                    "indexed": false,
                    "internalType": "uint256",
                    "name": "amount",
                    "type": "uint256"
                }
            ],
            "name": "FundsWithdrawn",
            "type": "event"
        },
        {
            "anonymous": false,
            "inputs": [
                {
                    "indexed": false,
                    "internalType": "uint64",
                    "name": "version",
                    "type": "uint64"
                }
            ],
            "name": "Initialized",
            "type": "event"
        },
        {
            "anonymous": false,
            "inputs": [
                {
                    "indexed": true,
                    "internalType": "address",
                    "name": "previousOwner",
                    "type": "address"
                },
                {
                    "indexed": true,
                    "internalType": "address",
                    "name": "newOwner",
                    "type": "address"
                }
            ],
            "name": "OwnershipTransferred",
            "type": "event"
        },
        {
            "anonymous": false,
            "inputs": [
                {
                    "indexed": true,
                    "internalType": "address",
                    "name": "token",
                    "type": "address"
                },
                {
                    "indexed": true,
                    "internalType": "bool",
                    "name": "allowed",
                    "type": "bool"
                }
            ],
            "name": "TokenAllowed",
            "type": "event"
        },
        {
            "inputs": [],
            "name": "MINIMUM_MEMBERS",
            "outputs": [
                {
                    "internalType": "uint256",
                    "name": "",
                    "type": "uint256"
                }
            ],
            "stateMutability": "view",
            "type": "function"
        },
        {
            "inputs": [
                {
                    "internalType": "address",
                    "name": "token",
                    "type": "address"
                }
            ],
            "name": "allowedTokens",
            "outputs": [
                {
                    "internalType": "bool",
                    "name": "status",
                    "type": "bool"
                }
            ],
            "stateMutability": "view",
            "type": "function"
        },
        {
            "inputs": [
                {
                    "internalType": "uint256",
                    "name": "id",
                    "type": "uint256"
                },
                {
                    "internalType": "address",
                    "name": "token",
                    "type": "address"
                }
            ],
            "name": "balances",
            "outputs": [
                {
                    "internalType": "uint256",
                    "name": "balance",
                    "type": "uint256"
                }
            ],
            "stateMutability": "view",
            "type": "function"
        },
        {
            "inputs": [
                {
                    "internalType": "address",
                    "name": "_member",
                    "type": "address"
                },
                {
                    "internalType": "uint256[]",
                    "name": "_ids",
                    "type": "uint256[]"
                }
            ],
            "name": "checkMemberships",
            "outputs": [
                {
                    "internalType": "bool[]",
                    "name": "_statuses",
                    "type": "bool[]"
                }
            ],
            "stateMutability": "view",
            "type": "function"
        },
        {
            "inputs": [
                {
                    "internalType": "uint256",
                    "name": "id",
                    "type": "uint256"
                }
            ],
            "name": "circles",
            "outputs": [
                {
                    "internalType": "address",
                    "name": "owner",
                    "type": "address"
                },
                {
                    "internalType": "uint256",
                    "name": "currentIndex",
                    "type": "uint256"
                },
                {
                    "internalType": "uint256",
                    "name": "depositAmount",
                    "type": "uint256"
                },
                {
                    "internalType": "address",
                    "name": "token",
                    "type": "address"
                },
                {
                    "internalType": "uint256",
                    "name": "depositInterval",
                    "type": "uint256"
                },
                {
                    "internalType": "uint256",
                    "name": "circleStart",
                    "type": "uint256"
                },
                {
                    "internalType": "uint256",
                    "name": "maxDeposits",
                    "type": "uint256"
                }
            ],
            "stateMutability": "view",
            "type": "function"
        },
        {
            "inputs": [
                {
                    "components": [
                        {
                            "internalType": "address",
                            "name": "owner",
                            "type": "address"
                        },
                        {
                            "internalType": "address[]",
                            "name": "members",
                            "type": "address[]"
                        },
                        {
                            "internalType": "uint256",
                            "name": "currentIndex",
                            "type": "uint256"
                        },
                        {
                            "internalType": "uint256",
                            "name": "depositAmount",
                            "type": "uint256"
                        },
                        {
                            "internalType": "address",
                            "name": "token",
                            "type": "address"
                        },
                        {
                            "internalType": "uint256",
                            "name": "depositInterval",
                            "type": "uint256"
                        },
                        {
                            "internalType": "uint256",
                            "name": "circleStart",
                            "type": "uint256"
                        },
                        {
                            "internalType": "uint256",
                            "name": "maxDeposits",
                            "type": "uint256"
                        }
                    ],
                    "internalType": "struct ISavingCircles.Circle",
                    "name": "_circle",
                    "type": "tuple"
                }
            ],
            "name": "create",
            "outputs": [
                {
                    "internalType": "uint256",
                    "name": "_id",
                    "type": "uint256"
                }
            ],
            "stateMutability": "nonpayable",
            "type": "function"
        },
        {
            "inputs": [
                {
                    "internalType": "uint256",
                    "name": "_id",
                    "type": "uint256"
                }
            ],
            "name": "decommission",
            "outputs": [],
            "stateMutability": "nonpayable",
            "type": "function"
        },
        {
            "inputs": [
                {
                    "internalType": "uint256",
                    "name": "_id",
                    "type": "uint256"
                },
                {
                    "internalType": "uint256",
                    "name": "_value",
                    "type": "uint256"
                }
            ],
            "name": "deposit",
            "outputs": [],
            "stateMutability": "nonpayable",
            "type": "function"
        },
        {
            "inputs": [
                {
                    "internalType": "uint256",
                    "name": "_id",
                    "type": "uint256"
                },
                {
                    "internalType": "uint256",
                    "name": "_value",
                    "type": "uint256"
                },
                {
                    "internalType": "address",
                    "name": "_member",
                    "type": "address"
                }
            ],
            "name": "depositFor",
            "outputs": [],
            "stateMutability": "nonpayable",
            "type": "function"
        },
        {
            "inputs": [
                {
                    "internalType": "uint256",
                    "name": "_id",
                    "type": "uint256"
                }
            ],
            "name": "getCircle",
            "outputs": [
                {
                    "components": [
                        {
                            "internalType": "address",
                            "name": "owner",
                            "type": "address"
                        },
                        {
                            "internalType": "address[]",
                            "name": "members",
                            "type": "address[]"
                        },
                        {
                            "internalType": "uint256",
                            "name": "currentIndex",
                            "type": "uint256"
                        },
                        {
                            "internalType": "uint256",
                            "name": "depositAmount",
                            "type": "uint256"
                        },
                        {
                            "internalType": "address",
                            "name": "token",
                            "type": "address"
                        },
                        {
                            "internalType": "uint256",
                            "name": "depositInterval",
                            "type": "uint256"
                        },
                        {
                            "internalType": "uint256",
                            "name": "circleStart",
                            "type": "uint256"
                        },
                        {
                            "internalType": "uint256",
                            "name": "maxDeposits",
                            "type": "uint256"
                        }
                    ],
                    "internalType": "struct ISavingCircles.Circle",
                    "name": "_circle",
                    "type": "tuple"
                }
            ],
            "stateMutability": "view",
            "type": "function"
        },
        {
            "inputs": [
                {
                    "internalType": "uint256[]",
                    "name": "_ids",
                    "type": "uint256[]"
                }
            ],
            "name": "getCircles",
            "outputs": [
                {
                    "components": [
                        {
                            "internalType": "address",
                            "name": "owner",
                            "type": "address"
                        },
                        {
                            "internalType": "address[]",
                            "name": "members",
                            "type": "address[]"
                        },
                        {
                            "internalType": "uint256",
                            "name": "currentIndex",
                            "type": "uint256"
                        },
                        {
                            "internalType": "uint256",
                            "name": "depositAmount",
                            "type": "uint256"
                        },
                        {
                            "internalType": "address",
                            "name": "token",
                            "type": "address"
                        },
                        {
                            "internalType": "uint256",
                            "name": "depositInterval",
                            "type": "uint256"
                        },
                        {
                            "internalType": "uint256",
                            "name": "circleStart",
                            "type": "uint256"
                        },
                        {
                            "internalType": "uint256",
                            "name": "maxDeposits",
                            "type": "uint256"
                        }
                    ],
                    "internalType": "struct ISavingCircles.Circle[]",
                    "name": "_circles",
                    "type": "tuple[]"
                }
            ],
            "stateMutability": "view",
            "type": "function"
        },
        {
            "inputs": [
                {
                    "internalType": "uint256",
                    "name": "_id",
                    "type": "uint256"
                }
            ],
            "name": "getMemberBalances",
            "outputs": [
                {
                    "internalType": "address[]",
                    "name": "_members",
                    "type": "address[]"
                },
                {
                    "internalType": "uint256[]",
                    "name": "_balances",
                    "type": "uint256[]"
                }
            ],
            "stateMutability": "view",
            "type": "function"
        },
        {
            "inputs": [
                {
                    "internalType": "address",
                    "name": "_member",
                    "type": "address"
                }
            ],
            "name": "getMemberCircles",
            "outputs": [
                {
                    "internalType": "uint256[]",
                    "name": "_ids",
                    "type": "uint256[]"
                }
            ],
            "stateMutability": "view",
            "type": "function"
        },
        {
            "inputs": [
                {
                    "internalType": "address",
                    "name": "_owner",
                    "type": "address"
                }
            ],
            "name": "initialize",
            "outputs": [],
            "stateMutability": "nonpayable",
            "type": "function"
        },
        {
            "inputs": [
                {
                    "internalType": "uint256",
                    "name": "id",
                    "type": "uint256"
                },
                {
                    "internalType": "address",
                    "name": "member",
                    "type": "address"
                }
            ],
            "name": "isMember",
            "outputs": [
                {
                    "internalType": "bool",
                    "name": "status",
                    "type": "bool"
                }
            ],
            "stateMutability": "view",
            "type": "function"
        },
        {
            "inputs": [
                {
                    "internalType": "address",
                    "name": "_token",
                    "type": "address"
                }
            ],
            "name": "isTokenAllowed",
            "outputs": [
                {
                    "internalType": "bool",
                    "name": "",
                    "type": "bool"
                }
            ],
            "stateMutability": "view",
            "type": "function"
        },
        {
            "inputs": [
                {
                    "internalType": "uint256",
                    "name": "_id",
                    "type": "uint256"
                }
            ],
            "name": "isWithdrawable",
            "outputs": [
                {
                    "internalType": "bool",
                    "name": "",
                    "type": "bool"
                }
            ],
            "stateMutability": "view",
            "type": "function"
        },
        {
            "inputs": [
                {
                    "internalType": "address",
                    "name": "member",
                    "type": "address"
                },
                {
                    "internalType": "uint256",
                    "name": "",
                    "type": "uint256"
                }
            ],
            "name": "memberCircles",
            "outputs": [
                {
                    "internalType": "uint256",
                    "name": "ids",
                    "type": "uint256"
                }
            ],
            "stateMutability": "view",
            "type": "function"
        },
        {
            "inputs": [],
            "name": "nextId",
            "outputs": [
                {
                    "internalType": "uint256",
                    "name": "",
                    "type": "uint256"
                }
            ],
            "stateMutability": "view",
            "type": "function"
        },
        {
            "inputs": [],
            "name": "owner",
            "outputs": [
                {
                    "internalType": "address",
                    "name": "",
                    "type": "address"
                }
            ],
            "stateMutability": "view",
            "type": "function"
        },
        {
            "inputs": [],
            "name": "renounceOwnership",
            "outputs": [],
            "stateMutability": "nonpayable",
            "type": "function"
        },
        {
            "inputs": [
                {
                    "internalType": "address",
                    "name": "_token",
                    "type": "address"
                },
                {
                    "internalType": "bool",
                    "name": "_allowed",
                    "type": "bool"
                }
            ],
            "name": "setTokenAllowed",
            "outputs": [],
            "stateMutability": "nonpayable",
            "type": "function"
        },
        {
            "inputs": [
                {
                    "internalType": "address",
                    "name": "newOwner",
                    "type": "address"
                }
            ],
            "name": "transferOwnership",
            "outputs": [],
            "stateMutability": "nonpayable",
            "type": "function"
        },
        {
            "inputs": [
                {
                    "internalType": "uint256",
                    "name": "_id",
                    "type": "uint256"
                }
            ],
            "name": "withdraw",
            "outputs": [],
            "stateMutability": "nonpayable",
            "type": "function"
        },
        {
            "inputs": [
                {
                    "internalType": "uint256",
                    "name": "_id",
                    "type": "uint256"
                },
                {
                    "internalType": "address",
                    "name": "_member",
                    "type": "address"
                }
            ],
            "name": "withdrawFor",
            "outputs": [],
            "stateMutability": "nonpayable",
            "type": "function"
        },
        {
            "inputs": [
                {
                    "internalType": "uint256",
                    "name": "_id",
                    "type": "uint256"
                }
            ],
            "name": "withdrawableBy",
            "outputs": [
                {
                    "internalType": "address",
                    "name": "",
                    "type": "address"
                }
            ],
            "stateMutability": "view",
            "type": "function"
        }
    ],
    "bytecode": "0x608060405234801561001057600080fd5b5061001f61002460201b60201c565b61018e565b600061003461012860201b60201c565b90508060000160089054906101000a900460ff161561007f576040517ff92ee8a900000000000000000000000000000000000000000000000000000000815260040160405180910390fd5b67ffffffffffffffff80168160000160009054906101000a900467ffffffffffffffff1667ffffffffffffffff16146101255767ffffffffffffffff8160000160006101000a81548167ffffffffffffffff021916908367ffffffffffffffff1602179055507fc7f505b2f371ae2175ee4913f4499e1f2633a7b5936321eed1cdaeb6115181d267ffffffffffffffff60405161011c9190610173565b60405180910390a15b50565b60007ff0c57e16840df040f15088dc2f81fe391c3923bec73e23a9662efc9c229c6a00905090565b600067ffffffffffffffff82169050919050565b61016d81610150565b82525050565b60006020820190506101886000830184610164565b92915050565b6140178061019d6000396000f3fe608060405234801561001057600080fd5b506004361061018e5760003560e01c80637efcb1d9116100de578063bc5e0f3011610097578063e2bbb15811610071578063e2bbb158146104e6578063e744092e14610502578063f2fde38b14610532578063f9eaee0d1461054e5761018e565b8063bc5e0f3014610464578063c4d66de81461049a578063e2aa53eb146104b65761018e565b80637efcb1d9146103905780638da5cb5b146103c057806390210d7e146103de5780639ed834c2146103fa578063a521c46114610418578063bb2222b1146104485761018e565b80633576f6cc1161014b57806364ccecde1161012557806364ccecde146102f6578063715018a6146103265780637980ece8146103305780637d9e10f5146103605761018e565b80633576f6cc1461028c5780633bc0afef146102a857806361b8ce8c146102d85761018e565b80630a9ea2501461019357806315f69012146101c35780631f320331146101df5780632b42ac711461020f5780632e1a7d4d146102405780633252f74f1461025c575b600080fd5b6101ad60048036038101906101a891906130af565b61057e565b6040516101ba919061311d565b60405180910390f35b6101dd60048036038101906101d8919061319c565b610779565b005b6101f960048036038101906101f491906131dc565b610822565b604051610206919061322b565b60405180910390f35b610229600480360381019061022491906130af565b610847565b6040516102379291906133c2565b60405180910390f35b61025a600480360381019061025591906130af565b610b22565b005b610276600480360381019061027191906133f9565b610b3f565b604051610283919061322b565b60405180910390f35b6102a660048036038101906102a191906131dc565b610b70565b005b6102c260048036038101906102bd919061349e565b610b8e565b6040516102cf91906135bc565b60405180910390f35b6102e0610c9d565b6040516102ed919061322b565b60405180910390f35b610310600480360381019061030b91906130af565b610ca3565b60405161031d91906136fd565b60405180910390f35b61032e610e7d565b005b61034a6004803603810190610345919061371f565b610e91565b604051610357919061374c565b60405180910390f35b61037a600480360381019061037591906131dc565b610f28565b604051610387919061377d565b60405180910390f35b6103aa60048036038101906103a59190613798565b610f57565b6040516103b79190613957565b60405180910390f35b6103c8611196565b6040516103d5919061311d565b60405180910390f35b6103f860048036038101906103f39190613979565b6111ce565b005b6104026111ee565b60405161040f919061322b565b60405180910390f35b610432600480360381019061042d91906130af565b6111f3565b60405161043f919061377d565b60405180910390f35b610462600480360381019061045d91906130af565b611205565b005b61047e600480360381019061047991906130af565b611734565b60405161049197969594939291906139cc565b60405180910390f35b6104b460048036038101906104af919061371f565b6117b6565b005b6104d060048036038101906104cb9190613c7a565b61194d565b6040516104dd919061322b565b60405180910390f35b61050060048036038101906104fb9190613cc3565b611de1565b005b61051c6004803603810190610517919061371f565b611e00565b604051610529919061377d565b60405180910390f35b61054c6004803603810190610547919061371f565b611e20565b005b6105686004803603810190610563919061371f565b611ea6565b604051610575919061377d565b60405180910390f35b60008060016000848152602001908152602001600020604051806101000160405290816000820160009054906101000a900473ffffffffffffffffffffffffffffffffffffffff1673ffffffffffffffffffffffffffffffffffffffff1673ffffffffffffffffffffffffffffffffffffffff1681526020016001820180548060200260200160405190810160405280929190818152602001828054801561067b57602002820191906000526020600020905b8160009054906101000a900473ffffffffffffffffffffffffffffffffffffffff1673ffffffffffffffffffffffffffffffffffffffff1681526020019060010190808311610631575b5050505050815260200160028201548152602001600382015481526020016004820160009054906101000a900473ffffffffffffffffffffffffffffffffffffffff1673ffffffffffffffffffffffffffffffffffffffff1673ffffffffffffffffffffffffffffffffffffffff1681526020016005820154815260200160068201548152602001600782015481525050905061071781611efc565b1561074e576040517fb695f80000000000000000000000000000000000000000000000000000000000815260040160405180910390fd5b806020015181604001518151811061076957610768613d03565b5b6020026020010151915050919050565b610781611f38565b80600560008473ffffffffffffffffffffffffffffffffffffffff1673ffffffffffffffffffffffffffffffffffffffff16815260200190815260200160002060006101000a81548160ff0219169083151502179055508015158273ffffffffffffffffffffffffffffffffffffffff167f9a8e30a8658b96ab3f034ce4bac6806278b4aee5880ccdd1ac35e4ed5bb31d2360405160405180910390a35050565b6002602052816000526040600020602052806000526040600020600091509150505481565b606080600060016000858152602001908152602001600020604051806101000160405290816000820160009054906101000a900473ffffffffffffffffffffffffffffffffffffffff1673ffffffffffffffffffffffffffffffffffffffff1673ffffffffffffffffffffffffffffffffffffffff1681526020016001820180548060200260200160405190810160405280929190818152602001828054801561094657602002820191906000526020600020905b8160009054906101000a900473ffffffffffffffffffffffffffffffffffffffff1673ffffffffffffffffffffffffffffffffffffffff16815260200190600101908083116108fc575b5050505050815260200160028201548152602001600382015481526020016004820160009054906101000a900473ffffffffffffffffffffffffffffffffffffffff1673ffffffffffffffffffffffffffffffffffffffff1673ffffffffffffffffffffffffffffffffffffffff168152602001600582015481526020016006820154815260200160078201548152505090506109e281611efc565b15610a19576040517fb695f80000000000000000000000000000000000000000000000000000000000815260040160405180910390fd5b80602001515167ffffffffffffffff811115610a3857610a37613a51565b5b604051908082528060200260200182016040528015610a665781602001602082028036833780820191505090505b50915060005b816020015151811015610b145760026000868152602001908152602001600020600083602001518381518110610aa557610aa4613d03565b5b602002602001015173ffffffffffffffffffffffffffffffffffffffff1673ffffffffffffffffffffffffffffffffffffffff16815260200190815260200160002054838281518110610afb57610afa613d03565b5b6020026020010181815250508080600101915050610a6c565b508060200151925050915091565b610b2a611fbf565b610b348133612016565b610b3c612419565b50565b60046020528160005260406000208181548110610b5b57600080fd5b90600052602060002001600091509150505481565b610b78611fbf565b610b828282612016565b610b8a612419565b5050565b60608282905067ffffffffffffffff811115610bad57610bac613a51565b5b604051908082528060200260200182016040528015610bdb5781602001602082028036833780820191505090505b50905060005b83839050811015610c955760036000858584818110610c0357610c02613d03565b5b90506020020135815260200190815260200160002060008673ffffffffffffffffffffffffffffffffffffffff1673ffffffffffffffffffffffffffffffffffffffff16815260200190815260200160002060009054906101000a900460ff16828281518110610c7657610c75613d03565b5b6020026020010190151590811515815250508080600101915050610be1565b509392505050565b60005481565b610cab612f2c565b60016000838152602001908152602001600020604051806101000160405290816000820160009054906101000a900473ffffffffffffffffffffffffffffffffffffffff1673ffffffffffffffffffffffffffffffffffffffff1673ffffffffffffffffffffffffffffffffffffffff16815260200160018201805480602002602001604051908101604052809291908181526020018280548015610da557602002820191906000526020600020905b8160009054906101000a900473ffffffffffffffffffffffffffffffffffffffff1673ffffffffffffffffffffffffffffffffffffffff1681526020019060010190808311610d5b575b5050505050815260200160028201548152602001600382015481526020016004820160009054906101000a900473ffffffffffffffffffffffffffffffffffffffff1673ffffffffffffffffffffffffffffffffffffffff1673ffffffffffffffffffffffffffffffffffffffff16815260200160058201548152602001600682015481526020016007820154815250509050610e4181611efc565b15610e78576040517fb695f80000000000000000000000000000000000000000000000000000000000815260040160405180910390fd5b919050565b610e85611f38565b610e8f6000612432565b565b6060600460008373ffffffffffffffffffffffffffffffffffffffff1673ffffffffffffffffffffffffffffffffffffffff168152602001908152602001600020805480602002602001604051908101604052809291908181526020018280548015610f1c57602002820191906000526020600020905b815481526020019060010190808311610f08575b50505050509050919050565b60036020528160005260406000206020528060005260406000206000915091509054906101000a900460ff1681565b60608282905067ffffffffffffffff811115610f7657610f75613a51565b5b604051908082528060200260200182016040528015610faf57816020015b610f9c612f2c565b815260200190600190039081610f945790505b50905060005b8383905081101561118f5760016000858584818110610fd757610fd6613d03565b5b905060200201358152602001908152602001600020604051806101000160405290816000820160009054906101000a900473ffffffffffffffffffffffffffffffffffffffff1673ffffffffffffffffffffffffffffffffffffffff1673ffffffffffffffffffffffffffffffffffffffff168152602001600182018054806020026020016040519081016040528092919081815260200182805480156110d357602002820191906000526020600020905b8160009054906101000a900473ffffffffffffffffffffffffffffffffffffffff1673ffffffffffffffffffffffffffffffffffffffff1681526020019060010190808311611089575b5050505050815260200160028201548152602001600382015481526020016004820160009054906101000a900473ffffffffffffffffffffffffffffffffffffffff1673ffffffffffffffffffffffffffffffffffffffff1673ffffffffffffffffffffffffffffffffffffffff168152602001600582015481526020016006820154815260200160078201548152505082828151811061117757611176613d03565b5b60200260200101819052508080600101915050610fb5565b5092915050565b6000806111a1612509565b90508060000160009054906101000a900473ffffffffffffffffffffffffffffffffffffffff1691505090565b6111d6611fbf565b6111e1838383612531565b6111e9612419565b505050565b600281565b60006111fe82612af5565b9050919050565b60006001600083815260200190815260200160002090503373ffffffffffffffffffffffffffffffffffffffff168160000160009054906101000a900473ffffffffffffffffffffffffffffffffffffffff1673ffffffffffffffffffffffffffffffffffffffff161461146d576003600083815260200190815260200160002060003373ffffffffffffffffffffffffffffffffffffffff1673ffffffffffffffffffffffffffffffffffffffff16815260200190815260200160002060009054906101000a900460ff16611307576040517f291fc44200000000000000000000000000000000000000000000000000000000815260040160405180910390fd5b600181600201546113189190613d61565b81600501546113279190613d95565b81600601546113369190613d61565b421161136e576040517f9a837a4900000000000000000000000000000000000000000000000000000000815260040160405180910390fd5b6000805b82600101805490508110156114335782600301546002600086815260200190815260200160002060008560010184815481106113b1576113b0613d03565b5b9060005260206000200160009054906101000a900473ffffffffffffffffffffffffffffffffffffffff1673ffffffffffffffffffffffffffffffffffffffff1673ffffffffffffffffffffffffffffffffffffffff1681526020019081526020016000205410156114265760019150611433565b8080600101915050611372565b508061146b576040517f9a837a4900000000000000000000000000000000000000000000000000000000815260040160405180910390fd5b505b60005b816001018054905081101561166657600082600101828154811061149757611496613d03565b5b9060005260206000200160009054906101000a900473ffffffffffffffffffffffffffffffffffffffff16905060006002600086815260200190815260200160002060008373ffffffffffffffffffffffffffffffffffffffff1673ffffffffffffffffffffffffffffffffffffffff16815260200190815260200160002054905060008111156116575760006002600087815260200190815260200160002060008473ffffffffffffffffffffffffffffffffffffffff1673ffffffffffffffffffffffffffffffffffffffff1681526020019081526020016000208190555060008460040160009054906101000a900473ffffffffffffffffffffffffffffffffffffffff1673ffffffffffffffffffffffffffffffffffffffff1663a9059cbb84846040518363ffffffff1660e01b81526004016115d9929190613dd7565b6020604051808303816000875af11580156115f8573d6000803e3d6000fd5b505050506040513d601f19601f8201168201806040525081019061161c9190613e15565b905080611655576040517f90b8ec1800000000000000000000000000000000000000000000000000000000815260040160405180910390fd5b505b50508080600101915050611470565b5060016000838152602001908152602001600020600080820160006101000a81549073ffffffffffffffffffffffffffffffffffffffff02191690556001820160006116b29190612f9d565b600282016000905560038201600090556004820160006101000a81549073ffffffffffffffffffffffffffffffffffffffff02191690556005820160009055600682016000905560078201600090555050817fa2b35c0836ebf5f3f9b7d4ccbc6859836e72af67ff975ec21011e970d978e1ac60405160405180910390a25050565b60016020528060005260406000206000915090508060000160009054906101000a900473ffffffffffffffffffffffffffffffffffffffff16908060020154908060030154908060040160009054906101000a900473ffffffffffffffffffffffffffffffffffffffff16908060050154908060060154908060070154905087565b60006117c0612da7565b905060008160000160089054906101000a900460ff1615905060008260000160009054906101000a900467ffffffffffffffff1690506000808267ffffffffffffffff1614801561180e5750825b9050600060018367ffffffffffffffff16148015611843575060003073ffffffffffffffffffffffffffffffffffffffff163b145b905081158015611851575080155b15611888576040517ff92ee8a900000000000000000000000000000000000000000000000000000000815260040160405180910390fd5b60018560000160006101000a81548167ffffffffffffffff021916908367ffffffffffffffff16021790555083156118d85760018560000160086101000a81548160ff0219169083151502179055505b6118e0612dcf565b6118e986612de1565b83156119455760008560000160086101000a81548160ff0219169083151502179055507fc7f505b2f371ae2175ee4913f4499e1f2633a7b5936321eed1cdaeb6115181d2600160405161193c9190613e9b565b60405180910390a15b505050505050565b600080600081548092919061196190613eb6565b919050559050600073ffffffffffffffffffffffffffffffffffffffff166001600083815260200190815260200160002060000160009054906101000a900473ffffffffffffffffffffffffffffffffffffffff1673ffffffffffffffffffffffffffffffffffffffff1614611a03576040517f23369fa600000000000000000000000000000000000000000000000000000000815260040160405180910390fd5b60056000836080015173ffffffffffffffffffffffffffffffffffffffff1673ffffffffffffffffffffffffffffffffffffffff16815260200190815260200160002060009054906101000a900460ff161580611a64575060008260a00151145b80611a73575060008260600151145b80611a82575060008260e00151145b80611a91575060008260c00151145b80611aa157506000826040015114155b80611adc5750600073ffffffffffffffffffffffffffffffffffffffff16826000015173ffffffffffffffffffffffffffffffffffffffff16145b80611aec57506002826020015151105b15611b23576040517f5f61189e00000000000000000000000000000000000000000000000000000000815260040160405180910390fd5b60005b826020015151811015611c9957600083602001518281518110611b4c57611b4b613d03565b5b60200260200101519050600073ffffffffffffffffffffffffffffffffffffffff168173ffffffffffffffffffffffffffffffffffffffff1603611bbc576040517f5f61189e00000000000000000000000000000000000000000000000000000000815260040160405180910390fd5b60016003600085815260200190815260200160002060008373ffffffffffffffffffffffffffffffffffffffff1673ffffffffffffffffffffffffffffffffffffffff16815260200190815260200160002060006101000a81548160ff021916908315150217905550600460008273ffffffffffffffffffffffffffffffffffffffff1673ffffffffffffffffffffffffffffffffffffffff168152602001908152602001600020839080600181540180825580915050600190039060005260206000200160009091909190915055508080600101915050611b26565b50816001600083815260200190815260200160002060008201518160000160006101000a81548173ffffffffffffffffffffffffffffffffffffffff021916908373ffffffffffffffffffffffffffffffffffffffff1602179055506020820151816001019080519060200190611d11929190612fbe565b50604082015181600201556060820151816003015560808201518160040160006101000a81548173ffffffffffffffffffffffffffffffffffffffff021916908373ffffffffffffffffffffffffffffffffffffffff16021790555060a0820151816005015560c0820151816006015560e08201518160070155905050807f9e48ae9b1ed7a1ba9807a400da7c9d52486c164a6e4348735aaf08c23a38ec528360200151846080015185606001518660a00151604051611dd49493929190613efe565b60405180910390a2919050565b611de9611fbf565b611df4828233612531565b611dfc612419565b5050565b60056020528060005260406000206000915054906101000a900460ff1681565b611e28611f38565b600073ffffffffffffffffffffffffffffffffffffffff168173ffffffffffffffffffffffffffffffffffffffff1603611e9a5760006040517f1e4fbdf7000000000000000000000000000000000000000000000000000000008152600401611e91919061311d565b60405180910390fd5b611ea381612432565b50565b6000600560008373ffffffffffffffffffffffffffffffffffffffff1673ffffffffffffffffffffffffffffffffffffffff16815260200190815260200160002060009054906101000a900460ff169050919050565b60008073ffffffffffffffffffffffffffffffffffffffff16826000015173ffffffffffffffffffffffffffffffffffffffff16149050919050565b611f40612df5565b73ffffffffffffffffffffffffffffffffffffffff16611f5e611196565b73ffffffffffffffffffffffffffffffffffffffff1614611fbd57611f81612df5565b6040517f118cdaa7000000000000000000000000000000000000000000000000000000008152600401611fb4919061311d565b60405180910390fd5b565b6000611fc9612dfd565b90506002816000015403612009576040517f3ee5aeb500000000000000000000000000000000000000000000000000000000815260040160405180910390fd5b6002816000018190555050565b60006001600084815260200190815260200160002090506003600084815260200190815260200160002060003373ffffffffffffffffffffffffffffffffffffffff1673ffffffffffffffffffffffffffffffffffffffff16815260200190815260200160002060009054906101000a900460ff166120c1576040517f291fc44200000000000000000000000000000000000000000000000000000000815260040160405180910390fd5b6120ca83612af5565b612100576040517f28c5214b00000000000000000000000000000000000000000000000000000000815260040160405180910390fd5b8173ffffffffffffffffffffffffffffffffffffffff168160010182600201548154811061213157612130613d03565b5b9060005260206000200160009054906101000a900473ffffffffffffffffffffffffffffffffffffffff1673ffffffffffffffffffffffffffffffffffffffff16146121a9576040517f28c5214b00000000000000000000000000000000000000000000000000000000815260040160405180910390fd5b80600701548160020154106121ea576040517f28c5214b00000000000000000000000000000000000000000000000000000000815260040160405180910390fd5b6000816001018054905082600301546122039190613d95565b905060005b82600101805490508110156122ba57600060026000878152602001908152602001600020600085600101848154811061224457612243613d03565b5b9060005260206000200160009054906101000a900473ffffffffffffffffffffffffffffffffffffffff1673ffffffffffffffffffffffffffffffffffffffff1673ffffffffffffffffffffffffffffffffffffffff168152602001908152602001600020819055508080600101915050612208565b508160010180549050600183600201546122d49190613d61565b6122de9190613f79565b826002018190555060008260040160009054906101000a900473ffffffffffffffffffffffffffffffffffffffff1673ffffffffffffffffffffffffffffffffffffffff1663a9059cbb85846040518363ffffffff1660e01b8152600401612347929190613dd7565b6020604051808303816000875af1158015612366573d6000803e3d6000fd5b505050506040513d601f19601f8201168201806040525081019061238a9190613e15565b9050806123c3576040517f90b8ec1800000000000000000000000000000000000000000000000000000000815260040160405180910390fd5b8373ffffffffffffffffffffffffffffffffffffffff16857ff440aec6b52895984d061d622e6edeba6210f7c3e059be920663140c084560d78460405161240a919061322b565b60405180910390a35050505050565b6000612423612dfd565b90506001816000018190555050565b600061243c612509565b905060008160000160009054906101000a900473ffffffffffffffffffffffffffffffffffffffff169050828260000160006101000a81548173ffffffffffffffffffffffffffffffffffffffff021916908373ffffffffffffffffffffffffffffffffffffffff1602179055508273ffffffffffffffffffffffffffffffffffffffff168173ffffffffffffffffffffffffffffffffffffffff167f8be0079c531659141344cd1fd0a4f28419497f9722a3daafe3b4186f6b6457e060405160405180910390a3505050565b60007f9016d09d72d40fdae2fd8ceac6b6234c7706214fd39c1cd1e609a0528c199300905090565b600060016000858152602001908152602001600020604051806101000160405290816000820160009054906101000a900473ffffffffffffffffffffffffffffffffffffffff1673ffffffffffffffffffffffffffffffffffffffff1673ffffffffffffffffffffffffffffffffffffffff1681526020016001820180548060200260200160405190810160405280929190818152602001828054801561262d57602002820191906000526020600020905b8160009054906101000a900473ffffffffffffffffffffffffffffffffffffffff1673ffffffffffffffffffffffffffffffffffffffff16815260200190600101908083116125e3575b5050505050815260200160028201548152602001600382015481526020016004820160009054906101000a900473ffffffffffffffffffffffffffffffffffffffff1673ffffffffffffffffffffffffffffffffffffffff1673ffffffffffffffffffffffffffffffffffffffff168152602001600582015481526020016006820154815260200160078201548152505090506126c981611efc565b15612700576040517fb695f80000000000000000000000000000000000000000000000000000000000815260040160405180910390fd5b6003600085815260200190815260200160002060008373ffffffffffffffffffffffffffffffffffffffff1673ffffffffffffffffffffffffffffffffffffffff16815260200190815260200160002060009054906101000a900460ff16612794576040517f291fc44200000000000000000000000000000000000000000000000000000000815260040160405180910390fd5b600160008581526020019081526020016000206006015442108061281b57506001806000868152602001908152602001600020600201546127d59190613d61565b60016000868152602001908152602001600020600501546127f69190613d95565b60016000868152602001908152602001600020600601546128179190613d61565b4210155b8061287e5750600160008581526020019081526020016000206007015460016000868152602001908152602001600020600501546128599190613d95565b600160008681526020019081526020016000206006015461287a9190613d61565b4210155b806128f957506001600085815260200190815260200160002060030154836002600087815260200190815260200160002060008573ffffffffffffffffffffffffffffffffffffffff1673ffffffffffffffffffffffffffffffffffffffff168152602001908152602001600020546128f79190613d61565b115b15612930576040517fb2e532de00000000000000000000000000000000000000000000000000000000815260040160405180910390fd5b826002600086815260200190815260200160002060008473ffffffffffffffffffffffffffffffffffffffff1673ffffffffffffffffffffffffffffffffffffffff1681526020019081526020016000205461298c9190613d61565b6002600086815260200190815260200160002060008473ffffffffffffffffffffffffffffffffffffffff1673ffffffffffffffffffffffffffffffffffffffff168152602001908152602001600020819055506000816080015173ffffffffffffffffffffffffffffffffffffffff166323b872dd3330876040518463ffffffff1660e01b8152600401612a2393929190613faa565b6020604051808303816000875af1158015612a42573d6000803e3d6000fd5b505050506040513d601f19601f82011682018060405250810190612a669190613e15565b905080612a9f576040517f90b8ec1800000000000000000000000000000000000000000000000000000000815260040160405180910390fd5b8273ffffffffffffffffffffffffffffffffffffffff16857fe030e47e27825a2ad1b19e4cf2e70bfbfb3124af275c7727a82b114ba7b29a8586604051612ae6919061322b565b60405180910390a35050505050565b60008060016000848152602001908152602001600020604051806101000160405290816000820160009054906101000a900473ffffffffffffffffffffffffffffffffffffffff1673ffffffffffffffffffffffffffffffffffffffff1673ffffffffffffffffffffffffffffffffffffffff16815260200160018201805480602002602001604051908101604052809291908181526020018280548015612bf257602002820191906000526020600020905b8160009054906101000a900473ffffffffffffffffffffffffffffffffffffffff1673ffffffffffffffffffffffffffffffffffffffff1681526020019060010190808311612ba8575b5050505050815260200160028201548152602001600382015481526020016004820160009054906101000a900473ffffffffffffffffffffffffffffffffffffffff1673ffffffffffffffffffffffffffffffffffffffff1673ffffffffffffffffffffffffffffffffffffffff16815260200160058201548152602001600682015481526020016007820154815250509050612c8e81611efc565b15612cc5576040517fb695f80000000000000000000000000000000000000000000000000000000000815260040160405180910390fd5b80604001518160a00151612cd99190613d95565b8160c00151612ce89190613d61565b421015612cf9576000915050612da2565b60005b816020015151811015612d9b57816060015160026000868152602001908152602001600020600084602001518481518110612d3a57612d39613d03565b5b602002602001015173ffffffffffffffffffffffffffffffffffffffff1673ffffffffffffffffffffffffffffffffffffffff168152602001908152602001600020541015612d8e57600092505050612da2565b8080600101915050612cfc565b5060019150505b919050565b60007ff0c57e16840df040f15088dc2f81fe391c3923bec73e23a9662efc9c229c6a00905090565b612dd7612e25565b612ddf612e65565b565b612de9612e25565b612df281612e86565b50565b600033905090565b60007f9b779b17422d0df92223018b32b4d1fa46e071723d6817e2486d003becc55f00905090565b612e2d612f0c565b612e63576040517fd7e6bcf800000000000000000000000000000000000000000000000000000000815260040160405180910390fd5b565b612e6d612e25565b6000612e77612dfd565b90506001816000018190555050565b612e8e612e25565b600073ffffffffffffffffffffffffffffffffffffffff168173ffffffffffffffffffffffffffffffffffffffff1603612f005760006040517f1e4fbdf7000000000000000000000000000000000000000000000000000000008152600401612ef7919061311d565b60405180910390fd5b612f0981612432565b50565b6000612f16612da7565b60000160089054906101000a900460ff16905090565b604051806101000160405280600073ffffffffffffffffffffffffffffffffffffffff168152602001606081526020016000815260200160008152602001600073ffffffffffffffffffffffffffffffffffffffff1681526020016000815260200160008152602001600081525090565b5080546000825590600052602060002090810190612fbb9190613048565b50565b828054828255906000526020600020908101928215613037579160200282015b828111156130365782518260006101000a81548173ffffffffffffffffffffffffffffffffffffffff021916908373ffffffffffffffffffffffffffffffffffffffff16021790555091602001919060010190612fde565b5b5090506130449190613048565b5090565b5b80821115613061576000816000905550600101613049565b5090565b6000604051905090565b600080fd5b600080fd5b6000819050919050565b61308c81613079565b811461309757600080fd5b50565b6000813590506130a981613083565b92915050565b6000602082840312156130c5576130c461306f565b5b60006130d38482850161309a565b91505092915050565b600073ffffffffffffffffffffffffffffffffffffffff82169050919050565b6000613107826130dc565b9050919050565b613117816130fc565b82525050565b6000602082019050613132600083018461310e565b92915050565b613141816130fc565b811461314c57600080fd5b50565b60008135905061315e81613138565b92915050565b60008115159050919050565b61317981613164565b811461318457600080fd5b50565b60008135905061319681613170565b92915050565b600080604083850312156131b3576131b261306f565b5b60006131c18582860161314f565b92505060206131d285828601613187565b9150509250929050565b600080604083850312156131f3576131f261306f565b5b60006132018582860161309a565b92505060206132128582860161314f565b9150509250929050565b61322581613079565b82525050565b6000602082019050613240600083018461321c565b92915050565b600081519050919050565b600082825260208201905092915050565b6000819050602082019050919050565b61327b816130fc565b82525050565b600061328d8383613272565b60208301905092915050565b6000602082019050919050565b60006132b182613246565b6132bb8185613251565b93506132c683613262565b8060005b838110156132f75781516132de8882613281565b97506132e983613299565b9250506001810190506132ca565b5085935050505092915050565b600081519050919050565b600082825260208201905092915050565b6000819050602082019050919050565b61333981613079565b82525050565b600061334b8383613330565b60208301905092915050565b6000602082019050919050565b600061336f82613304565b613379818561330f565b935061338483613320565b8060005b838110156133b557815161339c888261333f565b97506133a783613357565b925050600181019050613388565b5085935050505092915050565b600060408201905081810360008301526133dc81856132a6565b905081810360208301526133f08184613364565b90509392505050565b600080604083850312156134105761340f61306f565b5b600061341e8582860161314f565b925050602061342f8582860161309a565b9150509250929050565b600080fd5b600080fd5b600080fd5b60008083601f84011261345e5761345d613439565b5b8235905067ffffffffffffffff81111561347b5761347a61343e565b5b60208301915083602082028301111561349757613496613443565b5b9250929050565b6000806000604084860312156134b7576134b661306f565b5b60006134c58682870161314f565b935050602084013567ffffffffffffffff8111156134e6576134e5613074565b5b6134f286828701613448565b92509250509250925092565b600081519050919050565b600082825260208201905092915050565b6000819050602082019050919050565b61353381613164565b82525050565b6000613545838361352a565b60208301905092915050565b6000602082019050919050565b6000613569826134fe565b6135738185613509565b935061357e8361351a565b8060005b838110156135af5781516135968882613539565b97506135a183613551565b925050600181019050613582565b5085935050505092915050565b600060208201905081810360008301526135d6818461355e565b905092915050565b600082825260208201905092915050565b60006135fa82613246565b61360481856135de565b935061360f83613262565b8060005b838110156136405781516136278882613281565b975061363283613299565b925050600181019050613613565b5085935050505092915050565b6000610100830160008301516136666000860182613272565b506020830151848203602086015261367e82826135ef565b91505060408301516136936040860182613330565b5060608301516136a66060860182613330565b5060808301516136b96080860182613272565b5060a08301516136cc60a0860182613330565b5060c08301516136df60c0860182613330565b5060e08301516136f260e0860182613330565b508091505092915050565b60006020820190508181036000830152613717818461364d565b905092915050565b6000602082840312156137355761373461306f565b5b60006137438482850161314f565b91505092915050565b600060208201905081810360008301526137668184613364565b905092915050565b61377781613164565b82525050565b6000602082019050613792600083018461376e565b92915050565b600080602083850312156137af576137ae61306f565b5b600083013567ffffffffffffffff8111156137cd576137cc613074565b5b6137d985828601613448565b92509250509250929050565b600081519050919050565b600082825260208201905092915050565b6000819050602082019050919050565b60006101008301600083015161382a6000860182613272565b506020830151848203602086015261384282826135ef565b91505060408301516138576040860182613330565b50606083015161386a6060860182613330565b50608083015161387d6080860182613272565b5060a083015161389060a0860182613330565b5060c08301516138a360c0860182613330565b5060e08301516138b660e0860182613330565b508091505092915050565b60006138cd8383613811565b905092915050565b6000602082019050919050565b60006138ed826137e5565b6138f781856137f0565b93508360208202850161390985613801565b8060005b85811015613945578484038952815161392685826138c1565b9450613931836138d5565b925060208a0199505060018101905061390d565b50829750879550505050505092915050565b6000602082019050818103600083015261397181846138e2565b905092915050565b6000806000606084860312156139925761399161306f565b5b60006139a08682870161309a565b93505060206139b18682870161309a565b92505060406139c28682870161314f565b9150509250925092565b600060e0820190506139e1600083018a61310e565b6139ee602083018961321c565b6139fb604083018861321c565b613a08606083018761310e565b613a15608083018661321c565b613a2260a083018561321c565b613a2f60c083018461321c565b98975050505050505050565b600080fd5b6000601f19601f8301169050919050565b7f4e487b7100000000000000000000000000000000000000000000000000000000600052604160045260246000fd5b613a8982613a40565b810181811067ffffffffffffffff82111715613aa857613aa7613a51565b5b80604052505050565b6000613abb613065565b9050613ac78282613a80565b919050565b600080fd5b600067ffffffffffffffff821115613aec57613aeb613a51565b5b602082029050602081019050919050565b6000613b10613b0b84613ad1565b613ab1565b90508083825260208201905060208402830185811115613b3357613b32613443565b5b835b81811015613b5c5780613b48888261314f565b845260208401935050602081019050613b35565b5050509392505050565b600082601f830112613b7b57613b7a613439565b5b8135613b8b848260208601613afd565b91505092915050565b60006101008284031215613bab57613baa613a3b565b5b613bb6610100613ab1565b90506000613bc68482850161314f565b600083015250602082013567ffffffffffffffff811115613bea57613be9613acc565b5b613bf684828501613b66565b6020830152506040613c0a8482850161309a565b6040830152506060613c1e8482850161309a565b6060830152506080613c328482850161314f565b60808301525060a0613c468482850161309a565b60a08301525060c0613c5a8482850161309a565b60c08301525060e0613c6e8482850161309a565b60e08301525092915050565b600060208284031215613c9057613c8f61306f565b5b600082013567ffffffffffffffff811115613cae57613cad613074565b5b613cba84828501613b94565b91505092915050565b60008060408385031215613cda57613cd961306f565b5b6000613ce88582860161309a565b9250506020613cf98582860161309a565b9150509250929050565b7f4e487b7100000000000000000000000000000000000000000000000000000000600052603260045260246000fd5b7f4e487b7100000000000000000000000000000000000000000000000000000000600052601160045260246000fd5b6000613d6c82613079565b9150613d7783613079565b9250828201905080821115613d8f57613d8e613d32565b5b92915050565b6000613da082613079565b9150613dab83613079565b9250828202613db981613079565b91508282048414831517613dd057613dcf613d32565b5b5092915050565b6000604082019050613dec600083018561310e565b613df9602083018461321c565b9392505050565b600081519050613e0f81613170565b92915050565b600060208284031215613e2b57613e2a61306f565b5b6000613e3984828501613e00565b91505092915050565b6000819050919050565b600067ffffffffffffffff82169050919050565b6000819050919050565b6000613e85613e80613e7b84613e42565b613e60565b613e4c565b9050919050565b613e9581613e6a565b82525050565b6000602082019050613eb06000830184613e8c565b92915050565b6000613ec182613079565b91507fffffffffffffffffffffffffffffffffffffffffffffffffffffffffffffffff8203613ef357613ef2613d32565b5b600182019050919050565b60006080820190508181036000830152613f1881876132a6565b9050613f27602083018661310e565b613f34604083018561321c565b613f41606083018461321c565b95945050505050565b7f4e487b7100000000000000000000000000000000000000000000000000000000600052601260045260246000fd5b6000613f8482613079565b9150613f8f83613079565b925082613f9f57613f9e613f4a565b5b828206905092915050565b6000606082019050613fbf600083018661310e565b613fcc602083018561310e565b613fd9604083018461321c565b94935050505056fea26469706673582212206e1d91970b0add4235eec33217d1f83fef0012f0a1910b385f9d7d0ad2ae62ab64736f6c634300081c0033",
    "linkReferences": {},
    "deployedLinkReferences": {}
}